{
  "contractName": "BinkabiMembership",
  "abi": [
    {
      "constant": true,
      "inputs": [
        {
          "name": "",
          "type": "address"
        }
      ],
      "name": "members",
      "outputs": [
        {
          "name": "email",
          "type": "string"
        },
        {
          "name": "amount",
          "type": "uint256"
        },
        {
          "name": "isActive",
          "type": "bool"
        },
        {
          "name": "createdAt",
          "type": "uint256"
        }
      ],
      "payable": false,
      "stateMutability": "view",
      "type": "function"
    },
    {
      "constant": true,
      "inputs": [
        {
          "name": "",
          "type": "address"
        }
      ],
      "name": "memberActive",
      "outputs": [
        {
          "name": "",
          "type": "uint256"
        }
      ],
      "payable": false,
      "stateMutability": "view",
      "type": "function"
    },
    {
      "constant": false,
      "inputs": [],
      "name": "unpause",
      "outputs": [
        {
          "name": "",
          "type": "bool"
        }
      ],
      "payable": false,
      "stateMutability": "nonpayable",
      "type": "function"
    },
    {
      "constant": true,
      "inputs": [],
      "name": "paused",
      "outputs": [
        {
          "name": "",
          "type": "bool"
        }
      ],
      "payable": false,
      "stateMutability": "view",
      "type": "function"
    },
    {
      "constant": true,
      "inputs": [
        {
          "name": "",
          "type": "uint256"
        }
      ],
      "name": "emails",
      "outputs": [
        {
          "name": "",
          "type": "string"
        }
      ],
      "payable": false,
      "stateMutability": "view",
      "type": "function"
    },
    {
      "constant": false,
      "inputs": [],
      "name": "pause",
      "outputs": [
        {
          "name": "",
          "type": "bool"
        }
      ],
      "payable": false,
      "stateMutability": "nonpayable",
      "type": "function"
    },
    {
      "constant": true,
      "inputs": [],
      "name": "owner",
      "outputs": [
        {
          "name": "",
          "type": "address"
        }
      ],
      "payable": false,
      "stateMutability": "view",
      "type": "function"
    },
    {
      "constant": false,
      "inputs": [
        {
          "name": "newOwner",
          "type": "address"
        }
      ],
      "name": "transferOwnership",
      "outputs": [],
      "payable": false,
      "stateMutability": "nonpayable",
      "type": "function"
    },
    {
      "inputs": [
        {
          "name": "_binkabiTokenAddress",
          "type": "address"
        }
      ],
      "payable": false,
      "stateMutability": "nonpayable",
      "type": "constructor"
    },
    {
      "anonymous": false,
      "inputs": [
        {
          "indexed": false,
          "name": "_holder",
          "type": "address"
        },
        {
          "indexed": false,
          "name": "_amount",
          "type": "uint256"
        }
      ],
      "name": "Withdrawal",
      "type": "event"
    },
    {
      "anonymous": false,
      "inputs": [
        {
          "indexed": false,
          "name": "_holder",
          "type": "address"
        },
        {
          "indexed": false,
          "name": "_amount",
          "type": "uint256"
        }
      ],
      "name": "Active",
      "type": "event"
    },
    {
      "anonymous": false,
      "inputs": [
        {
          "indexed": false,
          "name": "_member",
          "type": "address"
        },
        {
          "indexed": false,
          "name": "_email",
          "type": "string"
        }
      ],
      "name": "Register",
      "type": "event"
    },
    {
      "anonymous": false,
      "inputs": [],
      "name": "Pause",
      "type": "event"
    },
    {
      "anonymous": false,
      "inputs": [],
      "name": "Unpause",
      "type": "event"
    },
    {
      "constant": false,
      "inputs": [
        {
          "name": "_email",
          "type": "string"
        },
        {
          "name": "_member",
          "type": "address"
        }
      ],
      "name": "registerMember",
      "outputs": [],
      "payable": false,
      "stateMutability": "nonpayable",
      "type": "function"
    },
    {
      "constant": true,
      "inputs": [
        {
          "name": "_member",
          "type": "address"
        }
      ],
      "name": "getAmount",
      "outputs": [
        {
          "name": "",
          "type": "uint256"
        }
      ],
      "payable": false,
      "stateMutability": "view",
      "type": "function"
    },
    {
      "constant": false,
      "inputs": [
        {
          "name": "_member",
          "type": "address"
        },
        {
          "name": "_amount",
          "type": "uint256"
        }
      ],
      "name": "activeMember",
      "outputs": [],
      "payable": false,
      "stateMutability": "nonpayable",
      "type": "function"
    },
    {
      "constant": false,
      "inputs": [
        {
          "name": "_member",
          "type": "address"
        },
        {
          "name": "_amount",
          "type": "uint256"
        }
      ],
      "name": "memberWithdrawal",
      "outputs": [],
      "payable": false,
      "stateMutability": "nonpayable",
      "type": "function"
    },
    {
      "constant": true,
      "inputs": [
        {
          "name": "_member",
          "type": "address"
        }
      ],
      "name": "isMembership",
      "outputs": [
        {
          "name": "",
          "type": "bool"
        }
      ],
      "payable": false,
      "stateMutability": "view",
      "type": "function"
    }
  ],
  "bytecode": "0x608060405260008060146101000a81548160ff02191690831515021790555034801561002a57600080fd5b5060405160208061152883398101806040528101908080519060200190929190505050336000806101000a81548173ffffffffffffffffffffffffffffffffffffffff021916908373ffffffffffffffffffffffffffffffffffffffff16021790555080600260006101000a81548173ffffffffffffffffffffffffffffffffffffffff021916908373ffffffffffffffffffffffffffffffffffffffff1602179055505061144a806100de6000396000f3006080604052600436106100c5576000357c0100000000000000000000000000000000000000000000000000000000900463ffffffff16806308ae4b0c146100ca57806325ec527c1461019f5780633f4ba83a146101f65780635c975abb14610225578063695a7d4914610254578063787efedd146102fa5780637cded7c1146103475780638456cb59146103945780638da5cb5b146103c3578063907d340f1461041a578063a83104e014610475578063f2fde38b146104fe578063f5a7976714610541575b600080fd5b3480156100d657600080fd5b5061010b600480360381019080803573ffffffffffffffffffffffffffffffffffffffff169060200190929190505050610598565b604051808060200185815260200184151515158152602001838152602001828103825286818151815260200191508051906020019080838360005b83811015610161578082015181840152602081019050610146565b50505050905090810190601f16801561018e5780820380516001836020036101000a031916815260200191505b509550505050505060405180910390f35b3480156101ab57600080fd5b506101e0600480360381019080803573ffffffffffffffffffffffffffffffffffffffff16906020019092919050505061066d565b6040518082815260200191505060405180910390f35b34801561020257600080fd5b5061020b610685565b604051808215151515815260200191505060405180910390f35b34801561023157600080fd5b5061023a61074a565b604051808215151515815260200191505060405180910390f35b34801561026057600080fd5b5061027f6004803603810190808035906020019092919050505061075d565b6040518080602001828103825283818151815260200191508051906020019080838360005b838110156102bf5780820151818401526020810190506102a4565b50505050905090810190601f1680156102ec5780820380516001836020036101000a031916815260200191505b509250505060405180910390f35b34801561030657600080fd5b50610345600480360381019080803573ffffffffffffffffffffffffffffffffffffffff16906020019092919080359060200190929190505050610818565b005b34801561035357600080fd5b50610392600480360381019080803573ffffffffffffffffffffffffffffffffffffffff16906020019092919080359060200190929190505050610a9e565b005b3480156103a057600080fd5b506103a9610bfd565b604051808215151515815260200191505060405180910390f35b3480156103cf57600080fd5b506103d8610cc4565b604051808273ffffffffffffffffffffffffffffffffffffffff1673ffffffffffffffffffffffffffffffffffffffff16815260200191505060405180910390f35b34801561042657600080fd5b5061045b600480360381019080803573ffffffffffffffffffffffffffffffffffffffff169060200190929190505050610ce9565b604051808215151515815260200191505060405180910390f35b34801561048157600080fd5b506104fc600480360381019080803590602001908201803590602001908080601f0160208091040260200160405190810160405280939291908181526020018383808284378201915050505050509192919290803573ffffffffffffffffffffffffffffffffffffffff169060200190929190505050610df6565b005b34801561050a57600080fd5b5061053f600480360381019080803573ffffffffffffffffffffffffffffffffffffffff1690602001909291905050506111bf565b005b34801561054d57600080fd5b50610582600480360381019080803573ffffffffffffffffffffffffffffffffffffffff169060200190929190505050611294565b6040518082815260200191505060405180910390f35b6003602052806000526040600020600091509050806000018054600181600116156101000203166002900480601f0160208091040260200160405190810160405280929190818152602001828054600181600116156101000203166002900480156106445780601f1061061957610100808354040283529160200191610644565b820191906000526020600020905b81548152906001019060200180831161062757829003601f168201915b5050505050908060010154908060020160009054906101000a900460ff16908060030154905084565b60056020528060005260406000206000915090505481565b60008060009054906101000a900473ffffffffffffffffffffffffffffffffffffffff1673ffffffffffffffffffffffffffffffffffffffff163373ffffffffffffffffffffffffffffffffffffffff161415156106e257600080fd5b600060149054906101000a900460ff1615156106fd57600080fd5b60008060146101000a81548160ff0219169083151502179055507f7805862f689e2f13df9f062ff482ad3ad112aca9e0847911ed832e158c525b3360405160405180910390a16001905090565b600060149054906101000a900460ff1681565b60048181548110151561076c57fe5b906000526020600020016000915090508054600181600116156101000203166002900480601f0160208091040260200160405190810160405280929190818152602001828054600181600116156101000203166002900480156108105780601f106107e557610100808354040283529160200191610810565b820191906000526020600020905b8154815290600101906020018083116107f357829003601f168201915b505050505081565b73d9c69e9e6949bdbf900d3a1639041069fa73c44f73ffffffffffffffffffffffffffffffffffffffff163373ffffffffffffffffffffffffffffffffffffffff1614151561086657600080fd5b80600360008473ffffffffffffffffffffffffffffffffffffffff1673ffffffffffffffffffffffffffffffffffffffff16815260200190815260200160002060010154101515156108b757600080fd5b600260009054906101000a900473ffffffffffffffffffffffffffffffffffffffff1673ffffffffffffffffffffffffffffffffffffffff16635a6b26ba83836040518363ffffffff167c0100000000000000000000000000000000000000000000000000000000028152600401808373ffffffffffffffffffffffffffffffffffffffff1673ffffffffffffffffffffffffffffffffffffffff16815260200182815260200192505050600060405180830381600087803b15801561097c57600080fd5b505af1158015610990573d6000803e3d6000fd5b505050506109e981600360008573ffffffffffffffffffffffffffffffffffffffff1673ffffffffffffffffffffffffffffffffffffffff168152602001908152602001600020600101546112e090919063ffffffff16565b600360008473ffffffffffffffffffffffffffffffffffffffff1673ffffffffffffffffffffffffffffffffffffffff168152602001908152602001600020600101819055507f7fcf532c15f0a6db0bd6d0e038bea71d30d808c7d98cb3bf7268a95bf5081b658282604051808373ffffffffffffffffffffffffffffffffffffffff1673ffffffffffffffffffffffffffffffffffffffff1681526020018281526020019250505060405180910390a15050565b73d9c69e9e6949bdbf900d3a1639041069fa73c44f73ffffffffffffffffffffffffffffffffffffffff163373ffffffffffffffffffffffffffffffffffffffff16141515610aec57600080fd5b6001600360008473ffffffffffffffffffffffffffffffffffffffff1673ffffffffffffffffffffffffffffffffffffffff16815260200190815260200160002060020160006101000a81548160ff02191690831515021790555080600360008473ffffffffffffffffffffffffffffffffffffffff1673ffffffffffffffffffffffffffffffffffffffff168152602001908152602001600020600101819055507f969833a1ae1e62d1a2eb63244db2e4dee9a80ac3ca5d488533e908dee0f0f3568282604051808373ffffffffffffffffffffffffffffffffffffffff1673ffffffffffffffffffffffffffffffffffffffff1681526020018281526020019250505060405180910390a15050565b60008060009054906101000a900473ffffffffffffffffffffffffffffffffffffffff1673ffffffffffffffffffffffffffffffffffffffff163373ffffffffffffffffffffffffffffffffffffffff16141515610c5a57600080fd5b600060149054906101000a900460ff16151515610c7657600080fd5b6001600060146101000a81548160ff0219169083151502179055507f6985a02210a168e66602d3235cb6db0e70f92b3ba4d376a33c0f3d9434bff62560405160405180910390a16001905090565b6000809054906101000a900473ffffffffffffffffffffffffffffffffffffffff1681565b60008073d9c69e9e6949bdbf900d3a1639041069fa73c44f73ffffffffffffffffffffffffffffffffffffffff163373ffffffffffffffffffffffffffffffffffffffff16141515610d3a57600080fd5b6000600360008573ffffffffffffffffffffffffffffffffffffffff1673ffffffffffffffffffffffffffffffffffffffff16815260200190815260200160002060010154118015610ddf575060011515600360008573ffffffffffffffffffffffffffffffffffffffff1673ffffffffffffffffffffffffffffffffffffffff16815260200190815260200160002060020160009054906101000a900460ff161515145b15610de957600190505b6000905080915050919050565b600073d9c69e9e6949bdbf900d3a1639041069fa73c44f73ffffffffffffffffffffffffffffffffffffffff163373ffffffffffffffffffffffffffffffffffffffff16141515610e4657600080fd5b6000600560008473ffffffffffffffffffffffffffffffffffffffff1673ffffffffffffffffffffffffffffffffffffffff1681526020019081526020016000205411151515610e9557600080fd5b600090505b600480549050811015610fad57826040518082805190602001908083835b602083101515610edd5780518252602082019150602081019050602083039250610eb8565b6001836020036101000a038019825116818451168082178552505050505050905001915050604051809103902060001916600482815481101515610f1d57fe5b906000526020600020016040518082805460018160011615610100020316600290048015610f825780601f10610f60576101008083540402835291820191610f82565b820191906000526020600020905b815481529060010190602001808311610f6e575b505091505060405180910390206000191614151515610fa057600080fd5b8080600101915050610e9a565b6080604051908101604052808481526020016000815260200160001515815260200142815250600360008473ffffffffffffffffffffffffffffffffffffffff1673ffffffffffffffffffffffffffffffffffffffff168152602001908152602001600020600082015181600001908051906020019061102e9291906112f9565b506020820151816001015560408201518160020160006101000a81548160ff0219169083151502179055506060820151816003015590505060048390806001815401808255809150509060018203906000526020600020016000909192909190915090805190602001906110a3929190611379565b50506001600560008473ffffffffffffffffffffffffffffffffffffffff1673ffffffffffffffffffffffffffffffffffffffff168152602001908152602001600020819055507f6ba0831d2f62ae5cbf7214bcc1d79c5da1d705f12811efda0beaa840006f874e8284604051808373ffffffffffffffffffffffffffffffffffffffff1673ffffffffffffffffffffffffffffffffffffffff16815260200180602001828103825283818151815260200191508051906020019080838360005b8381101561117f578082015181840152602081019050611164565b50505050905090810190601f1680156111ac5780820380516001836020036101000a031916815260200191505b50935050505060405180910390a1505050565b6000809054906101000a900473ffffffffffffffffffffffffffffffffffffffff1673ffffffffffffffffffffffffffffffffffffffff163373ffffffffffffffffffffffffffffffffffffffff1614151561121a57600080fd5b600073ffffffffffffffffffffffffffffffffffffffff168173ffffffffffffffffffffffffffffffffffffffff1614151561129157806000806101000a81548173ffffffffffffffffffffffffffffffffffffffff021916908373ffffffffffffffffffffffffffffffffffffffff1602179055505b50565b6000600360008373ffffffffffffffffffffffffffffffffffffffff1673ffffffffffffffffffffffffffffffffffffffff168152602001908152602001600020600101549050919050565b60008282111515156112ee57fe5b818303905092915050565b828054600181600116156101000203166002900490600052602060002090601f016020900481019282601f1061133a57805160ff1916838001178555611368565b82800160010185558215611368579182015b8281111561136757825182559160200191906001019061134c565b5b50905061137591906113f9565b5090565b828054600181600116156101000203166002900490600052602060002090601f016020900481019282601f106113ba57805160ff19168380011785556113e8565b828001600101855582156113e8579182015b828111156113e75782518255916020019190600101906113cc565b5b5090506113f591906113f9565b5090565b61141b91905b808211156114175760008160009055506001016113ff565b5090565b905600a165627a7a72305820c0d2f24c0e776c2789d4f618f1251da72fd26885b1f5da18114f9dec6301b2e90029",
  "source": "pragma solidity ^0.4.20;\n\nimport './interfaces/Pausable.sol';\nimport './libs/SafeMath.sol';\nimport './BinkabiTokenCreate.sol';\n\ncontract BinkabiMembership is Pausable {\n    using SafeMath for uint256;\n    mapping (address => uint256) balances;\n    BinkabiTokenCreate binkabi;\n\n    event Withdrawal(address _holder, uint256 _amount);\n    event Active(address _holder, uint256 _amount);\n    event Register(address _member, string _email);\n\n    struct Member {\n        string email;\n        uint256 amount;\n        bool isActive;\n        uint256 createdAt;\n    }\n    mapping (address => Member) public members;\n    string[] public emails;\n    mapping (address => uint256) public memberActive;\n\n    modifier onlyOwnerExchange() {\n        require(msg.sender == 0xD9C69E9E6949BDbf900d3A1639041069fA73C44f);\n        _;\n    }\n\n    constructor(BinkabiTokenCreate _binkabiTokenAddress) public {\n        binkabi = BinkabiTokenCreate(_binkabiTokenAddress);\n    }\n\n    function registerMember(string _email, address _member) onlyOwnerExchange public {\n        require(memberActive[_member] <= 0);\n        for (uint256 i = 0; i < emails.length; i++) {\n            require(keccak256(emails[i]) != keccak256(_email));\n        }\n        \n        members[_member] = Member({\n            email: _email,\n            isActive: false,\n            createdAt: now,\n            amount: 0\n        });\n        emails.push(_email);\n        memberActive[_member] = 1;\n        emit Register(_member, _email);\n    }\n\n    function getAmount(address _member) public view returns (uint256) {\n        return members[_member].amount;\n    }\n\n    function activeMember(address _member, uint256 _amount) onlyOwnerExchange public {\n        members[_member].isActive = true;\n        members[_member].amount = _amount;\n        emit Active(_member, _amount);\n    }\n\n    function memberWithdrawal(address _member, uint256 _amount) onlyOwnerExchange public {\n        require(members[_member].amount >= _amount);\n        binkabi.withdrawal(_member, _amount);\n        members[_member].amount = members[_member].amount.sub(_amount);\n        emit Withdrawal(_member, _amount);\n    }\n\n    function isMembership(address _member) onlyOwnerExchange public view returns(bool) {\n        bool _isActive;\n        if (members[_member].amount > 0 && members[_member].isActive == true){\n            _isActive = true;\n        }\n        _isActive = false;\n        return _isActive;\n    }\n}",
  "sourcePath": "/mnt/f/xenial/project/tomo/binkabi-api/contracts/contracts/BinkabiMembership.sol",
  "compiler": {
    "name": "solc",
    "version": "0.4.23+commit.124ca40d.Emscripten.clang"
  },
  "schemaVersion": "2.0.0",
  "updatedAt": "2018-05-10T10:16:51.168Z"
}