{
  "contractName": "BinkabiVoting",
  "abi": [
    {
      "constant": false,
      "inputs": [],
      "name": "unpause",
      "outputs": [
        {
          "name": "",
          "type": "bool"
        }
      ],
      "payable": false,
      "stateMutability": "nonpayable",
      "type": "function"
    },
    {
      "constant": true,
      "inputs": [],
      "name": "paused",
      "outputs": [
        {
          "name": "",
          "type": "bool"
        }
      ],
      "payable": false,
      "stateMutability": "view",
      "type": "function"
    },
    {
      "constant": false,
      "inputs": [],
      "name": "pause",
      "outputs": [
        {
          "name": "",
          "type": "bool"
        }
      ],
      "payable": false,
      "stateMutability": "nonpayable",
      "type": "function"
    },
    {
      "constant": true,
      "inputs": [],
      "name": "owner",
      "outputs": [
        {
          "name": "",
          "type": "address"
        }
      ],
      "payable": false,
      "stateMutability": "view",
      "type": "function"
    },
    {
      "constant": false,
      "inputs": [
        {
          "name": "newOwner",
          "type": "address"
        }
      ],
      "name": "transferOwnership",
      "outputs": [],
      "payable": false,
      "stateMutability": "nonpayable",
      "type": "function"
    },
    {
      "inputs": [
        {
          "name": "_binkabiTokenAddress",
          "type": "address"
        }
      ],
      "payable": false,
      "stateMutability": "nonpayable",
      "type": "constructor"
    },
    {
      "anonymous": false,
      "inputs": [],
      "name": "Pause",
      "type": "event"
    },
    {
      "anonymous": false,
      "inputs": [],
      "name": "Unpause",
      "type": "event"
    },
    {
      "constant": false,
      "inputs": [
        {
          "name": "delegate",
          "type": "address"
        },
        {
          "name": "score",
          "type": "uint256"
        },
        {
          "name": "comments",
          "type": "string"
        }
      ],
      "name": "rating",
      "outputs": [
        {
          "name": "",
          "type": "bool"
        }
      ],
      "payable": false,
      "stateMutability": "nonpayable",
      "type": "function"
    },
    {
      "constant": false,
      "inputs": [
        {
          "name": "delegate",
          "type": "address"
        }
      ],
      "name": "getRating",
      "outputs": [
        {
          "name": "",
          "type": "uint256"
        },
        {
          "name": "",
          "type": "uint256"
        }
      ],
      "payable": false,
      "stateMutability": "nonpayable",
      "type": "function"
    },
    {
      "constant": false,
      "inputs": [
        {
          "name": "delegate",
          "type": "address"
        }
      ],
      "name": "isRated",
      "outputs": [
        {
          "name": "",
          "type": "bool"
        }
      ],
      "payable": false,
      "stateMutability": "nonpayable",
      "type": "function"
    }
  ],
  "bytecode": "0x608060405260008060146101000a81548160ff02191690831515021790555034801561002a57600080fd5b50604051602080610e9783398101806040528101908080519060200190929190505050336000806101000a81548173ffffffffffffffffffffffffffffffffffffffff021916908373ffffffffffffffffffffffffffffffffffffffff16021790555080600160006101000a81548173ffffffffffffffffffffffffffffffffffffffff021916908373ffffffffffffffffffffffffffffffffffffffff16021790555050610db9806100de6000396000f30060806040526004361061008e576000357c0100000000000000000000000000000000000000000000000000000000900463ffffffff1680630ed86b8d1461009357806323ba61071461013e5780633f4ba83a146101995780635c975abb146101c857806380fc9c0e146101f75780638456cb59146102555780638da5cb5b14610284578063f2fde38b146102db575b600080fd5b34801561009f57600080fd5b50610124600480360381019080803573ffffffffffffffffffffffffffffffffffffffff16906020019092919080359060200190929190803590602001908201803590602001908080601f016020809104026020016040519081016040528093929190818152602001838380828437820191505050505050919291929050505061031e565b604051808215151515815260200191505060405180910390f35b34801561014a57600080fd5b5061017f600480360381019080803573ffffffffffffffffffffffffffffffffffffffff16906020019092919050505061081f565b604051808215151515815260200191505060405180910390f35b3480156101a557600080fd5b506101ae61097f565b604051808215151515815260200191505060405180910390f35b3480156101d457600080fd5b506101dd610a44565b604051808215151515815260200191505060405180910390f35b34801561020357600080fd5b50610238600480360381019080803573ffffffffffffffffffffffffffffffffffffffff169060200190929190505050610a57565b604051808381526020018281526020019250505060405180910390f35b34801561026157600080fd5b5061026a610b0c565b604051808215151515815260200191505060405180910390f35b34801561029057600080fd5b50610299610bd3565b604051808273ffffffffffffffffffffffffffffffffffffffff1673ffffffffffffffffffffffffffffffffffffffff16815260200191505060405180910390f35b3480156102e757600080fd5b5061031c600480360381019080803573ffffffffffffffffffffffffffffffffffffffff169060200190929190505050610bf8565b005b6000806000841180156103315750600584105b151561033c57600080fd5b8473ffffffffffffffffffffffffffffffffffffffff163373ffffffffffffffffffffffffffffffffffffffff161415151561037757600080fd5b600090505b600260008673ffffffffffffffffffffffffffffffffffffffff1673ffffffffffffffffffffffffffffffffffffffff1681526020019081526020016000208054905081101561048d573373ffffffffffffffffffffffffffffffffffffffff16600260008773ffffffffffffffffffffffffffffffffffffffff1673ffffffffffffffffffffffffffffffffffffffff1681526020019081526020016000208281548110151561042957fe5b906000526020600020906004020160010160009054906101000a900473ffffffffffffffffffffffffffffffffffffffff1673ffffffffffffffffffffffffffffffffffffffff1614156104805760009150610817565b808060010191505061037c565b600260008673ffffffffffffffffffffffffffffffffffffffff1673ffffffffffffffffffffffffffffffffffffffff1681526020019081526020016000206080604051908101604052808681526020013373ffffffffffffffffffffffffffffffffffffffff16815260200185815260200142815250908060018154018082558091505090600182039060005260206000209060040201600090919290919091506000820151816000015560208201518160010160006101000a81548173ffffffffffffffffffffffffffffffffffffffff021916908373ffffffffffffffffffffffffffffffffffffffff160217905550604082015181600201908051906020019061059c929190610ce8565b506060820151816003015550505083600360008773ffffffffffffffffffffffffffffffffffffffff1673ffffffffffffffffffffffffffffffffffffffff168152602001908152602001600020600001600082825401925050819055506001600360008773ffffffffffffffffffffffffffffffffffffffff1673ffffffffffffffffffffffffffffffffffffffff16815260200190815260200160002060010160008282540192505081905550600160009054906101000a900473ffffffffffffffffffffffffffffffffffffffff1673ffffffffffffffffffffffffffffffffffffffff16630d4b085a3360056040518363ffffffff167c0100000000000000000000000000000000000000000000000000000000028152600401808373ffffffffffffffffffffffffffffffffffffffff1673ffffffffffffffffffffffffffffffffffffffff16815260200182815260200192505050600060405180830381600087803b15801561071157600080fd5b505af1158015610725573d6000803e3d6000fd5b5050505060028411151561081257600160009054906101000a900473ffffffffffffffffffffffffffffffffffffffff1673ffffffffffffffffffffffffffffffffffffffff1663323f57148660056040518363ffffffff167c0100000000000000000000000000000000000000000000000000000000028152600401808373ffffffffffffffffffffffffffffffffffffffff1673ffffffffffffffffffffffffffffffffffffffff16815260200182815260200192505050600060405180830381600087803b1580156107f957600080fd5b505af115801561080d573d6000803e3d6000fd5b505050505b600191505b509392505050565b60008060008373ffffffffffffffffffffffffffffffffffffffff163373ffffffffffffffffffffffffffffffffffffffff161415151561085f57600080fd5b60009150600090505b600260008573ffffffffffffffffffffffffffffffffffffffff1673ffffffffffffffffffffffffffffffffffffffff16815260200190815260200160002080549050811015610975573373ffffffffffffffffffffffffffffffffffffffff16600260008673ffffffffffffffffffffffffffffffffffffffff1673ffffffffffffffffffffffffffffffffffffffff1681526020019081526020016000208281548110151561091557fe5b906000526020600020906004020160010160009054906101000a900473ffffffffffffffffffffffffffffffffffffffff1673ffffffffffffffffffffffffffffffffffffffff16141561096857600191505b8080600101915050610868565b8192505050919050565b60008060009054906101000a900473ffffffffffffffffffffffffffffffffffffffff1673ffffffffffffffffffffffffffffffffffffffff163373ffffffffffffffffffffffffffffffffffffffff161415156109dc57600080fd5b600060149054906101000a900460ff1615156109f757600080fd5b60008060146101000a81548160ff0219169083151502179055507f7805862f689e2f13df9f062ff482ad3ad112aca9e0847911ed832e158c525b3360405160405180910390a16001905090565b600060149054906101000a900460ff1681565b6000806000806000600360008773ffffffffffffffffffffffffffffffffffffffff1673ffffffffffffffffffffffffffffffffffffffff168152602001908152602001600020600101549250600360008773ffffffffffffffffffffffffffffffffffffffff1673ffffffffffffffffffffffffffffffffffffffff168152602001908152602001600020600001549150610afc8383610ccd90919063ffffffff16565b9050808394509450505050915091565b60008060009054906101000a900473ffffffffffffffffffffffffffffffffffffffff1673ffffffffffffffffffffffffffffffffffffffff163373ffffffffffffffffffffffffffffffffffffffff16141515610b6957600080fd5b600060149054906101000a900460ff16151515610b8557600080fd5b6001600060146101000a81548160ff0219169083151502179055507f6985a02210a168e66602d3235cb6db0e70f92b3ba4d376a33c0f3d9434bff62560405160405180910390a16001905090565b6000809054906101000a900473ffffffffffffffffffffffffffffffffffffffff1681565b6000809054906101000a900473ffffffffffffffffffffffffffffffffffffffff1673ffffffffffffffffffffffffffffffffffffffff163373ffffffffffffffffffffffffffffffffffffffff16141515610c5357600080fd5b600073ffffffffffffffffffffffffffffffffffffffff168173ffffffffffffffffffffffffffffffffffffffff16141515610cca57806000806101000a81548173ffffffffffffffffffffffffffffffffffffffff021916908373ffffffffffffffffffffffffffffffffffffffff1602179055505b50565b6000808284811515610cdb57fe5b0490508091505092915050565b828054600181600116156101000203166002900490600052602060002090601f016020900481019282601f10610d2957805160ff1916838001178555610d57565b82800160010185558215610d57579182015b82811115610d56578251825591602001919060010190610d3b565b5b509050610d649190610d68565b5090565b610d8a91905b80821115610d86576000816000905550600101610d6e565b5090565b905600a165627a7a7230582080536e89c020d00c8d5afa2d7fc82aef983a6a81f848ad7a2b31f91ca67e533b0029",
  "source": "pragma solidity ^0.4.20;\nimport './interfaces/Pausable.sol';\nimport './libs/SafeMath.sol';\nimport './BinkabiTokenCreate.sol';\n\ncontract BinkabiVoting is Pausable{\n    using SafeMath for uint256;\n\n    BinkabiTokenCreate binkabi;\n\n    constructor(BinkabiTokenCreate _binkabiTokenAddress) public {\n        binkabi = BinkabiTokenCreate(_binkabiTokenAddress);\n    }\n\n    struct Vote {\n        uint256 rate;\n        address voter;\n        string description;\n        uint256 created_at;\n    }\n\n    struct VoteAvg {\n        uint256 total_score;\n        uint256 total_vote;\n    }\n\n    mapping (address => Vote[]) voting;\n    mapping (address => VoteAvg) vote_avg;\n\n    function rating(address delegate, uint256 score, string comments) public returns(bool) {\n        require(score > 0 && score < 5);\n        require(msg.sender != delegate);\n        \n        for (uint256 i = 0; i < voting[delegate].length; i++) {\n            if (voting[delegate][i].voter == msg.sender){\n                return false;\n            }\n        }\n\n        voting[delegate].push(Vote({\n            rate: score,\n            voter: msg.sender,\n            description: comments,\n            created_at: now\n        }));\n\n        vote_avg[delegate].total_score += score;\n        vote_avg[delegate].total_vote += 1;\n\n        //TODO: Bonus 5 BNB for voter, if score less than 2 punish seller\n        binkabi.bonusMember(msg.sender, 5);\n        if (score <= 2){\n            binkabi.punishMember(delegate, 5);\n        }\n        \n        return true;\n\n    }\n\n    function getRating(address delegate) public returns(uint256, uint256) {\n        uint256 total_vote = vote_avg[delegate].total_vote;\n        uint256 total_score = vote_avg[delegate].total_score;\n        uint256 rate = total_score.div(total_vote);\n        return (rate, total_vote);\n    }\n\n    // function getComment(address delegate) public returns(Vote[] list_comment) {\n    //     list_comment = voting[delegate];\n    //     return list_comment;\n    // }\n\n    function isRated(address delegate) public returns(bool) {\n        require(msg.sender != delegate);\n        bool is_rated = false;\n        \n        for (uint256 i = 0; i < voting[delegate].length; i++) {\n            if (voting[delegate][i].voter == msg.sender){\n                is_rated = true;\n            }\n        }\n\n        return is_rated;\n    }\n\n}",
  "sourcePath": "/mnt/f/xenial/project/tomo/binkabi-api/contracts/contracts/BinkabiVoting.sol",
  "compiler": {
    "name": "solc",
    "version": "0.4.23+commit.124ca40d.Emscripten.clang"
  },
  "schemaVersion": "2.0.0",
  "updatedAt": "2018-05-10T10:16:51.182Z"
}