{
  "contractName": "BinkabiEscrow",
  "abi": [
    {
      "constant": false,
      "inputs": [],
      "name": "unpause",
      "outputs": [
        {
          "name": "",
          "type": "bool"
        }
      ],
      "payable": false,
      "stateMutability": "nonpayable",
      "type": "function"
    },
    {
      "constant": true,
      "inputs": [],
      "name": "paused",
      "outputs": [
        {
          "name": "",
          "type": "bool"
        }
      ],
      "payable": false,
      "stateMutability": "view",
      "type": "function"
    },
    {
      "constant": false,
      "inputs": [],
      "name": "pause",
      "outputs": [
        {
          "name": "",
          "type": "bool"
        }
      ],
      "payable": false,
      "stateMutability": "nonpayable",
      "type": "function"
    },
    {
      "constant": true,
      "inputs": [],
      "name": "owner",
      "outputs": [
        {
          "name": "",
          "type": "address"
        }
      ],
      "payable": false,
      "stateMutability": "view",
      "type": "function"
    },
    {
      "constant": true,
      "inputs": [],
      "name": "order_id",
      "outputs": [
        {
          "name": "",
          "type": "uint256"
        }
      ],
      "payable": false,
      "stateMutability": "view",
      "type": "function"
    },
    {
      "constant": false,
      "inputs": [
        {
          "name": "newOwner",
          "type": "address"
        }
      ],
      "name": "transferOwnership",
      "outputs": [],
      "payable": false,
      "stateMutability": "nonpayable",
      "type": "function"
    },
    {
      "inputs": [
        {
          "name": "_binkabiTokenAddress",
          "type": "address"
        }
      ],
      "payable": false,
      "stateMutability": "nonpayable",
      "type": "constructor"
    },
    {
      "anonymous": false,
      "inputs": [],
      "name": "Pause",
      "type": "event"
    },
    {
      "anonymous": false,
      "inputs": [],
      "name": "Unpause",
      "type": "event"
    },
    {
      "constant": false,
      "inputs": [
        {
          "name": "_buyer",
          "type": "address"
        },
        {
          "name": "_seller",
          "type": "address"
        },
        {
          "name": "_amount",
          "type": "uint256"
        }
      ],
      "name": "createOrder",
      "outputs": [
        {
          "name": "",
          "type": "uint256"
        }
      ],
      "payable": false,
      "stateMutability": "nonpayable",
      "type": "function"
    },
    {
      "constant": false,
      "inputs": [
        {
          "name": "_order_id",
          "type": "uint256"
        }
      ],
      "name": "cancelOrder",
      "outputs": [
        {
          "name": "",
          "type": "bool"
        }
      ],
      "payable": false,
      "stateMutability": "nonpayable",
      "type": "function"
    },
    {
      "constant": false,
      "inputs": [
        {
          "name": "_order_id",
          "type": "uint256"
        }
      ],
      "name": "getOrderState",
      "outputs": [
        {
          "name": "",
          "type": "uint8"
        }
      ],
      "payable": false,
      "stateMutability": "nonpayable",
      "type": "function"
    },
    {
      "constant": false,
      "inputs": [
        {
          "name": "_order_id",
          "type": "uint256"
        }
      ],
      "name": "paymentOrder",
      "outputs": [
        {
          "name": "",
          "type": "bool"
        }
      ],
      "payable": false,
      "stateMutability": "nonpayable",
      "type": "function"
    },
    {
      "constant": false,
      "inputs": [
        {
          "name": "_order_id",
          "type": "uint256"
        },
        {
          "name": "reason",
          "type": "string"
        }
      ],
      "name": "refundingOrder",
      "outputs": [
        {
          "name": "",
          "type": "bool"
        }
      ],
      "payable": false,
      "stateMutability": "nonpayable",
      "type": "function"
    },
    {
      "constant": false,
      "inputs": [
        {
          "name": "_order_id",
          "type": "uint256"
        }
      ],
      "name": "refundedOrder",
      "outputs": [
        {
          "name": "",
          "type": "bool"
        }
      ],
      "payable": false,
      "stateMutability": "nonpayable",
      "type": "function"
    },
    {
      "constant": false,
      "inputs": [
        {
          "name": "_order_id",
          "type": "uint256"
        }
      ],
      "name": "deliverOrder",
      "outputs": [],
      "payable": false,
      "stateMutability": "nonpayable",
      "type": "function"
    },
    {
      "constant": false,
      "inputs": [
        {
          "name": "_order_id",
          "type": "uint256"
        }
      ],
      "name": "completedOrder",
      "outputs": [
        {
          "name": "",
          "type": "bool"
        }
      ],
      "payable": false,
      "stateMutability": "nonpayable",
      "type": "function"
    }
  ],
  "bytecode": "0x608060405260008060146101000a81548160ff021916908315150217905550600060025534801561002f57600080fd5b5060405160208061168583398101806040528101908080519060200190929190505050336000806101000a81548173ffffffffffffffffffffffffffffffffffffffff021916908373ffffffffffffffffffffffffffffffffffffffff16021790555080600160006101000a81548173ffffffffffffffffffffffffffffffffffffffff021916908373ffffffffffffffffffffffffffffffffffffffff160217905550506115a2806100e36000396000f3006080604052600436106100d0576000357c0100000000000000000000000000000000000000000000000000000000900463ffffffff1680631247e91d146100d55780633f4ba83a1461011a578063514fcac7146101495780635c975abb1461018e578063681b19ff146101bd578063810bd6af146102025780638456cb59146102515780638da5cb5b1461028057806390c55f0b146102d75780639a5d6a4a14610362578063b9791425146103e3578063b9beddfb1461040e578063ddff5e7d14610453578063f2fde38b14610480575b600080fd5b3480156100e157600080fd5b50610100600480360381019080803590602001909291905050506104c3565b604051808215151515815260200191505060405180910390f35b34801561012657600080fd5b5061012f6106a3565b604051808215151515815260200191505060405180910390f35b34801561015557600080fd5b5061017460048036038101908080359060200190929190505050610768565b604051808215151515815260200191505060405180910390f35b34801561019a57600080fd5b506101a36109a9565b604051808215151515815260200191505060405180910390f35b3480156101c957600080fd5b506101e8600480360381019080803590602001909291905050506109bc565b604051808215151515815260200191505060405180910390f35b34801561020e57600080fd5b5061022d60048036038101908080359060200190929190505050610bcb565b6040518082600781111561023d57fe5b60ff16815260200191505060405180910390f35b34801561025d57600080fd5b50610266610bf8565b604051808215151515815260200191505060405180910390f35b34801561028c57600080fd5b50610295610cbf565b604051808273ffffffffffffffffffffffffffffffffffffffff1673ffffffffffffffffffffffffffffffffffffffff16815260200191505060405180910390f35b3480156102e357600080fd5b5061034860048036038101908080359060200190929190803590602001908201803590602001908080601f0160208091040260200160405190810160405280939291908181526020018383808284378201915050505050509192919290505050610ce4565b604051808215151515815260200191505060405180910390f35b34801561036e57600080fd5b506103cd600480360381019080803573ffffffffffffffffffffffffffffffffffffffff169060200190929190803573ffffffffffffffffffffffffffffffffffffffff16906020019092919080359060200190929190505050610ed7565b6040518082815260200191505060405180910390f35b3480156103ef57600080fd5b506103f86110bc565b6040518082815260200191505060405180910390f35b34801561041a57600080fd5b50610439600480360381019080803590602001909291905050506110c2565b604051808215151515815260200191505060405180910390f35b34801561045f57600080fd5b5061047e600480360381019080803590602001909291905050506112d1565b005b34801561048c57600080fd5b506104c1600480360381019080803573ffffffffffffffffffffffffffffffffffffffff16906020019092919050505061137c565b005b6000806003600084815260200190815260200160002060010160009054906101000a900473ffffffffffffffffffffffffffffffffffffffff1673ffffffffffffffffffffffffffffffffffffffff163373ffffffffffffffffffffffffffffffffffffffff1614151561053657600080fd5b600160009054906101000a900473ffffffffffffffffffffffffffffffffffffffff1673ffffffffffffffffffffffffffffffffffffffff166356d95e1933600360008781526020019081526020016000206003015460016040518463ffffffff167c0100000000000000000000000000000000000000000000000000000000028152600401808473ffffffffffffffffffffffffffffffffffffffff1673ffffffffffffffffffffffffffffffffffffffff168152602001838152602001821515151581526020019350505050602060405180830381600087803b15801561061e57600080fd5b505af1158015610632573d6000803e3d6000fd5b505050506040513d602081101561064857600080fd5b81019080805190602001909291905050509050801561069a5760016003600085815260200190815260200160002060010160146101000a81548160ff0219169083600781111561069457fe5b02179055505b80915050919050565b60008060009054906101000a900473ffffffffffffffffffffffffffffffffffffffff1673ffffffffffffffffffffffffffffffffffffffff163373ffffffffffffffffffffffffffffffffffffffff1614151561070057600080fd5b600060149054906101000a900460ff16151561071b57600080fd5b60008060146101000a81548160ff0219169083151502179055507f7805862f689e2f13df9f062ff482ad3ad112aca9e0847911ed832e158c525b3360405160405180910390a16001905090565b60006003600083815260200190815260200160002060000160009054906101000a900473ffffffffffffffffffffffffffffffffffffffff1673ffffffffffffffffffffffffffffffffffffffff163373ffffffffffffffffffffffffffffffffffffffff16148061083b57506003600083815260200190815260200160002060010160009054906101000a900473ffffffffffffffffffffffffffffffffffffffff1673ffffffffffffffffffffffffffffffffffffffff163373ffffffffffffffffffffffffffffffffffffffff16145b151561084657600080fd5b6000600781111561085357fe5b6003600084815260200190815260200160002060010160149054906101000a900460ff16600781111561088257fe5b14151561088e57600080fd5b60076003600084815260200190815260200160002060010160146101000a81548160ff021916908360078111156108c157fe5b0217905550600160009054906101000a900473ffffffffffffffffffffffffffffffffffffffff1673ffffffffffffffffffffffffffffffffffffffff1663323f57143360056040518363ffffffff167c0100000000000000000000000000000000000000000000000000000000028152600401808373ffffffffffffffffffffffffffffffffffffffff1673ffffffffffffffffffffffffffffffffffffffff16815260200182815260200192505050600060405180830381600087803b15801561098c57600080fd5b505af11580156109a0573d6000803e3d6000fd5b50505050919050565b600060149054906101000a900460ff1681565b6000806003600084815260200190815260200160002060010160009054906101000a900473ffffffffffffffffffffffffffffffffffffffff1673ffffffffffffffffffffffffffffffffffffffff163373ffffffffffffffffffffffffffffffffffffffff16141515610a2f57600080fd5b60046003600085815260200190815260200160002060010160146101000a81548160ff02191690836007811115610a6257fe5b0217905550600160009054906101000a900473ffffffffffffffffffffffffffffffffffffffff1673ffffffffffffffffffffffffffffffffffffffff166356d95e196003600086815260200190815260200160002060000160009054906101000a900473ffffffffffffffffffffffffffffffffffffffff16600360008781526020019081526020016000206003015460006040518463ffffffff167c0100000000000000000000000000000000000000000000000000000000028152600401808473ffffffffffffffffffffffffffffffffffffffff1673ffffffffffffffffffffffffffffffffffffffff168152602001838152602001821515151581526020019350505050602060405180830381600087803b158015610b8557600080fd5b505af1158015610b99573d6000803e3d6000fd5b505050506040513d6020811015610baf57600080fd5b8101908080519060200190929190505050905080915050919050565b60006003600083815260200190815260200160002060010160149054906101000a900460ff169050919050565b60008060009054906101000a900473ffffffffffffffffffffffffffffffffffffffff1673ffffffffffffffffffffffffffffffffffffffff163373ffffffffffffffffffffffffffffffffffffffff16141515610c5557600080fd5b600060149054906101000a900460ff16151515610c7157600080fd5b6001600060146101000a81548160ff0219169083151502179055507f6985a02210a168e66602d3235cb6db0e70f92b3ba4d376a33c0f3d9434bff62560405160405180910390a16001905090565b6000809054906101000a900473ffffffffffffffffffffffffffffffffffffffff1681565b60006003600084815260200190815260200160002060010160009054906101000a900473ffffffffffffffffffffffffffffffffffffffff1673ffffffffffffffffffffffffffffffffffffffff163373ffffffffffffffffffffffffffffffffffffffff16141515610d5657600080fd5b81600360008581526020019081526020016000206002019080519060200190610d80929190611451565b5060056003600085815260200190815260200160002060010160146101000a81548160ff02191690836007811115610db457fe5b0217905550600160009054906101000a900473ffffffffffffffffffffffffffffffffffffffff1673ffffffffffffffffffffffffffffffffffffffff1663323f57146003600086815260200190815260200160002060000160009054906101000a900473ffffffffffffffffffffffffffffffffffffffff1660056040518363ffffffff167c0100000000000000000000000000000000000000000000000000000000028152600401808373ffffffffffffffffffffffffffffffffffffffff1673ffffffffffffffffffffffffffffffffffffffff16815260200182815260200192505050600060405180830381600087803b158015610eb557600080fd5b505af1158015610ec9573d6000803e3d6000fd5b505050506001905092915050565b6000808373ffffffffffffffffffffffffffffffffffffffff168573ffffffffffffffffffffffffffffffffffffffff1614151515610f1557600080fd5b600083111515610f2457600080fd5b600160025401905060c0604051908101604052808573ffffffffffffffffffffffffffffffffffffffff1681526020018673ffffffffffffffffffffffffffffffffffffffff16815260200160006007811115610f7d57fe5b815260200160206040519081016040528060008152508152602001848152602001428152506003600083815260200190815260200160002060008201518160000160006101000a81548173ffffffffffffffffffffffffffffffffffffffff021916908373ffffffffffffffffffffffffffffffffffffffff16021790555060208201518160010160006101000a81548173ffffffffffffffffffffffffffffffffffffffff021916908373ffffffffffffffffffffffffffffffffffffffff16021790555060408201518160010160146101000a81548160ff0219169083600781111561106757fe5b021790555060608201518160020190805190602001906110889291906114d1565b506080820151816003015560a082015181600401559050506001600260008282540192505081905550809150509392505050565b60025481565b6000806003600084815260200190815260200160002060000160009054906101000a900473ffffffffffffffffffffffffffffffffffffffff1673ffffffffffffffffffffffffffffffffffffffff163373ffffffffffffffffffffffffffffffffffffffff1614151561113557600080fd5b60066003600085815260200190815260200160002060010160146101000a81548160ff0219169083600781111561116857fe5b0217905550600160009054906101000a900473ffffffffffffffffffffffffffffffffffffffff1673ffffffffffffffffffffffffffffffffffffffff166356d95e196003600086815260200190815260200160002060010160009054906101000a900473ffffffffffffffffffffffffffffffffffffffff16600360008781526020019081526020016000206003015460006040518463ffffffff167c0100000000000000000000000000000000000000000000000000000000028152600401808473ffffffffffffffffffffffffffffffffffffffff1673ffffffffffffffffffffffffffffffffffffffff168152602001838152602001821515151581526020019350505050602060405180830381600087803b15801561128b57600080fd5b505af115801561129f573d6000803e3d6000fd5b505050506040513d60208110156112b557600080fd5b8101908080519060200190929190505050905080915050919050565b6003600082815260200190815260200160002060000160009054906101000a900473ffffffffffffffffffffffffffffffffffffffff1673ffffffffffffffffffffffffffffffffffffffff163373ffffffffffffffffffffffffffffffffffffffff1614151561134157600080fd5b60026003600083815260200190815260200160002060010160146101000a81548160ff0219169083600781111561137457fe5b021790555050565b6000809054906101000a900473ffffffffffffffffffffffffffffffffffffffff1673ffffffffffffffffffffffffffffffffffffffff163373ffffffffffffffffffffffffffffffffffffffff161415156113d757600080fd5b600073ffffffffffffffffffffffffffffffffffffffff168173ffffffffffffffffffffffffffffffffffffffff1614151561144e57806000806101000a81548173ffffffffffffffffffffffffffffffffffffffff021916908373ffffffffffffffffffffffffffffffffffffffff1602179055505b50565b828054600181600116156101000203166002900490600052602060002090601f016020900481019282601f1061149257805160ff19168380011785556114c0565b828001600101855582156114c0579182015b828111156114bf5782518255916020019190600101906114a4565b5b5090506114cd9190611551565b5090565b828054600181600116156101000203166002900490600052602060002090601f016020900481019282601f1061151257805160ff1916838001178555611540565b82800160010185558215611540579182015b8281111561153f578251825591602001919060010190611524565b5b50905061154d9190611551565b5090565b61157391905b8082111561156f576000816000905550600101611557565b5090565b905600a165627a7a72305820afd01f3d52b743da4231d6d2e7a0a4c81953146a6a79778d46f68a5b8cc662d10029",
  "source": "pragma solidity ^0.4.20;\nimport './interfaces/Pausable.sol';\nimport './BinkabiTokenCreate.sol';\n\ncontract BinkabiEscrow is Pausable {\n    enum State {awaiting_payment, awaiting_delivery, delivering, completing, completed, refunding, refunded, cancel}\n\n    BinkabiTokenCreate binkabi;\n\n    constructor(BinkabiTokenCreate _binkabiTokenAddress) public {\n        binkabi = BinkabiTokenCreate(_binkabiTokenAddress);\n    }\n\n    struct Order {\n        address seller;\n        address buyer;\n        State state;\n        string description;\n        uint256 amount;\n        uint256 ordered_at;\n    }\n    uint256 public order_id = 0;\n\n    mapping (uint256 => Order) orders;\n\n    function createOrder(address _buyer, address _seller, uint256 _amount) public returns(uint256) {\n        require(_buyer != _seller);\n        require(_amount > 0);\n        uint256 _order_id = order_id + 1;\n\n        orders[_order_id] = Order({\n            seller: _seller,\n            buyer: _buyer,\n            state: State.awaiting_payment,\n            description: \"\",\n            amount: _amount,\n            ordered_at: now\n        });\n        order_id += 1;\n\n        return _order_id;\n    }\n\n    function cancelOrder(uint256 _order_id) public returns (bool) {\n        require(msg.sender == orders[_order_id].seller || msg.sender == orders[_order_id].buyer);\n        require(orders[_order_id].state == State.awaiting_payment);\n        orders[_order_id].state = State.cancel;\n\n        binkabi.punishMember(msg.sender, 5);\n    }\n\n    function getOrderState(uint256 _order_id) public returns(State) {        \n        return orders[_order_id].state;\n    }\n\n    function paymentOrder(uint256 _order_id) public returns (bool) {\n        require(msg.sender == orders[_order_id].buyer);\n        bool isPay = binkabi.escrow(msg.sender, orders[_order_id].amount, true);\n\n        if (isPay) {\n            orders[_order_id].state = State.awaiting_delivery;\n        }\n\n        return isPay;\n    }\n\n    function refundingOrder(uint256 _order_id, string reason) public  returns (bool){\n        require(msg.sender == orders[_order_id].buyer);\n        orders[_order_id].description = reason;\n        orders[_order_id].state = State.refunding;\n\n        binkabi.punishMember(orders[_order_id].seller, 5);\n        return true;    \n    }\n\n    function refundedOrder(uint256 _order_id) public returns (bool) {\n        require(msg.sender == orders[_order_id].seller);\n        orders[_order_id].state = State.refunded;\n\n        bool isPay = binkabi.escrow(orders[_order_id].buyer, orders[_order_id].amount, false);\n\n        return isPay;\n    }\n\n    function deliverOrder(uint256 _order_id) public {\n        require(msg.sender == orders[_order_id].seller);\n        orders[_order_id].state = State.delivering;        \n    }\n\n    function completedOrder(uint256 _order_id) public returns (bool) {\n        require(msg.sender == orders[_order_id].buyer);\n        orders[_order_id].state = State.completed;  \n\n        bool isPay = binkabi.escrow(orders[_order_id].seller, orders[_order_id].amount, false);\n\n        return isPay;\n        \n    }\n\n    \n\n\n\n\n\n\n}",
  "sourcePath": "/mnt/f/xenial/project/tomo/binkabi-api/contracts/contracts/BinkabiEscrow.sol",
  "compiler": {
    "name": "solc",
    "version": "0.4.23+commit.124ca40d.Emscripten.clang"
  },
  "schemaVersion": "2.0.0",
  "updatedAt": "2018-05-10T10:16:51.172Z"
}