{
  "contractName": "BinkabiTokenSale",
  "abi": [
    {
      "constant": true,
      "inputs": [],
      "name": "totalTokenSale",
      "outputs": [
        {
          "name": "",
          "type": "uint256"
        }
      ],
      "payable": false,
      "stateMutability": "view",
      "type": "function"
    },
    {
      "constant": false,
      "inputs": [],
      "name": "unpause",
      "outputs": [
        {
          "name": "",
          "type": "bool"
        }
      ],
      "payable": false,
      "stateMutability": "nonpayable",
      "type": "function"
    },
    {
      "constant": true,
      "inputs": [],
      "name": "tokenExchangeRate",
      "outputs": [
        {
          "name": "",
          "type": "uint256"
        }
      ],
      "payable": false,
      "stateMutability": "view",
      "type": "function"
    },
    {
      "constant": true,
      "inputs": [],
      "name": "paused",
      "outputs": [
        {
          "name": "",
          "type": "bool"
        }
      ],
      "payable": false,
      "stateMutability": "view",
      "type": "function"
    },
    {
      "constant": false,
      "inputs": [],
      "name": "pause",
      "outputs": [
        {
          "name": "",
          "type": "bool"
        }
      ],
      "payable": false,
      "stateMutability": "nonpayable",
      "type": "function"
    },
    {
      "constant": true,
      "inputs": [],
      "name": "owner",
      "outputs": [
        {
          "name": "",
          "type": "address"
        }
      ],
      "payable": false,
      "stateMutability": "view",
      "type": "function"
    },
    {
      "constant": true,
      "inputs": [],
      "name": "totalTokenSold",
      "outputs": [
        {
          "name": "",
          "type": "uint256"
        }
      ],
      "payable": false,
      "stateMutability": "view",
      "type": "function"
    },
    {
      "constant": true,
      "inputs": [],
      "name": "binkabiDepositAddress",
      "outputs": [
        {
          "name": "",
          "type": "address"
        }
      ],
      "payable": false,
      "stateMutability": "view",
      "type": "function"
    },
    {
      "constant": false,
      "inputs": [
        {
          "name": "newOwner",
          "type": "address"
        }
      ],
      "name": "transferOwnership",
      "outputs": [],
      "payable": false,
      "stateMutability": "nonpayable",
      "type": "function"
    },
    {
      "inputs": [
        {
          "name": "_binkabiTokenAddress",
          "type": "address"
        },
        {
          "name": "_binkabiDepositAddress",
          "type": "address"
        }
      ],
      "payable": false,
      "stateMutability": "nonpayable",
      "type": "constructor"
    },
    {
      "payable": true,
      "stateMutability": "payable",
      "type": "fallback"
    },
    {
      "anonymous": false,
      "inputs": [
        {
          "indexed": false,
          "name": "from",
          "type": "address"
        },
        {
          "indexed": false,
          "name": "to",
          "type": "address"
        },
        {
          "indexed": false,
          "name": "val",
          "type": "uint256"
        }
      ],
      "name": "MintBinkabi",
      "type": "event"
    },
    {
      "anonymous": false,
      "inputs": [
        {
          "indexed": false,
          "name": "to",
          "type": "address"
        },
        {
          "indexed": false,
          "name": "val",
          "type": "uint256"
        }
      ],
      "name": "RefundBinkabi",
      "type": "event"
    },
    {
      "anonymous": false,
      "inputs": [
        {
          "indexed": false,
          "name": "add",
          "type": "address"
        },
        {
          "indexed": false,
          "name": "val",
          "type": "uint256"
        }
      ],
      "name": "LogBinkabi",
      "type": "event"
    },
    {
      "anonymous": false,
      "inputs": [],
      "name": "Pause",
      "type": "event"
    },
    {
      "anonymous": false,
      "inputs": [],
      "name": "Unpause",
      "type": "event"
    }
  ],
  "bytecode": "0x608060405260008060146101000a81548160ff021916908315150217905550600060025534801561002f57600080fd5b50604051604080610b0a8339810180604052810190808051906020019092919080519060200190929190505050336000806101000a81548173ffffffffffffffffffffffffffffffffffffffff021916908373ffffffffffffffffffffffffffffffffffffffff16021790555081600360006101000a81548173ffffffffffffffffffffffffffffffffffffffff021916908373ffffffffffffffffffffffffffffffffffffffff16021790555080600160006101000a81548173ffffffffffffffffffffffffffffffffffffffff021916908373ffffffffffffffffffffffffffffffffffffffff16021790555050506109db8061012f6000396000f300608060405260043610610099576000357c0100000000000000000000000000000000000000000000000000000000900463ffffffff16806324645c5a146100a55780633f4ba83a146100d05780634172d080146100ff5780635c975abb1461012a5780638456cb59146101595780638da5cb5b14610188578063b5f7f636146101df578063c0b029af1461020a578063f2fde38b14610261575b6100a333346102a4565b005b3480156100b157600080fd5b506100ba61049b565b6040518082815260200191505060405180910390f35b3480156100dc57600080fd5b506100e56104aa565b604051808215151515815260200191505060405180910390f35b34801561010b57600080fd5b5061011461056f565b6040518082815260200191505060405180910390f35b34801561013657600080fd5b5061013f610575565b604051808215151515815260200191505060405180910390f35b34801561016557600080fd5b5061016e610588565b604051808215151515815260200191505060405180910390f35b34801561019457600080fd5b5061019d61064f565b604051808273ffffffffffffffffffffffffffffffffffffffff1673ffffffffffffffffffffffffffffffffffffffff16815260200191505060405180910390f35b3480156101eb57600080fd5b506101f4610674565b6040518082815260200191505060405180910390f35b34801561021657600080fd5b5061021f61067a565b604051808273ffffffffffffffffffffffffffffffffffffffff1673ffffffffffffffffffffffffffffffffffffffff16815260200191505060405180910390f35b34801561026d57600080fd5b506102a2600480360381019080803573ffffffffffffffffffffffffffffffffffffffff1690602001909291905050506106a0565b005b600080600080600060149054906101000a900460ff161515156102c657600080fd5b6102db6103e88661077590919063ffffffff16565b93506102fd6002546a295be96e640669720000006107b090919063ffffffff16565b9250600091506000905060008311151561031657600080fd5b8284111561034f578290506103486103e861033a85876107b090919063ffffffff16565b6107c990919063ffffffff16565b9150610353565b8390505b61035d86826107e4565b5080600260008282540192505081905550600082111561042a577f2be382812da806a790ce9d00eca8e8a0b5774085d46ee138c789a1aec6d1bc213383604051808373ffffffffffffffffffffffffffffffffffffffff1673ffffffffffffffffffffffffffffffffffffffff1681526020018281526020019250505060405180910390a13373ffffffffffffffffffffffffffffffffffffffff166108fc839081150290604051600060405180830381858888f19350505050158015610428573d6000803e3d6000fd5b505b600160009054906101000a900473ffffffffffffffffffffffffffffffffffffffff1673ffffffffffffffffffffffffffffffffffffffff166108fc349081150290604051600060405180830381858888f19350505050158015610492573d6000803e3d6000fd5b50505050505050565b6a295be96e6406697200000081565b60008060009054906101000a900473ffffffffffffffffffffffffffffffffffffffff1673ffffffffffffffffffffffffffffffffffffffff163373ffffffffffffffffffffffffffffffffffffffff1614151561050757600080fd5b600060149054906101000a900460ff16151561052257600080fd5b60008060146101000a81548160ff0219169083151502179055507f7805862f689e2f13df9f062ff482ad3ad112aca9e0847911ed832e158c525b3360405160405180910390a16001905090565b6103e881565b600060149054906101000a900460ff1681565b60008060009054906101000a900473ffffffffffffffffffffffffffffffffffffffff1673ffffffffffffffffffffffffffffffffffffffff163373ffffffffffffffffffffffffffffffffffffffff161415156105e557600080fd5b600060149054906101000a900460ff1615151561060157600080fd5b6001600060146101000a81548160ff0219169083151502179055507f6985a02210a168e66602d3235cb6db0e70f92b3ba4d376a33c0f3d9434bff62560405160405180910390a16001905090565b6000809054906101000a900473ffffffffffffffffffffffffffffffffffffffff1681565b60025481565b600160009054906101000a900473ffffffffffffffffffffffffffffffffffffffff1681565b6000809054906101000a900473ffffffffffffffffffffffffffffffffffffffff1673ffffffffffffffffffffffffffffffffffffffff163373ffffffffffffffffffffffffffffffffffffffff161415156106fb57600080fd5b600073ffffffffffffffffffffffffffffffffffffffff168173ffffffffffffffffffffffffffffffffffffffff1614151561077257806000806101000a81548173ffffffffffffffffffffffffffffffffffffffff021916908373ffffffffffffffffffffffffffffffffffffffff1602179055505b50565b600080600084141561078a57600091506107a9565b828402905082848281151561079b57fe5b041415156107a557fe5b8091505b5092915050565b60008282111515156107be57fe5b818303905092915050565b60008082848115156107d757fe5b0490508091505092915050565b60007fd5f1e8515fe0f39ae42b9f5698abc2b2d58d8813c5877723ff5c71ca2ae87c5d600160009054906101000a900473ffffffffffffffffffffffffffffffffffffffff168484604051808473ffffffffffffffffffffffffffffffffffffffff1673ffffffffffffffffffffffffffffffffffffffff1681526020018373ffffffffffffffffffffffffffffffffffffffff1673ffffffffffffffffffffffffffffffffffffffff168152602001828152602001935050505060405180910390a1600360009054906101000a900473ffffffffffffffffffffffffffffffffffffffff1673ffffffffffffffffffffffffffffffffffffffff166340c10f1984846040518363ffffffff167c0100000000000000000000000000000000000000000000000000000000028152600401808373ffffffffffffffffffffffffffffffffffffffff1673ffffffffffffffffffffffffffffffffffffffff16815260200182815260200192505050602060405180830381600087803b15801561096c57600080fd5b505af1158015610980573d6000803e3d6000fd5b505050506040513d602081101561099657600080fd5b81019080805190602001909291905050509050929150505600a165627a7a72305820eb01ffc6c965336c019dc940a0e7d99885dcff93ba707f45b314ac33a2645a9e0029",
  "source": "pragma solidity ^0.4.20;\nimport './interfaces/Pausable.sol';\nimport './libs/SafeMath.sol';\nimport './libs/SafeMath.sol';\nimport './BinkabiToken.sol';\n\n\ncontract BinkabiTokenSale is Pausable {\n    using SafeMath for uint256;\n    address public binkabiDepositAddress;\n    uint256 public constant tokenExchangeRate = 1000;\n    uint256 public constant totalTokenSale = 50000000 * 10 ** 18;\n    uint256 public totalTokenSold = 0;\n\n\n//    uint256 public constant preSaleTime = 1527465600; // 2018-05-28 00:00:00\n//    uint256 public constant preSaleEnd = 1527552000; // 2018-05-29 00:00:00\n//    uint256 public constant preSaleBonus = 10; // Bonus 10% pre sale\n//    uint256 public constant preSaleMinContribution = 50 ether;\n//    uint256 public constant preSaleMaxContribution = 100 ether;\n//\n//\n//    uint256 public constant publicSaleTime = 1527638400; // 2018-05-30 00:00:00\n//    uint256 public constant publicSaleEnd = 1590796800; // 2020-05-30 00:00:00\n//    uint256 public constant publicSaleminContribution = 0.5 ether;\n//    uint256 public constant publicSalemaxContribution = 10 ether;\n\n    BinkabiToken binkabi;\n\n    event MintBinkabi(address from, address to, uint256 val);\n    event RefundBinkabi(address to, uint256 val);\n    event LogBinkabi(address add, uint256 val);\n\n    constructor(BinkabiToken _binkabiTokenAddress, address _binkabiDepositAddress) public {\n        binkabi = BinkabiToken(_binkabiTokenAddress);\n        binkabiDepositAddress = _binkabiDepositAddress;\n    }\n\n    function buy(address to, uint256 val) internal returns (bool success) {\n        emit MintBinkabi(binkabiDepositAddress, to, val);\n        return binkabi.mint(to, val);\n    }\n\n    function () public payable {\n        createTokens(msg.sender, msg.value);\n    }\n\n    function createTokens(address _beneficiary, uint256 _value) internal whenNotPaused {\n//         require((now >= preSaleTime && now <= preSaleEnd) || (now >= publicSaleTime && now <= publicSaleEnd));\n\n        uint256 tokens = _value.mul(tokenExchangeRate);\n//         if (now >= preSaleTime && now <= preSaleEnd) {\n//             require(_value >= preSaleMinContribution && _value <= preSaleMaxContribution);\n//             tokens = tokens.mul((100 + preSaleBonus) / 100);\n//         }\n//\n//         else {\n//             require(_value >= publicSaleminContribution && _value <= publicSalemaxContribution);\n//         }\n        uint256 tokenAvailable = totalTokenSale.sub(totalTokenSold);\n        uint256 etherToRefund = 0;\n        uint256 currentTokenSell = 0;\n\n        require(tokenAvailable > 0);\n\n        if (tokens > tokenAvailable){\n            currentTokenSell  = tokenAvailable;\n            etherToRefund = (tokens.sub(tokenAvailable)).div(tokenExchangeRate);\n        } else {\n            currentTokenSell = tokens;\n        }\n\n        buy(_beneficiary, currentTokenSell);\n        totalTokenSold += currentTokenSell;\n\n        if (etherToRefund > 0){\n            emit RefundBinkabi(msg.sender, etherToRefund);\n            msg.sender.transfer(etherToRefund);\n        }\n\n        binkabiDepositAddress.transfer(msg.value);\n        return;\n    }\n}\n\n\n\n",
  "sourcePath": "/home/vagrant/projects/tomo/binkabi-ico/server/contracts/contracts/BinkabiTokenSale.sol",
  "compiler": {
    "name": "solc",
    "version": "0.4.24+commit.e67f0147.Emscripten.clang"
  },
  "schemaVersion": "2.0.0",
  "updatedAt": "2018-05-31T10:34:46.855Z"
}