{
  "contractName": "BinkabiTokenSale",
  "abi": [
    {
      "constant": true,
      "inputs": [],
      "name": "publicSaleTime",
      "outputs": [
        {
          "name": "",
          "type": "uint256"
        }
      ],
      "payable": false,
      "stateMutability": "view",
      "type": "function"
    },
    {
      "constant": true,
      "inputs": [],
      "name": "totalTokenSale",
      "outputs": [
        {
          "name": "",
          "type": "uint256"
        }
      ],
      "payable": false,
      "stateMutability": "view",
      "type": "function"
    },
    {
      "constant": true,
      "inputs": [],
      "name": "publicSalemaxContribution",
      "outputs": [
        {
          "name": "",
          "type": "uint256"
        }
      ],
      "payable": false,
      "stateMutability": "view",
      "type": "function"
    },
    {
      "constant": true,
      "inputs": [],
      "name": "preSaleTime",
      "outputs": [
        {
          "name": "",
          "type": "uint256"
        }
      ],
      "payable": false,
      "stateMutability": "view",
      "type": "function"
    },
    {
      "constant": true,
      "inputs": [],
      "name": "preSaleMaxContribution",
      "outputs": [
        {
          "name": "",
          "type": "uint256"
        }
      ],
      "payable": false,
      "stateMutability": "view",
      "type": "function"
    },
    {
      "constant": false,
      "inputs": [],
      "name": "unpause",
      "outputs": [
        {
          "name": "",
          "type": "bool"
        }
      ],
      "payable": false,
      "stateMutability": "nonpayable",
      "type": "function"
    },
    {
      "constant": true,
      "inputs": [],
      "name": "tokenExchangeRate",
      "outputs": [
        {
          "name": "",
          "type": "uint256"
        }
      ],
      "payable": false,
      "stateMutability": "view",
      "type": "function"
    },
    {
      "constant": true,
      "inputs": [],
      "name": "paused",
      "outputs": [
        {
          "name": "",
          "type": "bool"
        }
      ],
      "payable": false,
      "stateMutability": "view",
      "type": "function"
    },
    {
      "constant": true,
      "inputs": [],
      "name": "preSaleEnd",
      "outputs": [
        {
          "name": "",
          "type": "uint256"
        }
      ],
      "payable": false,
      "stateMutability": "view",
      "type": "function"
    },
    {
      "constant": true,
      "inputs": [],
      "name": "publicSaleminContribution",
      "outputs": [
        {
          "name": "",
          "type": "uint256"
        }
      ],
      "payable": false,
      "stateMutability": "view",
      "type": "function"
    },
    {
      "constant": false,
      "inputs": [],
      "name": "pause",
      "outputs": [
        {
          "name": "",
          "type": "bool"
        }
      ],
      "payable": false,
      "stateMutability": "nonpayable",
      "type": "function"
    },
    {
      "constant": true,
      "inputs": [],
      "name": "owner",
      "outputs": [
        {
          "name": "",
          "type": "address"
        }
      ],
      "payable": false,
      "stateMutability": "view",
      "type": "function"
    },
    {
      "constant": true,
      "inputs": [],
      "name": "preSaleMinContribution",
      "outputs": [
        {
          "name": "",
          "type": "uint256"
        }
      ],
      "payable": false,
      "stateMutability": "view",
      "type": "function"
    },
    {
      "constant": true,
      "inputs": [],
      "name": "preSaleBonus",
      "outputs": [
        {
          "name": "",
          "type": "uint256"
        }
      ],
      "payable": false,
      "stateMutability": "view",
      "type": "function"
    },
    {
      "constant": true,
      "inputs": [],
      "name": "totalTokenSold",
      "outputs": [
        {
          "name": "",
          "type": "uint256"
        }
      ],
      "payable": false,
      "stateMutability": "view",
      "type": "function"
    },
    {
      "constant": true,
      "inputs": [],
      "name": "binkabiDepositAddress",
      "outputs": [
        {
          "name": "",
          "type": "address"
        }
      ],
      "payable": false,
      "stateMutability": "view",
      "type": "function"
    },
    {
      "constant": true,
      "inputs": [],
      "name": "publicSaleEnd",
      "outputs": [
        {
          "name": "",
          "type": "uint256"
        }
      ],
      "payable": false,
      "stateMutability": "view",
      "type": "function"
    },
    {
      "constant": false,
      "inputs": [
        {
          "name": "newOwner",
          "type": "address"
        }
      ],
      "name": "transferOwnership",
      "outputs": [],
      "payable": false,
      "stateMutability": "nonpayable",
      "type": "function"
    },
    {
      "inputs": [
        {
          "name": "_binkabiTokenAddress",
          "type": "address"
        },
        {
          "name": "_binkabiDepositAddress",
          "type": "address"
        }
      ],
      "payable": false,
      "stateMutability": "nonpayable",
      "type": "constructor"
    },
    {
      "payable": true,
      "stateMutability": "payable",
      "type": "fallback"
    },
    {
      "anonymous": false,
      "inputs": [
        {
          "indexed": false,
          "name": "from",
          "type": "address"
        },
        {
          "indexed": false,
          "name": "to",
          "type": "address"
        },
        {
          "indexed": false,
          "name": "val",
          "type": "uint256"
        }
      ],
      "name": "MintBinkabi",
      "type": "event"
    },
    {
      "anonymous": false,
      "inputs": [
        {
          "indexed": false,
          "name": "to",
          "type": "address"
        },
        {
          "indexed": false,
          "name": "val",
          "type": "uint256"
        }
      ],
      "name": "RefundBinkabi",
      "type": "event"
    },
    {
      "anonymous": false,
      "inputs": [
        {
          "indexed": false,
          "name": "add",
          "type": "address"
        },
        {
          "indexed": false,
          "name": "val",
          "type": "uint256"
        }
      ],
      "name": "LogBinkabi",
      "type": "event"
    },
    {
      "anonymous": false,
      "inputs": [],
      "name": "Pause",
      "type": "event"
    },
    {
      "anonymous": false,
      "inputs": [],
      "name": "Unpause",
      "type": "event"
    }
  ],
  "bytecode": "0x608060405260008060146101000a81548160ff021916908315150217905550600060025534801561002f57600080fd5b50604051604080610e298339810180604052810190808051906020019092919080519060200190929190505050336000806101000a81548173ffffffffffffffffffffffffffffffffffffffff021916908373ffffffffffffffffffffffffffffffffffffffff16021790555081600360006101000a81548173ffffffffffffffffffffffffffffffffffffffff021916908373ffffffffffffffffffffffffffffffffffffffff16021790555080600160006101000a81548173ffffffffffffffffffffffffffffffffffffffff021916908373ffffffffffffffffffffffffffffffffffffffff1602179055505050610cfa8061012f6000396000f3006080604052600436106100fc576000357c0100000000000000000000000000000000000000000000000000000000900463ffffffff1680632344be0a1461010857806324645c5a1461013357806324b6c1811461015e57806325a3014514610189578063336e118e146101b45780633f4ba83a146101df5780634172d0801461020e5780635c975abb146102395780636bc64e0f1461026857806382bd23a2146102935780638456cb59146102be5780638da5cb5b146102ed578063916f361314610344578063ab51b06f1461036f578063b5f7f6361461039a578063c0b029af146103c5578063ec9b5cb21461041c578063f2fde38b14610447575b610106333461048a565b005b34801561011457600080fd5b5061011d610763565b6040518082815260200191505060405180910390f35b34801561013f57600080fd5b5061014861076b565b6040518082815260200191505060405180910390f35b34801561016a57600080fd5b5061017361077a565b6040518082815260200191505060405180910390f35b34801561019557600080fd5b5061019e610786565b6040518082815260200191505060405180910390f35b3480156101c057600080fd5b506101c961078e565b6040518082815260200191505060405180910390f35b3480156101eb57600080fd5b506101f461079b565b604051808215151515815260200191505060405180910390f35b34801561021a57600080fd5b50610223610860565b6040518082815260200191505060405180910390f35b34801561024557600080fd5b5061024e610866565b604051808215151515815260200191505060405180910390f35b34801561027457600080fd5b5061027d610879565b6040518082815260200191505060405180910390f35b34801561029f57600080fd5b506102a8610881565b6040518082815260200191505060405180910390f35b3480156102ca57600080fd5b506102d361088d565b604051808215151515815260200191505060405180910390f35b3480156102f957600080fd5b50610302610954565b604051808273ffffffffffffffffffffffffffffffffffffffff1673ffffffffffffffffffffffffffffffffffffffff16815260200191505060405180910390f35b34801561035057600080fd5b50610359610979565b6040518082815260200191505060405180910390f35b34801561037b57600080fd5b50610384610986565b6040518082815260200191505060405180910390f35b3480156103a657600080fd5b506103af61098b565b6040518082815260200191505060405180910390f35b3480156103d157600080fd5b506103da610991565b604051808273ffffffffffffffffffffffffffffffffffffffff1673ffffffffffffffffffffffffffffffffffffffff16815260200191505060405180910390f35b34801561042857600080fd5b506104316109b7565b6040518082815260200191505060405180910390f35b34801561045357600080fd5b50610488600480360381019080803573ffffffffffffffffffffffffffffffffffffffff1690602001909291905050506109bf565b005b600080600080600060149054906101000a900460ff161515156104ac57600080fd5b635b10c4c042101580156104c45750635b14b9404211155b806104e35750635b160ac042101580156104e25750635b1ca2404211155b5b15156104ee57600080fd5b6105036103e886610a9490919063ffffffff16565b9350635b10c4c0421015801561051d5750635b14b9404211155b15610579576802b5e3af16b18800008510158015610544575068056bc75e2d631000008511155b151561054f57600080fd5b6105726064600a60640181151561056257fe5b0485610a9490919063ffffffff16565b93506105a5565b6706f05b59d3b2000085101580156105995750678ac7230489e800008511155b15156105a457600080fd5b5b6105c56002546a295be96e64066972000000610acf90919063ffffffff16565b925060009150600090506000831115156105de57600080fd5b82841115610617578290506106106103e86106028587610acf90919063ffffffff16565b610ae890919063ffffffff16565b915061061b565b8390505b6106258682610b03565b508060026000828254019250508190555060008211156106f2577f2be382812da806a790ce9d00eca8e8a0b5774085d46ee138c789a1aec6d1bc213383604051808373ffffffffffffffffffffffffffffffffffffffff1673ffffffffffffffffffffffffffffffffffffffff1681526020018281526020019250505060405180910390a13373ffffffffffffffffffffffffffffffffffffffff166108fc839081150290604051600060405180830381858888f193505050501580156106f0573d6000803e3d6000fd5b505b600160009054906101000a900473ffffffffffffffffffffffffffffffffffffffff1673ffffffffffffffffffffffffffffffffffffffff166108fc349081150290604051600060405180830381858888f1935050505015801561075a573d6000803e3d6000fd5b50505050505050565b635b160ac081565b6a295be96e6406697200000081565b678ac7230489e8000081565b635b10c4c081565b68056bc75e2d6310000081565b60008060009054906101000a900473ffffffffffffffffffffffffffffffffffffffff1673ffffffffffffffffffffffffffffffffffffffff163373ffffffffffffffffffffffffffffffffffffffff161415156107f857600080fd5b600060149054906101000a900460ff16151561081357600080fd5b60008060146101000a81548160ff0219169083151502179055507f7805862f689e2f13df9f062ff482ad3ad112aca9e0847911ed832e158c525b3360405160405180910390a16001905090565b6103e881565b600060149054906101000a900460ff1681565b635b14b94081565b6706f05b59d3b2000081565b60008060009054906101000a900473ffffffffffffffffffffffffffffffffffffffff1673ffffffffffffffffffffffffffffffffffffffff163373ffffffffffffffffffffffffffffffffffffffff161415156108ea57600080fd5b600060149054906101000a900460ff1615151561090657600080fd5b6001600060146101000a81548160ff0219169083151502179055507f6985a02210a168e66602d3235cb6db0e70f92b3ba4d376a33c0f3d9434bff62560405160405180910390a16001905090565b6000809054906101000a900473ffffffffffffffffffffffffffffffffffffffff1681565b6802b5e3af16b188000081565b600a81565b60025481565b600160009054906101000a900473ffffffffffffffffffffffffffffffffffffffff1681565b635b1ca24081565b6000809054906101000a900473ffffffffffffffffffffffffffffffffffffffff1673ffffffffffffffffffffffffffffffffffffffff163373ffffffffffffffffffffffffffffffffffffffff16141515610a1a57600080fd5b600073ffffffffffffffffffffffffffffffffffffffff168173ffffffffffffffffffffffffffffffffffffffff16141515610a9157806000806101000a81548173ffffffffffffffffffffffffffffffffffffffff021916908373ffffffffffffffffffffffffffffffffffffffff1602179055505b50565b6000806000841415610aa95760009150610ac8565b8284029050828482811515610aba57fe5b04141515610ac457fe5b8091505b5092915050565b6000828211151515610add57fe5b818303905092915050565b6000808284811515610af657fe5b0490508091505092915050565b60007fd5f1e8515fe0f39ae42b9f5698abc2b2d58d8813c5877723ff5c71ca2ae87c5d600160009054906101000a900473ffffffffffffffffffffffffffffffffffffffff168484604051808473ffffffffffffffffffffffffffffffffffffffff1673ffffffffffffffffffffffffffffffffffffffff1681526020018373ffffffffffffffffffffffffffffffffffffffff1673ffffffffffffffffffffffffffffffffffffffff168152602001828152602001935050505060405180910390a1600360009054906101000a900473ffffffffffffffffffffffffffffffffffffffff1673ffffffffffffffffffffffffffffffffffffffff166340c10f1984846040518363ffffffff167c0100000000000000000000000000000000000000000000000000000000028152600401808373ffffffffffffffffffffffffffffffffffffffff1673ffffffffffffffffffffffffffffffffffffffff16815260200182815260200192505050602060405180830381600087803b158015610c8b57600080fd5b505af1158015610c9f573d6000803e3d6000fd5b505050506040513d6020811015610cb557600080fd5b81019080805190602001909291905050509050929150505600a165627a7a72305820ff760cc600e67db290119c4a4e84d4c00232539fc35b6ff4839c5df52124952a0029",
  "source": "pragma solidity ^0.4.20;\nimport './interfaces/Pausable.sol';\nimport './libs/SafeMath.sol';\nimport './libs/SafeMath.sol';\nimport './BinkabiToken.sol';\n\n\ncontract BinkabiTokenSale is Pausable {\n    using SafeMath for uint256;\n    address public binkabiDepositAddress;\n    uint256 public constant tokenExchangeRate = 1000;\n    uint256 public constant totalTokenSale = 50000000 * 10 ** 18;\n    uint256 public totalTokenSold = 0;\n\n\n    uint256 public constant preSaleTime = 1527825600; // 2018-06-01 04:00:00\n    uint256 public constant preSaleEnd = 1528084800; // 2018-06-04 04:00:00\n    uint256 public constant preSaleBonus = 10; // Bonus 10% pre sale\n    uint256 public constant preSaleMinContribution = 50 ether;\n    uint256 public constant preSaleMaxContribution = 100 ether;\n\n\n    uint256 public constant publicSaleTime = 1528171200; // 2018-06-05 04:00:00\n    uint256 public constant publicSaleEnd = 1528603200; // 2018-06-10 04:00:00\n    uint256 public constant publicSaleminContribution = 0.5 ether;\n    uint256 public constant publicSalemaxContribution = 10 ether;\n\n    BinkabiToken binkabi;\n\n    event MintBinkabi(address from, address to, uint256 val);\n    event RefundBinkabi(address to, uint256 val);\n    event LogBinkabi(address add, uint256 val);\n\n    constructor(BinkabiToken _binkabiTokenAddress, address _binkabiDepositAddress) public {\n        binkabi = BinkabiToken(_binkabiTokenAddress);\n        binkabiDepositAddress = _binkabiDepositAddress;\n    }\n\n    function buy(address to, uint256 val) internal returns (bool success) {\n        emit MintBinkabi(binkabiDepositAddress, to, val);\n        return binkabi.mint(to, val);\n    }\n\n    function () public payable {\n        createTokens(msg.sender, msg.value);\n    }\n\n    function createTokens(address _beneficiary, uint256 _value) internal whenNotPaused {\n        require((now >= preSaleTime && now <= preSaleEnd) || (now >= publicSaleTime && now <= publicSaleEnd));\n        \n        uint256 tokens = _value.mul(tokenExchangeRate);\n        if (now >= preSaleTime && now <= preSaleEnd) {\n            require(_value >= preSaleMinContribution && _value <= preSaleMaxContribution);\n            tokens = tokens.mul((100 + preSaleBonus) / 100);\n        }\n        \n        else {\n            require(_value >= publicSaleminContribution && _value <= publicSalemaxContribution);\n        }\n        uint256 tokenAvailable = totalTokenSale.sub(totalTokenSold);\n        uint256 etherToRefund = 0;\n        uint256 currentTokenSell = 0;\n\n        require(tokenAvailable > 0);\n\n        if (tokens > tokenAvailable){\n            currentTokenSell  = tokenAvailable;\n            etherToRefund = (tokens.sub(tokenAvailable)).div(tokenExchangeRate);\n        } else {\n            currentTokenSell = tokens;\n        }\n\n        buy(_beneficiary, currentTokenSell);\n        totalTokenSold += currentTokenSell;\n\n        if (etherToRefund > 0){\n            emit RefundBinkabi(msg.sender, etherToRefund);\n            msg.sender.transfer(etherToRefund);\n        }\n\n        binkabiDepositAddress.transfer(msg.value);\n        return;\n    }\n}\n\n\n\n",
  "sourcePath": "/home/vagrant/projects/tomo/binkabi-ico/server/contracts/contracts/BinkabiTokenSale.sol",
  "compiler": {
    "name": "solc",
    "version": "0.4.24+commit.e67f0147.Emscripten.clang"
  },
  "schemaVersion": "2.0.0",
  "updatedAt": "2018-05-30T03:19:03.050Z"
}