{
  "contractName": "BinkabiTokenSale",
  "abi": [
    {
      "constant": true,
      "inputs": [],
      "name": "totalTokenSale",
      "outputs": [
        {
          "name": "",
          "type": "uint256"
        }
      ],
      "payable": false,
      "stateMutability": "view",
      "type": "function"
    },
    {
      "constant": false,
      "inputs": [],
      "name": "unpause",
      "outputs": [
        {
          "name": "",
          "type": "bool"
        }
      ],
      "payable": false,
      "stateMutability": "nonpayable",
      "type": "function"
    },
    {
      "constant": true,
      "inputs": [],
      "name": "tokenExchangeRate",
      "outputs": [
        {
          "name": "",
          "type": "uint256"
        }
      ],
      "payable": false,
      "stateMutability": "view",
      "type": "function"
    },
    {
      "constant": true,
      "inputs": [],
      "name": "paused",
      "outputs": [
        {
          "name": "",
          "type": "bool"
        }
      ],
      "payable": false,
      "stateMutability": "view",
      "type": "function"
    },
    {
      "constant": false,
      "inputs": [],
      "name": "pause",
      "outputs": [
        {
          "name": "",
          "type": "bool"
        }
      ],
      "payable": false,
      "stateMutability": "nonpayable",
      "type": "function"
    },
    {
      "constant": true,
      "inputs": [],
      "name": "owner",
      "outputs": [
        {
          "name": "",
          "type": "address"
        }
      ],
      "payable": false,
      "stateMutability": "view",
      "type": "function"
    },
    {
      "constant": true,
      "inputs": [],
      "name": "totalTokenSold",
      "outputs": [
        {
          "name": "",
          "type": "uint256"
        }
      ],
      "payable": false,
      "stateMutability": "view",
      "type": "function"
    },
    {
      "constant": true,
      "inputs": [],
      "name": "binkabiDepositAddress",
      "outputs": [
        {
          "name": "",
          "type": "address"
        }
      ],
      "payable": false,
      "stateMutability": "view",
      "type": "function"
    },
    {
      "constant": false,
      "inputs": [
        {
          "name": "newOwner",
          "type": "address"
        }
      ],
      "name": "transferOwnership",
      "outputs": [],
      "payable": false,
      "stateMutability": "nonpayable",
      "type": "function"
    },
    {
      "inputs": [
        {
          "name": "_binkabiTokenAddress",
          "type": "address"
        },
        {
          "name": "_binkabiDepositAddress",
          "type": "address"
        }
      ],
      "payable": false,
      "stateMutability": "nonpayable",
      "type": "constructor"
    },
    {
      "payable": true,
      "stateMutability": "payable",
      "type": "fallback"
    },
    {
      "anonymous": false,
      "inputs": [
        {
          "indexed": false,
          "name": "from",
          "type": "address"
        },
        {
          "indexed": false,
          "name": "to",
          "type": "address"
        },
        {
          "indexed": false,
          "name": "val",
          "type": "uint256"
        }
      ],
      "name": "MintBinkabi",
      "type": "event"
    },
    {
      "anonymous": false,
      "inputs": [
        {
          "indexed": false,
          "name": "to",
          "type": "address"
        },
        {
          "indexed": false,
          "name": "val",
          "type": "uint256"
        }
      ],
      "name": "RefundBinkabi",
      "type": "event"
    },
    {
      "anonymous": false,
      "inputs": [
        {
          "indexed": false,
          "name": "add",
          "type": "address"
        },
        {
          "indexed": false,
          "name": "val",
          "type": "uint256"
        }
      ],
      "name": "LogBinkabi",
      "type": "event"
    },
    {
      "anonymous": false,
      "inputs": [],
      "name": "Pause",
      "type": "event"
    },
    {
      "anonymous": false,
      "inputs": [],
      "name": "Unpause",
      "type": "event"
    }
  ],
  "bytecode": "0x608060405260008060146101000a81548160ff021916908315150217905550600060025534801561002f57600080fd5b50604051604080610ad18339810180604052810190808051906020019092919080519060200190929190505050336000806101000a81548173ffffffffffffffffffffffffffffffffffffffff021916908373ffffffffffffffffffffffffffffffffffffffff16021790555081600360006101000a81548173ffffffffffffffffffffffffffffffffffffffff021916908373ffffffffffffffffffffffffffffffffffffffff16021790555080600160006101000a81548173ffffffffffffffffffffffffffffffffffffffff021916908373ffffffffffffffffffffffffffffffffffffffff16021790555050506109a28061012f6000396000f300608060405260043610610099576000357c0100000000000000000000000000000000000000000000000000000000900463ffffffff16806324645c5a146100a55780633f4ba83a146100d05780634172d080146100ff5780635c975abb1461012a5780638456cb59146101595780638da5cb5b14610188578063b5f7f636146101df578063c0b029af1461020a578063f2fde38b14610261575b6100a333346102a4565b005b3480156100b157600080fd5b506100ba61047b565b6040518082815260200191505060405180910390f35b3480156100dc57600080fd5b506100e561048a565b604051808215151515815260200191505060405180910390f35b34801561010b57600080fd5b5061011461054f565b6040518082815260200191505060405180910390f35b34801561013657600080fd5b5061013f610555565b604051808215151515815260200191505060405180910390f35b34801561016557600080fd5b5061016e610568565b604051808215151515815260200191505060405180910390f35b34801561019457600080fd5b5061019d61062f565b604051808273ffffffffffffffffffffffffffffffffffffffff1673ffffffffffffffffffffffffffffffffffffffff16815260200191505060405180910390f35b3480156101eb57600080fd5b506101f4610654565b6040518082815260200191505060405180910390f35b34801561021657600080fd5b5061021f61065a565b604051808273ffffffffffffffffffffffffffffffffffffffff1673ffffffffffffffffffffffffffffffffffffffff16815260200191505060405180910390f35b34801561026d57600080fd5b506102a2600480360381019080803573ffffffffffffffffffffffffffffffffffffffff169060200190929190505050610680565b005b600080600080600060149054906101000a900460ff161515156102c657600080fd5b6102db6103e88661075590919063ffffffff16565b93506002546a295be96e64066972000000039250600091506000905060008311151561030657600080fd5b8284111561032f578290506103286103e884860361079090919063ffffffff16565b9150610333565b8390505b61033d86826107ab565b5080600260008282540192505081905550600082111561040a577f2be382812da806a790ce9d00eca8e8a0b5774085d46ee138c789a1aec6d1bc213383604051808373ffffffffffffffffffffffffffffffffffffffff1673ffffffffffffffffffffffffffffffffffffffff1681526020018281526020019250505060405180910390a13373ffffffffffffffffffffffffffffffffffffffff166108fc839081150290604051600060405180830381858888f19350505050158015610408573d6000803e3d6000fd5b505b600160009054906101000a900473ffffffffffffffffffffffffffffffffffffffff1673ffffffffffffffffffffffffffffffffffffffff166108fc349081150290604051600060405180830381858888f19350505050158015610472573d6000803e3d6000fd5b50505050505050565b6a295be96e6406697200000081565b60008060009054906101000a900473ffffffffffffffffffffffffffffffffffffffff1673ffffffffffffffffffffffffffffffffffffffff163373ffffffffffffffffffffffffffffffffffffffff161415156104e757600080fd5b600060149054906101000a900460ff16151561050257600080fd5b60008060146101000a81548160ff0219169083151502179055507f7805862f689e2f13df9f062ff482ad3ad112aca9e0847911ed832e158c525b3360405160405180910390a16001905090565b6103e881565b600060149054906101000a900460ff1681565b60008060009054906101000a900473ffffffffffffffffffffffffffffffffffffffff1673ffffffffffffffffffffffffffffffffffffffff163373ffffffffffffffffffffffffffffffffffffffff161415156105c557600080fd5b600060149054906101000a900460ff161515156105e157600080fd5b6001600060146101000a81548160ff0219169083151502179055507f6985a02210a168e66602d3235cb6db0e70f92b3ba4d376a33c0f3d9434bff62560405160405180910390a16001905090565b6000809054906101000a900473ffffffffffffffffffffffffffffffffffffffff1681565b60025481565b600160009054906101000a900473ffffffffffffffffffffffffffffffffffffffff1681565b6000809054906101000a900473ffffffffffffffffffffffffffffffffffffffff1673ffffffffffffffffffffffffffffffffffffffff163373ffffffffffffffffffffffffffffffffffffffff161415156106db57600080fd5b600073ffffffffffffffffffffffffffffffffffffffff168173ffffffffffffffffffffffffffffffffffffffff1614151561075257806000806101000a81548173ffffffffffffffffffffffffffffffffffffffff021916908373ffffffffffffffffffffffffffffffffffffffff1602179055505b50565b600080600084141561076a5760009150610789565b828402905082848281151561077b57fe5b0414151561078557fe5b8091505b5092915050565b600080828481151561079e57fe5b0490508091505092915050565b60007fd5f1e8515fe0f39ae42b9f5698abc2b2d58d8813c5877723ff5c71ca2ae87c5d600160009054906101000a900473ffffffffffffffffffffffffffffffffffffffff168484604051808473ffffffffffffffffffffffffffffffffffffffff1673ffffffffffffffffffffffffffffffffffffffff1681526020018373ffffffffffffffffffffffffffffffffffffffff1673ffffffffffffffffffffffffffffffffffffffff168152602001828152602001935050505060405180910390a1600360009054906101000a900473ffffffffffffffffffffffffffffffffffffffff1673ffffffffffffffffffffffffffffffffffffffff166340c10f1984846040518363ffffffff167c0100000000000000000000000000000000000000000000000000000000028152600401808373ffffffffffffffffffffffffffffffffffffffff1673ffffffffffffffffffffffffffffffffffffffff16815260200182815260200192505050602060405180830381600087803b15801561093357600080fd5b505af1158015610947573d6000803e3d6000fd5b505050506040513d602081101561095d57600080fd5b81019080805190602001909291905050509050929150505600a165627a7a72305820aae53a33578902d099922d602d15b496297ee3bf1ccc0226de37fc57ce1b88640029",
  "source": "pragma solidity ^0.4.20;\nimport './interfaces/Pausable.sol';\nimport './libs/SafeMath.sol';\nimport './libs/SafeMath.sol';\nimport './BinkabiTokenCreate.sol';\n\n\ncontract BinkabiTokenSale is Pausable {\n    using SafeMath for uint256;\n    address public binkabiDepositAddress;\n    uint256 public constant tokenExchangeRate = 1000;\n    uint256 public constant totalTokenSale = 50000000 * 10 ** 18;\n    uint256 public totalTokenSold = 0;\n\n    BinkabiTokenCreate binkabi;\n\n    event MintBinkabi(address from, address to, uint256 val);\n    event RefundBinkabi(address to, uint256 val);\n    event LogBinkabi(address add, uint256 val);\n\n    constructor(BinkabiTokenCreate _binkabiTokenAddress, address _binkabiDepositAddress) public {\n        binkabi = BinkabiTokenCreate(_binkabiTokenAddress);\n        binkabiDepositAddress = _binkabiDepositAddress;\n    }\n\n    function buy(address to, uint256 val) internal returns (bool success) {\n        emit MintBinkabi(binkabiDepositAddress, to, val);\n        return binkabi.mint(to, val);\n    }\n\n    function () public payable {\n        createTokens(msg.sender, msg.value);\n    }\n\n    function createTokens(address _beneficiary, uint256 _value) internal whenNotPaused {\n        uint256 tokens = _value.mul(tokenExchangeRate);\n        uint256 tokenAvailable = totalTokenSale - totalTokenSold;\n        uint256 etherToRefund = 0;\n        uint256 currentTokenSell = 0;\n\n        require(tokenAvailable > 0);\n\n        if (tokens > tokenAvailable){\n            currentTokenSell  = tokenAvailable;\n            etherToRefund = (tokens - tokenAvailable).div(tokenExchangeRate);\n        } else {\n            currentTokenSell = tokens;\n        }\n\n        buy(_beneficiary, currentTokenSell);\n        totalTokenSold += currentTokenSell;\n\n        if (etherToRefund > 0){\n            emit RefundBinkabi(msg.sender, etherToRefund);\n            msg.sender.transfer(etherToRefund);\n        }\n\n        binkabiDepositAddress.transfer(msg.value);\n        return;\n    }\n}\n\n\n\n",
  "sourcePath": "/mnt/f/xenial/project/tomo/binkabi/server/contracts/contracts/BinkabiTokenSale.sol",
  "compiler": {
    "name": "solc",
    "version": "0.4.23+commit.124ca40d.Emscripten.clang"
  },
  "schemaVersion": "2.0.0",
  "updatedAt": "2018-05-11T02:21:19.462Z"
}