{
  "contractName": "BinkabiEscrow",
  "abi": [
    {
      "constant": false,
      "inputs": [],
      "name": "unpause",
      "outputs": [
        {
          "name": "",
          "type": "bool"
        }
      ],
      "payable": false,
      "stateMutability": "nonpayable",
      "type": "function"
    },
    {
      "constant": true,
      "inputs": [],
      "name": "paused",
      "outputs": [
        {
          "name": "",
          "type": "bool"
        }
      ],
      "payable": false,
      "stateMutability": "view",
      "type": "function"
    },
    {
      "constant": false,
      "inputs": [],
      "name": "pause",
      "outputs": [
        {
          "name": "",
          "type": "bool"
        }
      ],
      "payable": false,
      "stateMutability": "nonpayable",
      "type": "function"
    },
    {
      "constant": true,
      "inputs": [],
      "name": "owner",
      "outputs": [
        {
          "name": "",
          "type": "address"
        }
      ],
      "payable": false,
      "stateMutability": "view",
      "type": "function"
    },
    {
      "constant": true,
      "inputs": [],
      "name": "order_id",
      "outputs": [
        {
          "name": "",
          "type": "uint256"
        }
      ],
      "payable": false,
      "stateMutability": "view",
      "type": "function"
    },
    {
      "constant": true,
      "inputs": [
        {
          "name": "",
          "type": "uint256"
        }
      ],
      "name": "order_waiting",
      "outputs": [
        {
          "name": "",
          "type": "uint256"
        }
      ],
      "payable": false,
      "stateMutability": "view",
      "type": "function"
    },
    {
      "constant": false,
      "inputs": [
        {
          "name": "newOwner",
          "type": "address"
        }
      ],
      "name": "transferOwnership",
      "outputs": [],
      "payable": false,
      "stateMutability": "nonpayable",
      "type": "function"
    },
    {
      "inputs": [
        {
          "name": "_binkabiTokenAddress",
          "type": "address"
        }
      ],
      "payable": false,
      "stateMutability": "nonpayable",
      "type": "constructor"
    },
    {
      "anonymous": false,
      "inputs": [],
      "name": "Pause",
      "type": "event"
    },
    {
      "anonymous": false,
      "inputs": [],
      "name": "Unpause",
      "type": "event"
    },
    {
      "constant": false,
      "inputs": [
        {
          "name": "_buyer",
          "type": "address"
        },
        {
          "name": "_seller",
          "type": "address"
        },
        {
          "name": "_amount_buyer",
          "type": "uint256"
        },
        {
          "name": "_amount_seller",
          "type": "uint256"
        }
      ],
      "name": "createOrder",
      "outputs": [
        {
          "name": "",
          "type": "uint256"
        }
      ],
      "payable": false,
      "stateMutability": "nonpayable",
      "type": "function"
    },
    {
      "constant": true,
      "inputs": [
        {
          "name": "_order_id",
          "type": "uint256"
        }
      ],
      "name": "getBuyerOrder",
      "outputs": [
        {
          "name": "",
          "type": "address"
        }
      ],
      "payable": false,
      "stateMutability": "view",
      "type": "function"
    },
    {
      "constant": true,
      "inputs": [
        {
          "name": "_order_id",
          "type": "uint256"
        }
      ],
      "name": "getSellerOrder",
      "outputs": [
        {
          "name": "",
          "type": "address"
        }
      ],
      "payable": false,
      "stateMutability": "view",
      "type": "function"
    },
    {
      "constant": false,
      "inputs": [
        {
          "name": "_order_id",
          "type": "uint256"
        },
        {
          "name": "_from",
          "type": "address"
        },
        {
          "name": "_refund_buyer",
          "type": "uint256"
        },
        {
          "name": "_refund_seller",
          "type": "uint256"
        }
      ],
      "name": "cancelOrder",
      "outputs": [],
      "payable": false,
      "stateMutability": "nonpayable",
      "type": "function"
    },
    {
      "constant": true,
      "inputs": [
        {
          "name": "_order_id",
          "type": "uint256"
        }
      ],
      "name": "getOrderState",
      "outputs": [
        {
          "name": "",
          "type": "uint8"
        }
      ],
      "payable": false,
      "stateMutability": "view",
      "type": "function"
    },
    {
      "constant": false,
      "inputs": [
        {
          "name": "_from",
          "type": "address"
        },
        {
          "name": "_amount",
          "type": "uint256"
        }
      ],
      "name": "updatePayment",
      "outputs": [],
      "payable": false,
      "stateMutability": "nonpayable",
      "type": "function"
    },
    {
      "constant": false,
      "inputs": [
        {
          "name": "_from",
          "type": "address"
        },
        {
          "name": "_order_id",
          "type": "uint256"
        },
        {
          "name": "_hash",
          "type": "string"
        }
      ],
      "name": "refundingOrder",
      "outputs": [],
      "payable": false,
      "stateMutability": "nonpayable",
      "type": "function"
    },
    {
      "constant": false,
      "inputs": [
        {
          "name": "_from",
          "type": "address"
        },
        {
          "name": "_order_id",
          "type": "uint256"
        },
        {
          "name": "_amount_buyer",
          "type": "uint256"
        },
        {
          "name": "_amount_seller",
          "type": "uint256"
        }
      ],
      "name": "refundedOrder",
      "outputs": [
        {
          "name": "",
          "type": "bool"
        }
      ],
      "payable": false,
      "stateMutability": "nonpayable",
      "type": "function"
    },
    {
      "constant": false,
      "inputs": [
        {
          "name": "_order_id",
          "type": "uint256"
        },
        {
          "name": "_hash",
          "type": "string"
        }
      ],
      "name": "deliverOrder",
      "outputs": [],
      "payable": false,
      "stateMutability": "nonpayable",
      "type": "function"
    },
    {
      "constant": false,
      "inputs": [
        {
          "name": "_from",
          "type": "address"
        },
        {
          "name": "_order_id",
          "type": "uint256"
        },
        {
          "name": "_hash",
          "type": "string"
        },
        {
          "name": "_amount_buyer",
          "type": "uint256"
        },
        {
          "name": "_amount_seller",
          "type": "uint256"
        }
      ],
      "name": "completedOrder",
      "outputs": [
        {
          "name": "",
          "type": "bool"
        }
      ],
      "payable": false,
      "stateMutability": "nonpayable",
      "type": "function"
    },
    {
      "constant": false,
      "inputs": [
        {
          "name": "_from",
          "type": "address"
        },
        {
          "name": "_order_id",
          "type": "uint256"
        },
        {
          "name": "_hash",
          "type": "string"
        }
      ],
      "name": "uploadDocument",
      "outputs": [
        {
          "name": "",
          "type": "bool"
        }
      ],
      "payable": false,
      "stateMutability": "nonpayable",
      "type": "function"
    }
  ],
  "bytecode": "0x608060405260008060146101000a81548160ff021916908315150217905550600060025534801561002f57600080fd5b5060405160208061209383398101806040528101908080519060200190929190505050336000806101000a81548173ffffffffffffffffffffffffffffffffffffffff021916908373ffffffffffffffffffffffffffffffffffffffff16021790555080600160006101000a81548173ffffffffffffffffffffffffffffffffffffffff021916908373ffffffffffffffffffffffffffffffffffffffff16021790555050611fb0806100e36000396000f3006080604052600436106100fc576000357c0100000000000000000000000000000000000000000000000000000000900463ffffffff168063164864c21461010157806321c0aa2e1461016e5780633f4ba83a146102195780635c975abb1461024857806376bc085b14610277578063810bd6af1461030a5780638456cb59146103595780638da5cb5b146103885780638e13d35e146103df57806398506fa314610440578063b6d5ce4e146104ad578063b9791425146104fa578063dc7ed73e14610525578063ef64547314610566578063f2fde38b14610625578063f3598fd514610668578063f51cf02f146106e1578063fe87991814610754575b600080fd5b34801561010d57600080fd5b5061012c600480360381019080803590602001909291905050506107df565b604051808273ffffffffffffffffffffffffffffffffffffffff1673ffffffffffffffffffffffffffffffffffffffff16815260200191505060405180910390f35b34801561017a57600080fd5b506101ff600480360381019080803573ffffffffffffffffffffffffffffffffffffffff16906020019092919080359060200190929190803590602001908201803590602001908080601f0160208091040260200160405190810160405280939291908181526020018383808284378201915050505050509192919290505050610824565b604051808215151515815260200191505060405180910390f35b34801561022557600080fd5b5061022e6109be565b604051808215151515815260200191505060405180910390f35b34801561025457600080fd5b5061025d610a83565b604051808215151515815260200191505060405180910390f35b34801561028357600080fd5b50610308600480360381019080803573ffffffffffffffffffffffffffffffffffffffff16906020019092919080359060200190929190803590602001908201803590602001908080601f0160208091040260200160405190810160405280939291908181526020018383808284378201915050505050509192919290505050610a96565b005b34801561031657600080fd5b5061033560048036038101908080359060200190929190505050610b96565b6040518082600681111561034557fe5b60ff16815260200191505060405180910390f35b34801561036557600080fd5b5061036e610bc3565b604051808215151515815260200191505060405180910390f35b34801561039457600080fd5b5061039d610c8a565b604051808273ffffffffffffffffffffffffffffffffffffffff1673ffffffffffffffffffffffffffffffffffffffff16815260200191505060405180910390f35b3480156103eb57600080fd5b5061043e60048036038101908080359060200190929190803573ffffffffffffffffffffffffffffffffffffffff1690602001909291908035906020019092919080359060200190929190505050610caf565b005b34801561044c57600080fd5b5061046b60048036038101908080359060200190929190505050610f63565b604051808273ffffffffffffffffffffffffffffffffffffffff1673ffffffffffffffffffffffffffffffffffffffff16815260200191505060405180910390f35b3480156104b957600080fd5b506104f8600480360381019080803573ffffffffffffffffffffffffffffffffffffffff16906020019092919080359060200190929190505050610fa8565b005b34801561050657600080fd5b5061050f611351565b6040518082815260200191505060405180910390f35b34801561053157600080fd5b5061055060048036038101908080359060200190929190505050611357565b6040518082815260200191505060405180910390f35b34801561057257600080fd5b5061060b600480360381019080803573ffffffffffffffffffffffffffffffffffffffff16906020019092919080359060200190929190803590602001908201803590602001908080601f0160208091040260200160405190810160405280939291908181526020018383808284378201915050505050509192919290803590602001909291908035906020019092919050505061137a565b604051808215151515815260200191505060405180910390f35b34801561063157600080fd5b50610666600480360381019080803573ffffffffffffffffffffffffffffffffffffffff1690602001909291905050506115cf565b005b34801561067457600080fd5b506106c7600480360381019080803573ffffffffffffffffffffffffffffffffffffffff1690602001909291908035906020019092919080359060200190929190803590602001909291905050506116a4565b604051808215151515815260200191505060405180910390f35b3480156106ed57600080fd5b5061075260048036038101908080359060200190929190803590602001908201803590602001908080601f01602080910402602001604051908101604052809392919081815260200183838082843782019150505050505091929192905050506118a4565b005b34801561076057600080fd5b506107c9600480360381019080803573ffffffffffffffffffffffffffffffffffffffff169060200190929190803573ffffffffffffffffffffffffffffffffffffffff1690602001909291908035906020019092919080359060200190929190505050611933565b6040518082815260200191505060405180910390f35b6000806005600084815260200190815260200160002060010160009054906101000a900473ffffffffffffffffffffffffffffffffffffffff16905080915050919050565b60006005600084815260200190815260200160002060010160009054906101000a900473ffffffffffffffffffffffffffffffffffffffff1673ffffffffffffffffffffffffffffffffffffffff168473ffffffffffffffffffffffffffffffffffffffff1614156108ec57600560008481526020019081526020016000206002018290806001815401808255809150509060018203906000526020600020016000909192909190915090805190602001906108e1929190611d8b565b5050600190506109b7565b6005600084815260200190815260200160002060000160009054906101000a900473ffffffffffffffffffffffffffffffffffffffff1673ffffffffffffffffffffffffffffffffffffffff168473ffffffffffffffffffffffffffffffffffffffff1614156109b257600560008481526020019081526020016000206003018290806001815401808255809150509060018203906000526020600020016000909192909190915090805190602001906109a7929190611d8b565b5050600190506109b7565b600090505b9392505050565b60008060009054906101000a900473ffffffffffffffffffffffffffffffffffffffff1673ffffffffffffffffffffffffffffffffffffffff163373ffffffffffffffffffffffffffffffffffffffff16141515610a1b57600080fd5b600060149054906101000a900460ff161515610a3657600080fd5b60008060146101000a81548160ff0219169083151502179055507f7805862f689e2f13df9f062ff482ad3ad112aca9e0847911ed832e158c525b3360405160405180910390a16001905090565b600060149054906101000a900460ff1681565b6005600083815260200190815260200160002060010160009054906101000a900473ffffffffffffffffffffffffffffffffffffffff1673ffffffffffffffffffffffffffffffffffffffff168373ffffffffffffffffffffffffffffffffffffffff16141515610b0657600080fd5b60046005600084815260200190815260200160002060010160146101000a81548160ff02191690836006811115610b3957fe5b021790555060056000838152602001908152602001600020600201819080600181540180825580915050906001820390600052602060002001600090919290919091509080519060200190610b8f929190611d8b565b5050505050565b60006005600083815260200190815260200160002060010160149054906101000a900460ff169050919050565b60008060009054906101000a900473ffffffffffffffffffffffffffffffffffffffff1673ffffffffffffffffffffffffffffffffffffffff163373ffffffffffffffffffffffffffffffffffffffff16141515610c2057600080fd5b600060149054906101000a900460ff16151515610c3c57600080fd5b6001600060146101000a81548160ff0219169083151502179055507f6985a02210a168e66602d3235cb6db0e70f92b3ba4d376a33c0f3d9434bff62560405160405180910390a16001905090565b6000809054906101000a900473ffffffffffffffffffffffffffffffffffffffff1681565b8273ffffffffffffffffffffffffffffffffffffffff166005600086815260200190815260200160002060000160009054906101000a900473ffffffffffffffffffffffffffffffffffffffff1673ffffffffffffffffffffffffffffffffffffffff161480610d8057508273ffffffffffffffffffffffffffffffffffffffff166005600086815260200190815260200160002060010160009054906101000a900473ffffffffffffffffffffffffffffffffffffffff1673ffffffffffffffffffffffffffffffffffffffff16145b1515610d8b57600080fd5b60066005600086815260200190815260200160002060010160146101000a81548160ff02191690836006811115610dbe57fe5b02179055506000821180610dd25750600081115b15610f5d57600160009054906101000a900473ffffffffffffffffffffffffffffffffffffffff1673ffffffffffffffffffffffffffffffffffffffff1663674ec0776005600087815260200190815260200160002060010160009054906101000a900473ffffffffffffffffffffffffffffffffffffffff166005600088815260200190815260200160002060000160009054906101000a900473ffffffffffffffffffffffffffffffffffffffff1685856040518563ffffffff167c0100000000000000000000000000000000000000000000000000000000028152600401808573ffffffffffffffffffffffffffffffffffffffff1673ffffffffffffffffffffffffffffffffffffffff1681526020018473ffffffffffffffffffffffffffffffffffffffff1673ffffffffffffffffffffffffffffffffffffffff168152602001838152602001828152602001945050505050600060405180830381600087803b158015610f4457600080fd5b505af1158015610f58573d6000803e3d6000fd5b505050505b50505050565b6000806005600084815260200190815260200160002060000160009054906101000a900473ffffffffffffffffffffffffffffffffffffffff16905080915050919050565b60008090505b60038054905081101561134c578273ffffffffffffffffffffffffffffffffffffffff1660056000600384815481101515610fe557fe5b9060005260206000200154815260200190815260200160002060010160009054906101000a900473ffffffffffffffffffffffffffffffffffffffff1673ffffffffffffffffffffffffffffffffffffffff161480156110735750816005600060038481548110151561105457fe5b9060005260206000200154815260200190815260200160002060040154145b1561117d5760016005600060038481548110151561108d57fe5b9060005260206000200154815260200190815260200160002060010160156101000a81548160ff02191690831515021790555060011515600560006003848154811015156110d757fe5b9060005260206000200154815260200190815260200160002060010160169054906101000a900460ff16151514156111785760016005600060038481548110151561111e57fe5b9060005260206000200154815260200190815260200160002060010160146101000a81548160ff0219169083600681111561115557fe5b021790555060038181548110151561116957fe5b90600052602060002001600090555b61134c565b8273ffffffffffffffffffffffffffffffffffffffff16600560006003848154811015156111a757fe5b9060005260206000200154815260200190815260200160002060010160009054906101000a900473ffffffffffffffffffffffffffffffffffffffff1673ffffffffffffffffffffffffffffffffffffffff161480156112355750816005600060038481548110151561121657fe5b9060005260206000200154815260200190815260200160002060040154145b1561133f5760016005600060038481548110151561124f57fe5b9060005260206000200154815260200190815260200160002060010160156101000a81548160ff021916908315150217905550600115156005600060038481548110151561129957fe5b9060005260206000200154815260200190815260200160002060010160169054906101000a900460ff161515141561133a576001600560006003848154811015156112e057fe5b9060005260206000200154815260200190815260200160002060010160146101000a81548160ff0219169083600681111561131757fe5b021790555060038181548110151561132b57fe5b90600052602060002001600090555b61134c565b8080600101915050610fae565b505050565b60025481565b60038181548110151561136657fe5b906000526020600020016000915090505481565b60006005600086815260200190815260200160002060010160009054906101000a900473ffffffffffffffffffffffffffffffffffffffff1673ffffffffffffffffffffffffffffffffffffffff168673ffffffffffffffffffffffffffffffffffffffff161415156113ec57600080fd5b60036005600087815260200190815260200160002060010160146101000a81548160ff0219169083600681111561141f57fe5b021790555060056000868152602001908152602001600020600201849080600181540180825580915050906001820390600052602060002001600090919290919091509080519060200190611475929190611d8b565b5050600160009054906101000a900473ffffffffffffffffffffffffffffffffffffffff1673ffffffffffffffffffffffffffffffffffffffff1663674ec0776005600088815260200190815260200160002060010160009054906101000a900473ffffffffffffffffffffffffffffffffffffffff168886866040518563ffffffff167c0100000000000000000000000000000000000000000000000000000000028152600401808573ffffffffffffffffffffffffffffffffffffffff1673ffffffffffffffffffffffffffffffffffffffff1681526020018473ffffffffffffffffffffffffffffffffffffffff1673ffffffffffffffffffffffffffffffffffffffff168152602001838152602001828152602001945050505050600060405180830381600087803b1580156115ae57600080fd5b505af11580156115c2573d6000803e3d6000fd5b5050505095945050505050565b6000809054906101000a900473ffffffffffffffffffffffffffffffffffffffff1673ffffffffffffffffffffffffffffffffffffffff163373ffffffffffffffffffffffffffffffffffffffff1614151561162a57600080fd5b600073ffffffffffffffffffffffffffffffffffffffff168173ffffffffffffffffffffffffffffffffffffffff161415156116a157806000806101000a81548173ffffffffffffffffffffffffffffffffffffffff021916908373ffffffffffffffffffffffffffffffffffffffff1602179055505b50565b60006005600085815260200190815260200160002060000160009054906101000a900473ffffffffffffffffffffffffffffffffffffffff1673ffffffffffffffffffffffffffffffffffffffff168573ffffffffffffffffffffffffffffffffffffffff1614151561171657600080fd5b600580600086815260200190815260200160002060010160146101000a81548160ff0219169083600681111561174857fe5b0217905550600160009054906101000a900473ffffffffffffffffffffffffffffffffffffffff1673ffffffffffffffffffffffffffffffffffffffff1663674ec0776005600087815260200190815260200160002060010160009054906101000a900473ffffffffffffffffffffffffffffffffffffffff168786866040518563ffffffff167c0100000000000000000000000000000000000000000000000000000000028152600401808573ffffffffffffffffffffffffffffffffffffffff1673ffffffffffffffffffffffffffffffffffffffff1681526020018473ffffffffffffffffffffffffffffffffffffffff1673ffffffffffffffffffffffffffffffffffffffff168152602001838152602001828152602001945050505050600060405180830381600087803b15801561188457600080fd5b505af1158015611898573d6000803e3d6000fd5b50505050949350505050565b60026005600084815260200190815260200160002060010160146101000a81548160ff021916908360068111156118d757fe5b02179055506005600083815260200190815260200160002060030181908060018154018082558091505090600182039060005260206000200160009091929091909150908051906020019061192d929190611d8b565b50505050565b6000808473ffffffffffffffffffffffffffffffffffffffff168673ffffffffffffffffffffffffffffffffffffffff161415151561197157600080fd5b6000841180156119815750600083115b151561198c57600080fd5b6001600254019050610140604051908101604052808673ffffffffffffffffffffffffffffffffffffffff1681526020018773ffffffffffffffffffffffffffffffffffffffff168152602001600060068111156119e657fe5b81526020016000151581526020016000151581526020016004805480602002602001604051908101604052809291908181526020016000905b82821015611adb578382906000526020600020018054600181600116156101000203166002900480601f016020809104026020016040519081016040528092919081815260200182805460018160011615610100020316600290048015611ac75780601f10611a9c57610100808354040283529160200191611ac7565b820191906000526020600020905b815481529060010190602001808311611aaa57829003601f168201915b505050505081526020019060010190611a1f565b5050505081526020016004805480602002602001604051908101604052809291908181526020016000905b82821015611bc2578382906000526020600020018054600181600116156101000203166002900480601f016020809104026020016040519081016040528092919081815260200182805460018160011615610100020316600290048015611bae5780601f10611b8357610100808354040283529160200191611bae565b820191906000526020600020905b815481529060010190602001808311611b9157829003601f168201915b505050505081526020019060010190611b06565b505050508152602001858152602001848152602001428152506005600083815260200190815260200160002060008201518160000160006101000a81548173ffffffffffffffffffffffffffffffffffffffff021916908373ffffffffffffffffffffffffffffffffffffffff16021790555060208201518160010160006101000a81548173ffffffffffffffffffffffffffffffffffffffff021916908373ffffffffffffffffffffffffffffffffffffffff16021790555060408201518160010160146101000a81548160ff02191690836006811115611ca057fe5b021790555060608201518160010160156101000a81548160ff02191690831515021790555060808201518160010160166101000a81548160ff02191690831515021790555060a0820151816002019080519060200190611d01929190611e0b565b5060c0820151816003019080519060200190611d1e929190611e0b565b5060e08201518160040155610100820151816005015561012082015181600601559050506001600260008282540192505081905550600381908060018154018082558091505090600182039060005260206000200160009091929091909150555080915050949350505050565b828054600181600116156101000203166002900490600052602060002090601f016020900481019282601f10611dcc57805160ff1916838001178555611dfa565b82800160010185558215611dfa579182015b82811115611df9578251825591602001919060010190611dde565b5b509050611e079190611e6b565b5090565b828054828255906000526020600020908101928215611e5a579160200282015b82811115611e59578251829080519060200190611e49929190611e90565b5091602001919060010190611e2b565b5b509050611e679190611f10565b5090565b611e8d91905b80821115611e89576000816000905550600101611e71565b5090565b90565b828054600181600116156101000203166002900490600052602060002090601f016020900481019282601f10611ed157805160ff1916838001178555611eff565b82800160010185558215611eff579182015b82811115611efe578251825591602001919060010190611ee3565b5b509050611f0c9190611e6b565b5090565b611f3991905b80821115611f355760008181611f2c9190611f3c565b50600101611f16565b5090565b90565b50805460018160011615610100020316600290046000825580601f10611f625750611f81565b601f016020900490600052602060002090810190611f809190611e6b565b5b505600a165627a7a7230582020c4c7b68d30a531400dd463f2f0a97a3e79fc8bd1cf58cf03f16d0cb19f13730029",
  "source": "pragma solidity ^0.4.20;\nimport './interfaces/Pausable.sol';\nimport './BinkabiTokenCreate.sol';\n\ncontract BinkabiEscrow is Pausable {\n    enum State {awaiting_payment, awaiting_delivery, delivering, completed, refunding, refunded, cancel}\n\n    BinkabiTokenCreate binkabi;\n\n    constructor(BinkabiTokenCreate _binkabiTokenAddress) public {\n        binkabi = BinkabiTokenCreate(_binkabiTokenAddress);\n    }\n\n    struct Order {\n        address seller;\n        address buyer;\n        State state;\n        bool payment_buyer;\n        bool payment_seller;\n        string[] docs_buyer;\n        string[] docs_seller;\n        uint256 amount_buyer;\n        uint256 amount_seller;\n        uint256 ordered_at;\n    }\n    uint256 public order_id = 0;\n    uint256[] public order_waiting;\n    string[] empty_arr;\n\n    mapping (uint256 => Order) orders;\n\n    function createOrder(address _buyer, address _seller, uint256 _amount_buyer, uint256 _amount_seller) public returns(uint256) {\n        require(_buyer != _seller);\n        require(_amount_buyer > 0 && _amount_seller > 0);\n        uint256 _order_id = order_id + 1;\n\n\n        orders[_order_id] = Order({\n            seller: _seller,\n            buyer: _buyer,\n            state: State.awaiting_payment,\n            payment_buyer: false,\n            payment_seller: false,\n            docs_buyer: empty_arr,\n            docs_seller: empty_arr,\n            amount_buyer: _amount_buyer,\n            amount_seller: _amount_seller,\n            ordered_at: now\n        });\n        order_id += 1;\n        order_waiting.push(_order_id);\n\n        return _order_id;\n    }\n\n    function getBuyerOrder(uint256 _order_id) public view returns(address) {\n        address _buyer = orders[_order_id].buyer;\n        return _buyer;\n    }\n\n    function getSellerOrder(uint256 _order_id) public view returns(address) {\n        address _seller = orders[_order_id].seller;\n        return _seller;\n    }  \n\n    function cancelOrder(uint256 _order_id, address _from, uint256 _refund_buyer, uint256 _refund_seller) public {        \n        require(orders[_order_id].seller == _from || orders[_order_id].buyer == _from);\n        orders[_order_id].state = State.cancel;\n\n        if (_refund_buyer > 0 || _refund_seller > 0){\n            binkabi.escrow(orders[_order_id].buyer, orders[_order_id].seller, _refund_buyer, _refund_seller);\n        }\n        \n    }\n\n    function getOrderState(uint256 _order_id) public view returns(State) {        \n        return orders[_order_id].state;\n    }\n\n    function updatePayment(address _from, uint256 _amount) public {\n        for (uint256 i = 0; i < order_waiting.length; i++) {\n            if (orders[order_waiting[i]].buyer == _from && orders[order_waiting[i]].amount_buyer == _amount){\n                orders[order_waiting[i]].payment_buyer = true;\n                if (orders[order_waiting[i]].payment_seller == true){\n                    orders[order_waiting[i]].state = State.awaiting_delivery;\n                    delete order_waiting[i];\n                }\n                break;\n            } else if (orders[order_waiting[i]].buyer == _from && orders[order_waiting[i]].amount_buyer == _amount){\n                orders[order_waiting[i]].payment_buyer = true;\n                if (orders[order_waiting[i]].payment_seller == true){\n                    orders[order_waiting[i]].state = State.awaiting_delivery;\n                    delete order_waiting[i];\n                }\n                break;\n            }\n        }\n    }\n\n    function refundingOrder(address _from, uint256 _order_id, string _hash) public {\n        require(_from == orders[_order_id].buyer);\n        orders[_order_id].state = State.refunding;\n        orders[_order_id].docs_buyer.push(_hash);\n\n    }\n\n    function refundedOrder(address _from, uint256 _order_id, uint256 _amount_buyer, uint256 _amount_seller) public returns (bool) {\n        require(_from == orders[_order_id].seller);\n        orders[_order_id].state = State.refunded;\n        binkabi.escrow(orders[_order_id].buyer, _from, _amount_buyer, _amount_seller);\n    }\n\n    function deliverOrder(uint256 _order_id, string _hash) public {\n        orders[_order_id].state = State.delivering;   \n        orders[_order_id].docs_seller.push(_hash);\n    }\n\n    function completedOrder(address _from, uint256 _order_id, string _hash, uint256 _amount_buyer, uint256 _amount_seller) public returns (bool) {\n        require(_from == orders[_order_id].buyer);\n        orders[_order_id].state = State.completed;          \n        orders[_order_id].docs_buyer.push(_hash);\n\n        binkabi.escrow(orders[_order_id].buyer, _from, _amount_buyer, _amount_seller);        \n    }\n\n    function uploadDocument(address _from, uint256 _order_id, string _hash) public returns (bool) {\n        if (_from == orders[_order_id].buyer){\n            orders[_order_id].docs_buyer.push(_hash);\n            return true;\n        } else if (_from == orders[_order_id].seller) {\n            orders[_order_id].docs_seller.push(_hash);\n            return true;\n        }\n        return false;\n    }\n\n    \n\n\n\n\n\n\n}",
  "sourcePath": "/mnt/f/xenial/project/tomo/binkabi/server/contracts/contracts/BinkabiEscrow.sol",
  "compiler": {
    "name": "solc",
    "version": "0.4.23+commit.124ca40d.Emscripten.clang"
  },
  "schemaVersion": "2.0.0",
  "updatedAt": "2018-05-18T10:09:14.509Z"
}