{
  "contractName": "BinkabiEscrow",
  "abi": [
    {
      "constant": false,
      "inputs": [],
      "name": "unpause",
      "outputs": [
        {
          "name": "",
          "type": "bool"
        }
      ],
      "payable": false,
      "stateMutability": "nonpayable",
      "type": "function"
    },
    {
      "constant": true,
      "inputs": [],
      "name": "binkabiTokenAddress",
      "outputs": [
        {
          "name": "",
          "type": "address"
        }
      ],
      "payable": false,
      "stateMutability": "view",
      "type": "function"
    },
    {
      "constant": true,
      "inputs": [],
      "name": "paused",
      "outputs": [
        {
          "name": "",
          "type": "bool"
        }
      ],
      "payable": false,
      "stateMutability": "view",
      "type": "function"
    },
    {
      "constant": false,
      "inputs": [],
      "name": "pause",
      "outputs": [
        {
          "name": "",
          "type": "bool"
        }
      ],
      "payable": false,
      "stateMutability": "nonpayable",
      "type": "function"
    },
    {
      "constant": true,
      "inputs": [],
      "name": "owner",
      "outputs": [
        {
          "name": "",
          "type": "address"
        }
      ],
      "payable": false,
      "stateMutability": "view",
      "type": "function"
    },
    {
      "constant": true,
      "inputs": [],
      "name": "order_id",
      "outputs": [
        {
          "name": "",
          "type": "uint256"
        }
      ],
      "payable": false,
      "stateMutability": "view",
      "type": "function"
    },
    {
      "constant": true,
      "inputs": [
        {
          "name": "",
          "type": "uint256"
        }
      ],
      "name": "order_waiting",
      "outputs": [
        {
          "name": "",
          "type": "uint256"
        }
      ],
      "payable": false,
      "stateMutability": "view",
      "type": "function"
    },
    {
      "constant": false,
      "inputs": [
        {
          "name": "newOwner",
          "type": "address"
        }
      ],
      "name": "transferOwnership",
      "outputs": [],
      "payable": false,
      "stateMutability": "nonpayable",
      "type": "function"
    },
    {
      "inputs": [
        {
          "name": "_binkabiTokenAddress",
          "type": "address"
        }
      ],
      "payable": false,
      "stateMutability": "nonpayable",
      "type": "constructor"
    },
    {
      "anonymous": false,
      "inputs": [],
      "name": "Pause",
      "type": "event"
    },
    {
      "anonymous": false,
      "inputs": [],
      "name": "Unpause",
      "type": "event"
    },
    {
      "constant": false,
      "inputs": [
        {
          "name": "_buyer",
          "type": "address"
        },
        {
          "name": "_seller",
          "type": "address"
        },
        {
          "name": "_amount_buyer",
          "type": "uint256"
        },
        {
          "name": "_amount_seller",
          "type": "uint256"
        }
      ],
      "name": "createOrder",
      "outputs": [
        {
          "name": "",
          "type": "uint256"
        }
      ],
      "payable": false,
      "stateMutability": "nonpayable",
      "type": "function"
    },
    {
      "constant": true,
      "inputs": [
        {
          "name": "_order_id",
          "type": "uint256"
        }
      ],
      "name": "getBuyerOrder",
      "outputs": [
        {
          "name": "",
          "type": "address"
        }
      ],
      "payable": false,
      "stateMutability": "view",
      "type": "function"
    },
    {
      "constant": true,
      "inputs": [
        {
          "name": "_order_id",
          "type": "uint256"
        }
      ],
      "name": "getSellerOrder",
      "outputs": [
        {
          "name": "",
          "type": "address"
        }
      ],
      "payable": false,
      "stateMutability": "view",
      "type": "function"
    },
    {
      "constant": false,
      "inputs": [
        {
          "name": "_order_id",
          "type": "uint256"
        },
        {
          "name": "_from",
          "type": "address"
        },
        {
          "name": "_refund_buyer",
          "type": "uint256"
        },
        {
          "name": "_refund_seller",
          "type": "uint256"
        }
      ],
      "name": "cancelOrder",
      "outputs": [],
      "payable": false,
      "stateMutability": "nonpayable",
      "type": "function"
    },
    {
      "constant": true,
      "inputs": [
        {
          "name": "_order_id",
          "type": "uint256"
        }
      ],
      "name": "getOrderState",
      "outputs": [
        {
          "name": "",
          "type": "uint8"
        }
      ],
      "payable": false,
      "stateMutability": "view",
      "type": "function"
    },
    {
      "constant": false,
      "inputs": [
        {
          "name": "_from",
          "type": "address"
        },
        {
          "name": "_amount",
          "type": "uint256"
        }
      ],
      "name": "updatePayment",
      "outputs": [],
      "payable": false,
      "stateMutability": "nonpayable",
      "type": "function"
    },
    {
      "constant": false,
      "inputs": [
        {
          "name": "_from",
          "type": "address"
        },
        {
          "name": "_order_id",
          "type": "uint256"
        },
        {
          "name": "_hash",
          "type": "string"
        }
      ],
      "name": "refundingOrder",
      "outputs": [],
      "payable": false,
      "stateMutability": "nonpayable",
      "type": "function"
    },
    {
      "constant": false,
      "inputs": [
        {
          "name": "_from",
          "type": "address"
        },
        {
          "name": "_order_id",
          "type": "uint256"
        },
        {
          "name": "_amount_buyer",
          "type": "uint256"
        },
        {
          "name": "_amount_seller",
          "type": "uint256"
        }
      ],
      "name": "refundedOrder",
      "outputs": [
        {
          "name": "",
          "type": "bool"
        }
      ],
      "payable": false,
      "stateMutability": "nonpayable",
      "type": "function"
    },
    {
      "constant": false,
      "inputs": [
        {
          "name": "_from",
          "type": "address"
        },
        {
          "name": "_order_id",
          "type": "uint256"
        },
        {
          "name": "_hash",
          "type": "string"
        }
      ],
      "name": "deliverOrder",
      "outputs": [],
      "payable": false,
      "stateMutability": "nonpayable",
      "type": "function"
    },
    {
      "constant": false,
      "inputs": [
        {
          "name": "_from",
          "type": "address"
        },
        {
          "name": "_order_id",
          "type": "uint256"
        },
        {
          "name": "_hash",
          "type": "string"
        },
        {
          "name": "_amount_buyer",
          "type": "uint256"
        },
        {
          "name": "_amount_seller",
          "type": "uint256"
        }
      ],
      "name": "completedOrder",
      "outputs": [
        {
          "name": "",
          "type": "bool"
        }
      ],
      "payable": false,
      "stateMutability": "nonpayable",
      "type": "function"
    },
    {
      "constant": false,
      "inputs": [
        {
          "name": "_from",
          "type": "address"
        },
        {
          "name": "_order_id",
          "type": "uint256"
        },
        {
          "name": "_hash",
          "type": "string"
        }
      ],
      "name": "uploadDocument",
      "outputs": [],
      "payable": false,
      "stateMutability": "nonpayable",
      "type": "function"
    }
  ],
  "bytecode": "0x608060405260008060146101000a81548160ff021916908315150217905550600060035534801561002f57600080fd5b506040516020806122fa83398101806040528101908080519060200190929190505050336000806101000a81548173ffffffffffffffffffffffffffffffffffffffff021916908373ffffffffffffffffffffffffffffffffffffffff16021790555080600160006101000a81548173ffffffffffffffffffffffffffffffffffffffff021916908373ffffffffffffffffffffffffffffffffffffffff16021790555080600260006101000a81548173ffffffffffffffffffffffffffffffffffffffff021916908373ffffffffffffffffffffffffffffffffffffffff160217905550506121d6806101246000396000f300608060405260043610610107576000357c0100000000000000000000000000000000000000000000000000000000900463ffffffff168063164864c21461010c57806321c0aa2e146101795780633f4ba83a1461020c5780635bb8cb801461023b5780635c975abb1461029257806376bc085b146102c1578063810bd6af146103545780638456cb59146103a35780638da5cb5b146103d25780638e13d35e14610429578063976023ed1461048a57806398506fa31461051d578063b6d5ce4e1461058a578063b9791425146105d7578063dc7ed73e14610602578063ef64547314610643578063f2fde38b14610702578063f3598fd514610745578063fe879918146107be575b600080fd5b34801561011857600080fd5b5061013760048036038101908080359060200190929190505050610849565b604051808273ffffffffffffffffffffffffffffffffffffffff1673ffffffffffffffffffffffffffffffffffffffff16815260200191505060405180910390f35b34801561018557600080fd5b5061020a600480360381019080803573ffffffffffffffffffffffffffffffffffffffff16906020019092919080359060200190929190803590602001908201803590602001908080601f016020809104026020016040519081016040528093929190818152602001838380828437820191505050505050919291929050505061088e565b005b34801561021857600080fd5b50610221610af0565b604051808215151515815260200191505060405180910390f35b34801561024757600080fd5b50610250610bb5565b604051808273ffffffffffffffffffffffffffffffffffffffff1673ffffffffffffffffffffffffffffffffffffffff16815260200191505060405180910390f35b34801561029e57600080fd5b506102a7610bdb565b604051808215151515815260200191505060405180910390f35b3480156102cd57600080fd5b50610352600480360381019080803573ffffffffffffffffffffffffffffffffffffffff16906020019092919080359060200190929190803590602001908201803590602001908080601f0160208091040260200160405190810160405280939291908181526020018383808284378201915050505050509192919290505050610bee565b005b34801561036057600080fd5b5061037f60048036038101908080359060200190929190505050610cee565b6040518082600681111561038f57fe5b60ff16815260200191505060405180910390f35b3480156103af57600080fd5b506103b8610d1b565b604051808215151515815260200191505060405180910390f35b3480156103de57600080fd5b506103e7610de2565b604051808273ffffffffffffffffffffffffffffffffffffffff1673ffffffffffffffffffffffffffffffffffffffff16815260200191505060405180910390f35b34801561043557600080fd5b5061048860048036038101908080359060200190929190803573ffffffffffffffffffffffffffffffffffffffff1690602001909291908035906020019092919080359060200190929190505050610e07565b005b34801561049657600080fd5b5061051b600480360381019080803573ffffffffffffffffffffffffffffffffffffffff16906020019092919080359060200190929190803590602001908201803590602001908080601f01602080910402602001604051908101604052809392919081815260200183838082843782019150505050505091929192905050506110ba565b005b34801561052957600080fd5b50610548600480360381019080803590602001909291905050506111ba565b604051808273ffffffffffffffffffffffffffffffffffffffff1673ffffffffffffffffffffffffffffffffffffffff16815260200191505060405180910390f35b34801561059657600080fd5b506105d5600480360381019080803573ffffffffffffffffffffffffffffffffffffffff169060200190929190803590602001909291905050506111ff565b005b3480156105e357600080fd5b506105ec611605565b6040518082815260200191505060405180910390f35b34801561060e57600080fd5b5061062d6004803603810190808035906020019092919050505061160b565b6040518082815260200191505060405180910390f35b34801561064f57600080fd5b506106e8600480360381019080803573ffffffffffffffffffffffffffffffffffffffff16906020019092919080359060200190929190803590602001908201803590602001908080601f0160208091040260200160405190810160405280939291908181526020018383808284378201915050505050509192919290803590602001909291908035906020019092919050505061162e565b604051808215151515815260200191505060405180910390f35b34801561070e57600080fd5b50610743600480360381019080803573ffffffffffffffffffffffffffffffffffffffff169060200190929190505050611883565b005b34801561075157600080fd5b506107a4600480360381019080803573ffffffffffffffffffffffffffffffffffffffff169060200190929190803590602001909291908035906020019092919080359060200190929190505050611958565b604051808215151515815260200191505060405180910390f35b3480156107ca57600080fd5b50610833600480360381019080803573ffffffffffffffffffffffffffffffffffffffff169060200190929190803573ffffffffffffffffffffffffffffffffffffffff1690602001909291908035906020019092919080359060200190929190505050611b59565b6040518082815260200191505060405180910390f35b6000806006600084815260200190815260200160002060010160009054906101000a900473ffffffffffffffffffffffffffffffffffffffff16905080915050919050565b6006600083815260200190815260200160002060010160009054906101000a900473ffffffffffffffffffffffffffffffffffffffff1673ffffffffffffffffffffffffffffffffffffffff168373ffffffffffffffffffffffffffffffffffffffff16148061095f57506006600083815260200190815260200160002060000160009054906101000a900473ffffffffffffffffffffffffffffffffffffffff1673ffffffffffffffffffffffffffffffffffffffff168373ffffffffffffffffffffffffffffffffffffffff16145b151561096a57600080fd5b6006600083815260200190815260200160002060010160009054906101000a900473ffffffffffffffffffffffffffffffffffffffff1673ffffffffffffffffffffffffffffffffffffffff168373ffffffffffffffffffffffffffffffffffffffff161415610a2c5760066000838152602001908152602001600020600201819080600181540180825580915050906001820390600052602060002001600090919290919091509080519060200190610a25929190611fb1565b5050610aeb565b6006600083815260200190815260200160002060000160009054906101000a900473ffffffffffffffffffffffffffffffffffffffff1673ffffffffffffffffffffffffffffffffffffffff168373ffffffffffffffffffffffffffffffffffffffff161415610aea5760066000838152602001908152602001600020600301819080600181540180825580915050906001820390600052602060002001600090919290919091509080519060200190610ae7929190611fb1565b50505b5b505050565b60008060009054906101000a900473ffffffffffffffffffffffffffffffffffffffff1673ffffffffffffffffffffffffffffffffffffffff163373ffffffffffffffffffffffffffffffffffffffff16141515610b4d57600080fd5b600060149054906101000a900460ff161515610b6857600080fd5b60008060146101000a81548160ff0219169083151502179055507f7805862f689e2f13df9f062ff482ad3ad112aca9e0847911ed832e158c525b3360405160405180910390a16001905090565b600260009054906101000a900473ffffffffffffffffffffffffffffffffffffffff1681565b600060149054906101000a900460ff1681565b6006600083815260200190815260200160002060010160009054906101000a900473ffffffffffffffffffffffffffffffffffffffff1673ffffffffffffffffffffffffffffffffffffffff168373ffffffffffffffffffffffffffffffffffffffff16141515610c5e57600080fd5b60046006600084815260200190815260200160002060010160146101000a81548160ff02191690836006811115610c9157fe5b021790555060066000838152602001908152602001600020600201819080600181540180825580915050906001820390600052602060002001600090919290919091509080519060200190610ce7929190611fb1565b5050505050565b60006006600083815260200190815260200160002060010160149054906101000a900460ff169050919050565b60008060009054906101000a900473ffffffffffffffffffffffffffffffffffffffff1673ffffffffffffffffffffffffffffffffffffffff163373ffffffffffffffffffffffffffffffffffffffff16141515610d7857600080fd5b600060149054906101000a900460ff16151515610d9457600080fd5b6001600060146101000a81548160ff0219169083151502179055507f6985a02210a168e66602d3235cb6db0e70f92b3ba4d376a33c0f3d9434bff62560405160405180910390a16001905090565b6000809054906101000a900473ffffffffffffffffffffffffffffffffffffffff1681565b8273ffffffffffffffffffffffffffffffffffffffff166006600086815260200190815260200160002060000160009054906101000a900473ffffffffffffffffffffffffffffffffffffffff1673ffffffffffffffffffffffffffffffffffffffff161480610ed857508273ffffffffffffffffffffffffffffffffffffffff166006600086815260200190815260200160002060010160009054906101000a900473ffffffffffffffffffffffffffffffffffffffff1673ffffffffffffffffffffffffffffffffffffffff16145b1515610ee357600080fd5b600680600086815260200190815260200160002060010160146101000a81548160ff02191690836006811115610f1557fe5b02179055506000821180610f295750600081115b156110b457600160009054906101000a900473ffffffffffffffffffffffffffffffffffffffff1673ffffffffffffffffffffffffffffffffffffffff1663674ec0776006600087815260200190815260200160002060010160009054906101000a900473ffffffffffffffffffffffffffffffffffffffff166006600088815260200190815260200160002060000160009054906101000a900473ffffffffffffffffffffffffffffffffffffffff1685856040518563ffffffff167c0100000000000000000000000000000000000000000000000000000000028152600401808573ffffffffffffffffffffffffffffffffffffffff1673ffffffffffffffffffffffffffffffffffffffff1681526020018473ffffffffffffffffffffffffffffffffffffffff1673ffffffffffffffffffffffffffffffffffffffff168152602001838152602001828152602001945050505050600060405180830381600087803b15801561109b57600080fd5b505af11580156110af573d6000803e3d6000fd5b505050505b50505050565b6006600083815260200190815260200160002060000160009054906101000a900473ffffffffffffffffffffffffffffffffffffffff1673ffffffffffffffffffffffffffffffffffffffff168373ffffffffffffffffffffffffffffffffffffffff1614151561112a57600080fd5b60026006600084815260200190815260200160002060010160146101000a81548160ff0219169083600681111561115d57fe5b0217905550600660008381526020019081526020016000206003018190806001815401808255809150509060018203906000526020600020016000909192909190915090805190602001906111b3929190611fb1565b5050505050565b6000806006600084815260200190815260200160002060000160009054906101000a900473ffffffffffffffffffffffffffffffffffffffff16905080915050919050565b6000600260009054906101000a900473ffffffffffffffffffffffffffffffffffffffff1673ffffffffffffffffffffffffffffffffffffffff163373ffffffffffffffffffffffffffffffffffffffff1614151561125d57600080fd5b600090505b600480549050811015611600578273ffffffffffffffffffffffffffffffffffffffff166006600060048481548110151561129957fe5b9060005260206000200154815260200190815260200160002060010160009054906101000a900473ffffffffffffffffffffffffffffffffffffffff1673ffffffffffffffffffffffffffffffffffffffff161480156113275750816006600060048481548110151561130857fe5b9060005260206000200154815260200190815260200160002060040154145b156114315760016006600060048481548110151561134157fe5b9060005260206000200154815260200190815260200160002060010160156101000a81548160ff021916908315150217905550600115156006600060048481548110151561138b57fe5b9060005260206000200154815260200190815260200160002060010160169054906101000a900460ff161515141561142c576001600660006004848154811015156113d257fe5b9060005260206000200154815260200190815260200160002060010160146101000a81548160ff0219169083600681111561140957fe5b021790555060048181548110151561141d57fe5b90600052602060002001600090555b611600565b8273ffffffffffffffffffffffffffffffffffffffff166006600060048481548110151561145b57fe5b9060005260206000200154815260200190815260200160002060010160009054906101000a900473ffffffffffffffffffffffffffffffffffffffff1673ffffffffffffffffffffffffffffffffffffffff161480156114e9575081600660006004848154811015156114ca57fe5b9060005260206000200154815260200190815260200160002060040154145b156115f35760016006600060048481548110151561150357fe5b9060005260206000200154815260200190815260200160002060010160156101000a81548160ff021916908315150217905550600115156006600060048481548110151561154d57fe5b9060005260206000200154815260200190815260200160002060010160169054906101000a900460ff16151514156115ee5760016006600060048481548110151561159457fe5b9060005260206000200154815260200190815260200160002060010160146101000a81548160ff021916908360068111156115cb57fe5b02179055506004818154811015156115df57fe5b90600052602060002001600090555b611600565b8080600101915050611262565b505050565b60035481565b60048181548110151561161a57fe5b906000526020600020016000915090505481565b60006006600086815260200190815260200160002060010160009054906101000a900473ffffffffffffffffffffffffffffffffffffffff1673ffffffffffffffffffffffffffffffffffffffff168673ffffffffffffffffffffffffffffffffffffffff161415156116a057600080fd5b60036006600087815260200190815260200160002060010160146101000a81548160ff021916908360068111156116d357fe5b021790555060066000868152602001908152602001600020600201849080600181540180825580915050906001820390600052602060002001600090919290919091509080519060200190611729929190611fb1565b5050600160009054906101000a900473ffffffffffffffffffffffffffffffffffffffff1673ffffffffffffffffffffffffffffffffffffffff1663674ec0776006600088815260200190815260200160002060010160009054906101000a900473ffffffffffffffffffffffffffffffffffffffff168886866040518563ffffffff167c0100000000000000000000000000000000000000000000000000000000028152600401808573ffffffffffffffffffffffffffffffffffffffff1673ffffffffffffffffffffffffffffffffffffffff1681526020018473ffffffffffffffffffffffffffffffffffffffff1673ffffffffffffffffffffffffffffffffffffffff168152602001838152602001828152602001945050505050600060405180830381600087803b15801561186257600080fd5b505af1158015611876573d6000803e3d6000fd5b5050505095945050505050565b6000809054906101000a900473ffffffffffffffffffffffffffffffffffffffff1673ffffffffffffffffffffffffffffffffffffffff163373ffffffffffffffffffffffffffffffffffffffff161415156118de57600080fd5b600073ffffffffffffffffffffffffffffffffffffffff168173ffffffffffffffffffffffffffffffffffffffff1614151561195557806000806101000a81548173ffffffffffffffffffffffffffffffffffffffff021916908373ffffffffffffffffffffffffffffffffffffffff1602179055505b50565b60006006600085815260200190815260200160002060000160009054906101000a900473ffffffffffffffffffffffffffffffffffffffff1673ffffffffffffffffffffffffffffffffffffffff168573ffffffffffffffffffffffffffffffffffffffff161415156119ca57600080fd5b60056006600086815260200190815260200160002060010160146101000a81548160ff021916908360068111156119fd57fe5b0217905550600160009054906101000a900473ffffffffffffffffffffffffffffffffffffffff1673ffffffffffffffffffffffffffffffffffffffff1663674ec0776006600087815260200190815260200160002060010160009054906101000a900473ffffffffffffffffffffffffffffffffffffffff168786866040518563ffffffff167c0100000000000000000000000000000000000000000000000000000000028152600401808573ffffffffffffffffffffffffffffffffffffffff1673ffffffffffffffffffffffffffffffffffffffff1681526020018473ffffffffffffffffffffffffffffffffffffffff1673ffffffffffffffffffffffffffffffffffffffff168152602001838152602001828152602001945050505050600060405180830381600087803b158015611b3957600080fd5b505af1158015611b4d573d6000803e3d6000fd5b50505050949350505050565b6000808473ffffffffffffffffffffffffffffffffffffffff168673ffffffffffffffffffffffffffffffffffffffff1614151515611b9757600080fd5b600084118015611ba75750600083115b1515611bb257600080fd5b6001600354019050610140604051908101604052808673ffffffffffffffffffffffffffffffffffffffff1681526020018773ffffffffffffffffffffffffffffffffffffffff16815260200160006006811115611c0c57fe5b81526020016000151581526020016000151581526020016005805480602002602001604051908101604052809291908181526020016000905b82821015611d01578382906000526020600020018054600181600116156101000203166002900480601f016020809104026020016040519081016040528092919081815260200182805460018160011615610100020316600290048015611ced5780601f10611cc257610100808354040283529160200191611ced565b820191906000526020600020905b815481529060010190602001808311611cd057829003601f168201915b505050505081526020019060010190611c45565b5050505081526020016005805480602002602001604051908101604052809291908181526020016000905b82821015611de8578382906000526020600020018054600181600116156101000203166002900480601f016020809104026020016040519081016040528092919081815260200182805460018160011615610100020316600290048015611dd45780601f10611da957610100808354040283529160200191611dd4565b820191906000526020600020905b815481529060010190602001808311611db757829003601f168201915b505050505081526020019060010190611d2c565b505050508152602001858152602001848152602001428152506006600083815260200190815260200160002060008201518160000160006101000a81548173ffffffffffffffffffffffffffffffffffffffff021916908373ffffffffffffffffffffffffffffffffffffffff16021790555060208201518160010160006101000a81548173ffffffffffffffffffffffffffffffffffffffff021916908373ffffffffffffffffffffffffffffffffffffffff16021790555060408201518160010160146101000a81548160ff02191690836006811115611ec657fe5b021790555060608201518160010160156101000a81548160ff02191690831515021790555060808201518160010160166101000a81548160ff02191690831515021790555060a0820151816002019080519060200190611f27929190612031565b5060c0820151816003019080519060200190611f44929190612031565b5060e08201518160040155610100820151816005015561012082015181600601559050506001600360008282540192505081905550600481908060018154018082558091505090600182039060005260206000200160009091929091909150555080915050949350505050565b828054600181600116156101000203166002900490600052602060002090601f016020900481019282601f10611ff257805160ff1916838001178555612020565b82800160010185558215612020579182015b8281111561201f578251825591602001919060010190612004565b5b50905061202d9190612091565b5090565b828054828255906000526020600020908101928215612080579160200282015b8281111561207f57825182908051906020019061206f9291906120b6565b5091602001919060010190612051565b5b50905061208d9190612136565b5090565b6120b391905b808211156120af576000816000905550600101612097565b5090565b90565b828054600181600116156101000203166002900490600052602060002090601f016020900481019282601f106120f757805160ff1916838001178555612125565b82800160010185558215612125579182015b82811115612124578251825591602001919060010190612109565b5b5090506121329190612091565b5090565b61215f91905b8082111561215b57600081816121529190612162565b5060010161213c565b5090565b90565b50805460018160011615610100020316600290046000825580601f1061218857506121a7565b601f0160209004906000526020600020908101906121a69190612091565b5b505600a165627a7a72305820a277607f736c1f36c006dd3a8662dcd31f7e3301f5e968ae69bee7f80f9a6fb60029",
  "source": "pragma solidity ^0.4.20;\nimport './interfaces/Pausable.sol';\nimport './BinkabiToken.sol';\n\ncontract BinkabiEscrow is Pausable {\n    enum State {awaiting_payment, awaiting_delivery, delivering, completed, refunding, refunded, cancel}\n\n    BinkabiToken binkabi;\n    address public binkabiTokenAddress;\n\n    constructor(BinkabiToken _binkabiTokenAddress) public {\n        binkabi = BinkabiToken(_binkabiTokenAddress);\n        binkabiTokenAddress = _binkabiTokenAddress;\n    }\n\n    struct Order {\n        address seller;\n        address buyer;\n        State state;\n        bool payment_buyer;\n        bool payment_seller;\n        string[] docs_buyer;\n        string[] docs_seller;\n        uint256 amount_buyer;\n        uint256 amount_seller;\n        uint256 ordered_at;\n    }\n    uint256 public order_id = 0;\n    uint256[] public order_waiting;\n    string[] empty_arr;\n\n    mapping (uint256 => Order) orders;\n\n    function createOrder(address _buyer, address _seller, uint256 _amount_buyer, uint256 _amount_seller) public returns(uint256) {\n        require(_buyer != _seller);\n        require(_amount_buyer > 0 && _amount_seller > 0);\n        uint256 _order_id = order_id + 1;\n\n        orders[_order_id] = Order({\n            seller: _seller,\n            buyer: _buyer,\n            state: State.awaiting_payment,\n            payment_buyer: false,\n            payment_seller: false,\n            docs_buyer: empty_arr,\n            docs_seller: empty_arr,\n            amount_buyer: _amount_buyer,\n            amount_seller: _amount_seller,\n            ordered_at: now\n        });\n        order_id += 1;\n        order_waiting.push(_order_id);\n\n        return _order_id;\n    }\n\n    function getBuyerOrder(uint256 _order_id) public view returns(address) {\n        address _buyer = orders[_order_id].buyer;\n        return _buyer;\n    }\n\n    function getSellerOrder(uint256 _order_id) public view returns(address) {\n        address _seller = orders[_order_id].seller;\n        return _seller;\n    }  \n\n    function cancelOrder(uint256 _order_id, address _from, uint256 _refund_buyer, uint256 _refund_seller) public {        \n        require(orders[_order_id].seller == _from || orders[_order_id].buyer == _from);\n        orders[_order_id].state = State.cancel;\n\n        if (_refund_buyer > 0 || _refund_seller > 0){\n            binkabi.escrow(orders[_order_id].buyer, orders[_order_id].seller, _refund_buyer, _refund_seller);\n        }\n        \n    }\n\n    function getOrderState(uint256 _order_id) public view returns(State) {        \n        return orders[_order_id].state;\n    }\n\n    function updatePayment(address _from, uint256 _amount) public {\n        require(msg.sender == binkabiTokenAddress);\n        for (uint256 i = 0; i < order_waiting.length; i++) {\n            if (orders[order_waiting[i]].buyer == _from && orders[order_waiting[i]].amount_buyer == _amount){\n                orders[order_waiting[i]].payment_buyer = true;\n                if (orders[order_waiting[i]].payment_seller == true){\n                    orders[order_waiting[i]].state = State.awaiting_delivery;\n                    delete order_waiting[i];\n                }\n                break;\n            } else if (orders[order_waiting[i]].buyer == _from && orders[order_waiting[i]].amount_buyer == _amount){\n                orders[order_waiting[i]].payment_buyer = true;\n                if (orders[order_waiting[i]].payment_seller == true){\n                    orders[order_waiting[i]].state = State.awaiting_delivery;\n                    delete order_waiting[i];\n                }\n                break;\n            }\n        }\n    }\n\n    function refundingOrder(address _from, uint256 _order_id, string _hash) public {\n        require(_from == orders[_order_id].buyer);\n        orders[_order_id].state = State.refunding;\n        orders[_order_id].docs_buyer.push(_hash);\n\n    }\n\n    function refundedOrder(address _from, uint256 _order_id, uint256 _amount_buyer, uint256 _amount_seller) public returns (bool) {\n        require(_from == orders[_order_id].seller);\n        orders[_order_id].state = State.refunded;\n        binkabi.escrow(orders[_order_id].buyer, _from, _amount_buyer, _amount_seller);\n    }\n\n    function deliverOrder(address _from, uint256 _order_id, string _hash) public {\n        require(_from == orders[_order_id].seller);\n        orders[_order_id].state = State.delivering;   \n        orders[_order_id].docs_seller.push(_hash);\n    }\n\n    function completedOrder(address _from, uint256 _order_id, string _hash, uint256 _amount_buyer, uint256 _amount_seller) public returns (bool) {\n        require(_from == orders[_order_id].buyer);\n        orders[_order_id].state = State.completed;          \n        orders[_order_id].docs_buyer.push(_hash);\n\n        binkabi.escrow(orders[_order_id].buyer, _from, _amount_buyer, _amount_seller);        \n    }\n\n    function uploadDocument(address _from, uint256 _order_id, string _hash) public {\n        require(_from == orders[_order_id].buyer || _from == orders[_order_id].seller);\n\n        if (_from == orders[_order_id].buyer){\n            orders[_order_id].docs_buyer.push(_hash);\n        } else if (_from == orders[_order_id].seller) {\n            orders[_order_id].docs_seller.push(_hash);\n        }\n    }\n\n    \n\n\n\n\n\n\n}",
  "sourcePath": "/home/vagrant/projects/tomo/binkabi-ico/server/contracts/contracts/BinkabiEscrow.sol",
  "compiler": {
    "name": "solc",
    "version": "0.4.24+commit.e67f0147.Emscripten.clang"
  },
  "schemaVersion": "2.0.0",
  "updatedAt": "2018-05-30T03:19:03.094Z"
}