{
  "contractName": "BinkabiEscrow",
  "abi": [
    {
      "constant": false,
      "inputs": [],
      "name": "unpause",
      "outputs": [
        {
          "name": "",
          "type": "bool"
        }
      ],
      "payable": false,
      "stateMutability": "nonpayable",
      "type": "function"
    },
    {
      "constant": true,
      "inputs": [],
      "name": "paused",
      "outputs": [
        {
          "name": "",
          "type": "bool"
        }
      ],
      "payable": false,
      "stateMutability": "view",
      "type": "function"
    },
    {
      "constant": false,
      "inputs": [],
      "name": "pause",
      "outputs": [
        {
          "name": "",
          "type": "bool"
        }
      ],
      "payable": false,
      "stateMutability": "nonpayable",
      "type": "function"
    },
    {
      "constant": true,
      "inputs": [],
      "name": "owner",
      "outputs": [
        {
          "name": "",
          "type": "address"
        }
      ],
      "payable": false,
      "stateMutability": "view",
      "type": "function"
    },
    {
      "constant": true,
      "inputs": [],
      "name": "order_id",
      "outputs": [
        {
          "name": "",
          "type": "uint256"
        }
      ],
      "payable": false,
      "stateMutability": "view",
      "type": "function"
    },
    {
      "constant": true,
      "inputs": [
        {
          "name": "",
          "type": "uint256"
        }
      ],
      "name": "order_waiting",
      "outputs": [
        {
          "name": "",
          "type": "uint256"
        }
      ],
      "payable": false,
      "stateMutability": "view",
      "type": "function"
    },
    {
      "constant": false,
      "inputs": [
        {
          "name": "newOwner",
          "type": "address"
        }
      ],
      "name": "transferOwnership",
      "outputs": [],
      "payable": false,
      "stateMutability": "nonpayable",
      "type": "function"
    },
    {
      "inputs": [
        {
          "name": "_binkabiTokenAddress",
          "type": "address"
        }
      ],
      "payable": false,
      "stateMutability": "nonpayable",
      "type": "constructor"
    },
    {
      "anonymous": false,
      "inputs": [],
      "name": "Pause",
      "type": "event"
    },
    {
      "anonymous": false,
      "inputs": [],
      "name": "Unpause",
      "type": "event"
    },
    {
      "constant": false,
      "inputs": [
        {
          "name": "_buyer",
          "type": "address"
        },
        {
          "name": "_seller",
          "type": "address"
        },
        {
          "name": "_amount_buyer",
          "type": "uint256"
        },
        {
          "name": "_amount_seller",
          "type": "uint256"
        }
      ],
      "name": "createOrder",
      "outputs": [
        {
          "name": "",
          "type": "uint256"
        }
      ],
      "payable": false,
      "stateMutability": "nonpayable",
      "type": "function"
    },
    {
      "constant": true,
      "inputs": [
        {
          "name": "_order_id",
          "type": "uint256"
        }
      ],
      "name": "getBuyerOrder",
      "outputs": [
        {
          "name": "",
          "type": "address"
        }
      ],
      "payable": false,
      "stateMutability": "view",
      "type": "function"
    },
    {
      "constant": true,
      "inputs": [
        {
          "name": "_order_id",
          "type": "uint256"
        }
      ],
      "name": "getSellerOrder",
      "outputs": [
        {
          "name": "",
          "type": "address"
        }
      ],
      "payable": false,
      "stateMutability": "view",
      "type": "function"
    },
    {
      "constant": false,
      "inputs": [
        {
          "name": "_order_id",
          "type": "uint256"
        },
        {
          "name": "_from",
          "type": "address"
        },
        {
          "name": "_refund_buyer",
          "type": "uint256"
        },
        {
          "name": "_refund_seller",
          "type": "uint256"
        }
      ],
      "name": "cancelOrder",
      "outputs": [],
      "payable": false,
      "stateMutability": "nonpayable",
      "type": "function"
    },
    {
      "constant": true,
      "inputs": [
        {
          "name": "_order_id",
          "type": "uint256"
        }
      ],
      "name": "getOrderState",
      "outputs": [
        {
          "name": "",
          "type": "uint8"
        }
      ],
      "payable": false,
      "stateMutability": "view",
      "type": "function"
    },
    {
      "constant": false,
      "inputs": [
        {
          "name": "_from",
          "type": "address"
        },
        {
          "name": "_amount",
          "type": "uint256"
        }
      ],
      "name": "updatePayment",
      "outputs": [],
      "payable": false,
      "stateMutability": "nonpayable",
      "type": "function"
    },
    {
      "constant": false,
      "inputs": [
        {
          "name": "_from",
          "type": "address"
        },
        {
          "name": "_order_id",
          "type": "uint256"
        },
        {
          "name": "_hash",
          "type": "string"
        }
      ],
      "name": "refundingOrder",
      "outputs": [],
      "payable": false,
      "stateMutability": "nonpayable",
      "type": "function"
    },
    {
      "constant": false,
      "inputs": [
        {
          "name": "_from",
          "type": "address"
        },
        {
          "name": "_order_id",
          "type": "uint256"
        },
        {
          "name": "_amount_buyer",
          "type": "uint256"
        },
        {
          "name": "_amount_seller",
          "type": "uint256"
        }
      ],
      "name": "refundedOrder",
      "outputs": [
        {
          "name": "",
          "type": "bool"
        }
      ],
      "payable": false,
      "stateMutability": "nonpayable",
      "type": "function"
    },
    {
      "constant": false,
      "inputs": [
        {
          "name": "_from",
          "type": "address"
        },
        {
          "name": "_order_id",
          "type": "uint256"
        },
        {
          "name": "_hash",
          "type": "string"
        }
      ],
      "name": "deliverOrder",
      "outputs": [],
      "payable": false,
      "stateMutability": "nonpayable",
      "type": "function"
    },
    {
      "constant": false,
      "inputs": [
        {
          "name": "_from",
          "type": "address"
        },
        {
          "name": "_order_id",
          "type": "uint256"
        },
        {
          "name": "_hash",
          "type": "string"
        },
        {
          "name": "_amount_buyer",
          "type": "uint256"
        },
        {
          "name": "_amount_seller",
          "type": "uint256"
        }
      ],
      "name": "completedOrder",
      "outputs": [
        {
          "name": "",
          "type": "bool"
        }
      ],
      "payable": false,
      "stateMutability": "nonpayable",
      "type": "function"
    },
    {
      "constant": false,
      "inputs": [
        {
          "name": "_from",
          "type": "address"
        },
        {
          "name": "_order_id",
          "type": "uint256"
        },
        {
          "name": "_hash",
          "type": "string"
        }
      ],
      "name": "uploadDocument",
      "outputs": [],
      "payable": false,
      "stateMutability": "nonpayable",
      "type": "function"
    }
  ],
  "bytecode": "0x608060405260008060146101000a81548160ff021916908315150217905550600060025534801561002f57600080fd5b506040516020806121d483398101806040528101908080519060200190929190505050336000806101000a81548173ffffffffffffffffffffffffffffffffffffffff021916908373ffffffffffffffffffffffffffffffffffffffff16021790555080600160006101000a81548173ffffffffffffffffffffffffffffffffffffffff021916908373ffffffffffffffffffffffffffffffffffffffff160217905550506120f1806100e36000396000f3006080604052600436106100fc576000357c0100000000000000000000000000000000000000000000000000000000900463ffffffff168063164864c21461010157806321c0aa2e1461016e5780633f4ba83a146102015780635c975abb1461023057806376bc085b1461025f578063810bd6af146102f25780638456cb59146103415780638da5cb5b146103705780638e13d35e146103c7578063976023ed1461042857806398506fa3146104bb578063b6d5ce4e14610528578063b979142514610575578063dc7ed73e146105a0578063ef645473146105e1578063f2fde38b146106a0578063f3598fd5146106e3578063fe8799181461075c575b600080fd5b34801561010d57600080fd5b5061012c600480360381019080803590602001909291905050506107e7565b604051808273ffffffffffffffffffffffffffffffffffffffff1673ffffffffffffffffffffffffffffffffffffffff16815260200191505060405180910390f35b34801561017a57600080fd5b506101ff600480360381019080803573ffffffffffffffffffffffffffffffffffffffff16906020019092919080359060200190929190803590602001908201803590602001908080601f016020809104026020016040519081016040528093929190818152602001838380828437820191505050505050919291929050505061082c565b005b34801561020d57600080fd5b50610216610a8e565b604051808215151515815260200191505060405180910390f35b34801561023c57600080fd5b50610245610b53565b604051808215151515815260200191505060405180910390f35b34801561026b57600080fd5b506102f0600480360381019080803573ffffffffffffffffffffffffffffffffffffffff16906020019092919080359060200190929190803590602001908201803590602001908080601f0160208091040260200160405190810160405280939291908181526020018383808284378201915050505050509192919290505050610b66565b005b3480156102fe57600080fd5b5061031d60048036038101908080359060200190929190505050610c66565b6040518082600681111561032d57fe5b60ff16815260200191505060405180910390f35b34801561034d57600080fd5b50610356610c93565b604051808215151515815260200191505060405180910390f35b34801561037c57600080fd5b50610385610d5a565b604051808273ffffffffffffffffffffffffffffffffffffffff1673ffffffffffffffffffffffffffffffffffffffff16815260200191505060405180910390f35b3480156103d357600080fd5b5061042660048036038101908080359060200190929190803573ffffffffffffffffffffffffffffffffffffffff1690602001909291908035906020019092919080359060200190929190505050610d7f565b005b34801561043457600080fd5b506104b9600480360381019080803573ffffffffffffffffffffffffffffffffffffffff16906020019092919080359060200190929190803590602001908201803590602001908080601f0160208091040260200160405190810160405280939291908181526020018383808284378201915050505050509192919290505050611033565b005b3480156104c757600080fd5b506104e660048036038101908080359060200190929190505050611133565b604051808273ffffffffffffffffffffffffffffffffffffffff1673ffffffffffffffffffffffffffffffffffffffff16815260200191505060405180910390f35b34801561053457600080fd5b50610573600480360381019080803573ffffffffffffffffffffffffffffffffffffffff16906020019092919080359060200190929190505050611178565b005b34801561058157600080fd5b5061058a611521565b6040518082815260200191505060405180910390f35b3480156105ac57600080fd5b506105cb60048036038101908080359060200190929190505050611527565b6040518082815260200191505060405180910390f35b3480156105ed57600080fd5b50610686600480360381019080803573ffffffffffffffffffffffffffffffffffffffff16906020019092919080359060200190929190803590602001908201803590602001908080601f0160208091040260200160405190810160405280939291908181526020018383808284378201915050505050509192919290803590602001909291908035906020019092919050505061154a565b604051808215151515815260200191505060405180910390f35b3480156106ac57600080fd5b506106e1600480360381019080803573ffffffffffffffffffffffffffffffffffffffff16906020019092919050505061179f565b005b3480156106ef57600080fd5b50610742600480360381019080803573ffffffffffffffffffffffffffffffffffffffff169060200190929190803590602001909291908035906020019092919080359060200190929190505050611874565b604051808215151515815260200191505060405180910390f35b34801561076857600080fd5b506107d1600480360381019080803573ffffffffffffffffffffffffffffffffffffffff169060200190929190803573ffffffffffffffffffffffffffffffffffffffff1690602001909291908035906020019092919080359060200190929190505050611a74565b6040518082815260200191505060405180910390f35b6000806005600084815260200190815260200160002060010160009054906101000a900473ffffffffffffffffffffffffffffffffffffffff16905080915050919050565b6005600083815260200190815260200160002060010160009054906101000a900473ffffffffffffffffffffffffffffffffffffffff1673ffffffffffffffffffffffffffffffffffffffff168373ffffffffffffffffffffffffffffffffffffffff1614806108fd57506005600083815260200190815260200160002060000160009054906101000a900473ffffffffffffffffffffffffffffffffffffffff1673ffffffffffffffffffffffffffffffffffffffff168373ffffffffffffffffffffffffffffffffffffffff16145b151561090857600080fd5b6005600083815260200190815260200160002060010160009054906101000a900473ffffffffffffffffffffffffffffffffffffffff1673ffffffffffffffffffffffffffffffffffffffff168373ffffffffffffffffffffffffffffffffffffffff1614156109ca57600560008381526020019081526020016000206002018190806001815401808255809150509060018203906000526020600020016000909192909190915090805190602001906109c3929190611ecc565b5050610a89565b6005600083815260200190815260200160002060000160009054906101000a900473ffffffffffffffffffffffffffffffffffffffff1673ffffffffffffffffffffffffffffffffffffffff168373ffffffffffffffffffffffffffffffffffffffff161415610a885760056000838152602001908152602001600020600301819080600181540180825580915050906001820390600052602060002001600090919290919091509080519060200190610a85929190611ecc565b50505b5b505050565b60008060009054906101000a900473ffffffffffffffffffffffffffffffffffffffff1673ffffffffffffffffffffffffffffffffffffffff163373ffffffffffffffffffffffffffffffffffffffff16141515610aeb57600080fd5b600060149054906101000a900460ff161515610b0657600080fd5b60008060146101000a81548160ff0219169083151502179055507f7805862f689e2f13df9f062ff482ad3ad112aca9e0847911ed832e158c525b3360405160405180910390a16001905090565b600060149054906101000a900460ff1681565b6005600083815260200190815260200160002060010160009054906101000a900473ffffffffffffffffffffffffffffffffffffffff1673ffffffffffffffffffffffffffffffffffffffff168373ffffffffffffffffffffffffffffffffffffffff16141515610bd657600080fd5b60046005600084815260200190815260200160002060010160146101000a81548160ff02191690836006811115610c0957fe5b021790555060056000838152602001908152602001600020600201819080600181540180825580915050906001820390600052602060002001600090919290919091509080519060200190610c5f929190611ecc565b5050505050565b60006005600083815260200190815260200160002060010160149054906101000a900460ff169050919050565b60008060009054906101000a900473ffffffffffffffffffffffffffffffffffffffff1673ffffffffffffffffffffffffffffffffffffffff163373ffffffffffffffffffffffffffffffffffffffff16141515610cf057600080fd5b600060149054906101000a900460ff16151515610d0c57600080fd5b6001600060146101000a81548160ff0219169083151502179055507f6985a02210a168e66602d3235cb6db0e70f92b3ba4d376a33c0f3d9434bff62560405160405180910390a16001905090565b6000809054906101000a900473ffffffffffffffffffffffffffffffffffffffff1681565b8273ffffffffffffffffffffffffffffffffffffffff166005600086815260200190815260200160002060000160009054906101000a900473ffffffffffffffffffffffffffffffffffffffff1673ffffffffffffffffffffffffffffffffffffffff161480610e5057508273ffffffffffffffffffffffffffffffffffffffff166005600086815260200190815260200160002060010160009054906101000a900473ffffffffffffffffffffffffffffffffffffffff1673ffffffffffffffffffffffffffffffffffffffff16145b1515610e5b57600080fd5b60066005600086815260200190815260200160002060010160146101000a81548160ff02191690836006811115610e8e57fe5b02179055506000821180610ea25750600081115b1561102d57600160009054906101000a900473ffffffffffffffffffffffffffffffffffffffff1673ffffffffffffffffffffffffffffffffffffffff1663674ec0776005600087815260200190815260200160002060010160009054906101000a900473ffffffffffffffffffffffffffffffffffffffff166005600088815260200190815260200160002060000160009054906101000a900473ffffffffffffffffffffffffffffffffffffffff1685856040518563ffffffff167c0100000000000000000000000000000000000000000000000000000000028152600401808573ffffffffffffffffffffffffffffffffffffffff1673ffffffffffffffffffffffffffffffffffffffff1681526020018473ffffffffffffffffffffffffffffffffffffffff1673ffffffffffffffffffffffffffffffffffffffff168152602001838152602001828152602001945050505050600060405180830381600087803b15801561101457600080fd5b505af1158015611028573d6000803e3d6000fd5b505050505b50505050565b6005600083815260200190815260200160002060000160009054906101000a900473ffffffffffffffffffffffffffffffffffffffff1673ffffffffffffffffffffffffffffffffffffffff168373ffffffffffffffffffffffffffffffffffffffff161415156110a357600080fd5b60026005600084815260200190815260200160002060010160146101000a81548160ff021916908360068111156110d657fe5b02179055506005600083815260200190815260200160002060030181908060018154018082558091505090600182039060005260206000200160009091929091909150908051906020019061112c929190611ecc565b5050505050565b6000806005600084815260200190815260200160002060000160009054906101000a900473ffffffffffffffffffffffffffffffffffffffff16905080915050919050565b60008090505b60038054905081101561151c578273ffffffffffffffffffffffffffffffffffffffff16600560006003848154811015156111b557fe5b9060005260206000200154815260200190815260200160002060010160009054906101000a900473ffffffffffffffffffffffffffffffffffffffff1673ffffffffffffffffffffffffffffffffffffffff161480156112435750816005600060038481548110151561122457fe5b9060005260206000200154815260200190815260200160002060040154145b1561134d5760016005600060038481548110151561125d57fe5b9060005260206000200154815260200190815260200160002060010160156101000a81548160ff02191690831515021790555060011515600560006003848154811015156112a757fe5b9060005260206000200154815260200190815260200160002060010160169054906101000a900460ff1615151415611348576001600560006003848154811015156112ee57fe5b9060005260206000200154815260200190815260200160002060010160146101000a81548160ff0219169083600681111561132557fe5b021790555060038181548110151561133957fe5b90600052602060002001600090555b61151c565b8273ffffffffffffffffffffffffffffffffffffffff166005600060038481548110151561137757fe5b9060005260206000200154815260200190815260200160002060010160009054906101000a900473ffffffffffffffffffffffffffffffffffffffff1673ffffffffffffffffffffffffffffffffffffffff16148015611405575081600560006003848154811015156113e657fe5b9060005260206000200154815260200190815260200160002060040154145b1561150f5760016005600060038481548110151561141f57fe5b9060005260206000200154815260200190815260200160002060010160156101000a81548160ff021916908315150217905550600115156005600060038481548110151561146957fe5b9060005260206000200154815260200190815260200160002060010160169054906101000a900460ff161515141561150a576001600560006003848154811015156114b057fe5b9060005260206000200154815260200190815260200160002060010160146101000a81548160ff021916908360068111156114e757fe5b02179055506003818154811015156114fb57fe5b90600052602060002001600090555b61151c565b808060010191505061117e565b505050565b60025481565b60038181548110151561153657fe5b906000526020600020016000915090505481565b60006005600086815260200190815260200160002060010160009054906101000a900473ffffffffffffffffffffffffffffffffffffffff1673ffffffffffffffffffffffffffffffffffffffff168673ffffffffffffffffffffffffffffffffffffffff161415156115bc57600080fd5b60036005600087815260200190815260200160002060010160146101000a81548160ff021916908360068111156115ef57fe5b021790555060056000868152602001908152602001600020600201849080600181540180825580915050906001820390600052602060002001600090919290919091509080519060200190611645929190611ecc565b5050600160009054906101000a900473ffffffffffffffffffffffffffffffffffffffff1673ffffffffffffffffffffffffffffffffffffffff1663674ec0776005600088815260200190815260200160002060010160009054906101000a900473ffffffffffffffffffffffffffffffffffffffff168886866040518563ffffffff167c0100000000000000000000000000000000000000000000000000000000028152600401808573ffffffffffffffffffffffffffffffffffffffff1673ffffffffffffffffffffffffffffffffffffffff1681526020018473ffffffffffffffffffffffffffffffffffffffff1673ffffffffffffffffffffffffffffffffffffffff168152602001838152602001828152602001945050505050600060405180830381600087803b15801561177e57600080fd5b505af1158015611792573d6000803e3d6000fd5b5050505095945050505050565b6000809054906101000a900473ffffffffffffffffffffffffffffffffffffffff1673ffffffffffffffffffffffffffffffffffffffff163373ffffffffffffffffffffffffffffffffffffffff161415156117fa57600080fd5b600073ffffffffffffffffffffffffffffffffffffffff168173ffffffffffffffffffffffffffffffffffffffff1614151561187157806000806101000a81548173ffffffffffffffffffffffffffffffffffffffff021916908373ffffffffffffffffffffffffffffffffffffffff1602179055505b50565b60006005600085815260200190815260200160002060000160009054906101000a900473ffffffffffffffffffffffffffffffffffffffff1673ffffffffffffffffffffffffffffffffffffffff168573ffffffffffffffffffffffffffffffffffffffff161415156118e657600080fd5b600580600086815260200190815260200160002060010160146101000a81548160ff0219169083600681111561191857fe5b0217905550600160009054906101000a900473ffffffffffffffffffffffffffffffffffffffff1673ffffffffffffffffffffffffffffffffffffffff1663674ec0776005600087815260200190815260200160002060010160009054906101000a900473ffffffffffffffffffffffffffffffffffffffff168786866040518563ffffffff167c0100000000000000000000000000000000000000000000000000000000028152600401808573ffffffffffffffffffffffffffffffffffffffff1673ffffffffffffffffffffffffffffffffffffffff1681526020018473ffffffffffffffffffffffffffffffffffffffff1673ffffffffffffffffffffffffffffffffffffffff168152602001838152602001828152602001945050505050600060405180830381600087803b158015611a5457600080fd5b505af1158015611a68573d6000803e3d6000fd5b50505050949350505050565b6000808473ffffffffffffffffffffffffffffffffffffffff168673ffffffffffffffffffffffffffffffffffffffff1614151515611ab257600080fd5b600084118015611ac25750600083115b1515611acd57600080fd5b6001600254019050610140604051908101604052808673ffffffffffffffffffffffffffffffffffffffff1681526020018773ffffffffffffffffffffffffffffffffffffffff16815260200160006006811115611b2757fe5b81526020016000151581526020016000151581526020016004805480602002602001604051908101604052809291908181526020016000905b82821015611c1c578382906000526020600020018054600181600116156101000203166002900480601f016020809104026020016040519081016040528092919081815260200182805460018160011615610100020316600290048015611c085780601f10611bdd57610100808354040283529160200191611c08565b820191906000526020600020905b815481529060010190602001808311611beb57829003601f168201915b505050505081526020019060010190611b60565b5050505081526020016004805480602002602001604051908101604052809291908181526020016000905b82821015611d03578382906000526020600020018054600181600116156101000203166002900480601f016020809104026020016040519081016040528092919081815260200182805460018160011615610100020316600290048015611cef5780601f10611cc457610100808354040283529160200191611cef565b820191906000526020600020905b815481529060010190602001808311611cd257829003601f168201915b505050505081526020019060010190611c47565b505050508152602001858152602001848152602001428152506005600083815260200190815260200160002060008201518160000160006101000a81548173ffffffffffffffffffffffffffffffffffffffff021916908373ffffffffffffffffffffffffffffffffffffffff16021790555060208201518160010160006101000a81548173ffffffffffffffffffffffffffffffffffffffff021916908373ffffffffffffffffffffffffffffffffffffffff16021790555060408201518160010160146101000a81548160ff02191690836006811115611de157fe5b021790555060608201518160010160156101000a81548160ff02191690831515021790555060808201518160010160166101000a81548160ff02191690831515021790555060a0820151816002019080519060200190611e42929190611f4c565b5060c0820151816003019080519060200190611e5f929190611f4c565b5060e08201518160040155610100820151816005015561012082015181600601559050506001600260008282540192505081905550600381908060018154018082558091505090600182039060005260206000200160009091929091909150555080915050949350505050565b828054600181600116156101000203166002900490600052602060002090601f016020900481019282601f10611f0d57805160ff1916838001178555611f3b565b82800160010185558215611f3b579182015b82811115611f3a578251825591602001919060010190611f1f565b5b509050611f489190611fac565b5090565b828054828255906000526020600020908101928215611f9b579160200282015b82811115611f9a578251829080519060200190611f8a929190611fd1565b5091602001919060010190611f6c565b5b509050611fa89190612051565b5090565b611fce91905b80821115611fca576000816000905550600101611fb2565b5090565b90565b828054600181600116156101000203166002900490600052602060002090601f016020900481019282601f1061201257805160ff1916838001178555612040565b82800160010185558215612040579182015b8281111561203f578251825591602001919060010190612024565b5b50905061204d9190611fac565b5090565b61207a91905b80821115612076576000818161206d919061207d565b50600101612057565b5090565b90565b50805460018160011615610100020316600290046000825580601f106120a357506120c2565b601f0160209004906000526020600020908101906120c19190611fac565b5b505600a165627a7a72305820f5108cc539777d092736e23ea61c3994c9c3eaba9267d180bd75a741d4ebac1d0029",
  "source": "pragma solidity ^0.4.20;\nimport './interfaces/Pausable.sol';\nimport './BinkabiToken.sol';\n\ncontract BinkabiEscrow is Pausable {\n    enum State {awaiting_payment, awaiting_delivery, delivering, completed, refunding, refunded, cancel}\n\n    BinkabiToken binkabi;\n\n    constructor(BinkabiToken _binkabiTokenAddress) public {\n        binkabi = BinkabiToken(_binkabiTokenAddress);\n    }\n\n    struct Order {\n        address seller;\n        address buyer;\n        State state;\n        bool payment_buyer;\n        bool payment_seller;\n        string[] docs_buyer;\n        string[] docs_seller;\n        uint256 amount_buyer;\n        uint256 amount_seller;\n        uint256 ordered_at;\n    }\n    uint256 public order_id = 0;\n    uint256[] public order_waiting;\n    string[] empty_arr;\n\n    mapping (uint256 => Order) orders;\n\n    function createOrder(address _buyer, address _seller, uint256 _amount_buyer, uint256 _amount_seller) public returns(uint256) {\n        require(_buyer != _seller);\n        require(_amount_buyer > 0 && _amount_seller > 0);\n        uint256 _order_id = order_id + 1;\n\n        orders[_order_id] = Order({\n            seller: _seller,\n            buyer: _buyer,\n            state: State.awaiting_payment,\n            payment_buyer: false,\n            payment_seller: false,\n            docs_buyer: empty_arr,\n            docs_seller: empty_arr,\n            amount_buyer: _amount_buyer,\n            amount_seller: _amount_seller,\n            ordered_at: now\n        });\n        order_id += 1;\n        order_waiting.push(_order_id);\n\n        return _order_id;\n    }\n\n    function getBuyerOrder(uint256 _order_id) public view returns(address) {\n        address _buyer = orders[_order_id].buyer;\n        return _buyer;\n    }\n\n    function getSellerOrder(uint256 _order_id) public view returns(address) {\n        address _seller = orders[_order_id].seller;\n        return _seller;\n    }  \n\n    function cancelOrder(uint256 _order_id, address _from, uint256 _refund_buyer, uint256 _refund_seller) public {        \n        require(orders[_order_id].seller == _from || orders[_order_id].buyer == _from);\n        orders[_order_id].state = State.cancel;\n\n        if (_refund_buyer > 0 || _refund_seller > 0){\n            binkabi.escrow(orders[_order_id].buyer, orders[_order_id].seller, _refund_buyer, _refund_seller);\n        }\n        \n    }\n\n    function getOrderState(uint256 _order_id) public view returns(State) {        \n        return orders[_order_id].state;\n    }\n\n    function updatePayment(address _from, uint256 _amount) public {\n        for (uint256 i = 0; i < order_waiting.length; i++) {\n            if (orders[order_waiting[i]].buyer == _from && orders[order_waiting[i]].amount_buyer == _amount){\n                orders[order_waiting[i]].payment_buyer = true;\n                if (orders[order_waiting[i]].payment_seller == true){\n                    orders[order_waiting[i]].state = State.awaiting_delivery;\n                    delete order_waiting[i];\n                }\n                break;\n            } else if (orders[order_waiting[i]].buyer == _from && orders[order_waiting[i]].amount_buyer == _amount){\n                orders[order_waiting[i]].payment_buyer = true;\n                if (orders[order_waiting[i]].payment_seller == true){\n                    orders[order_waiting[i]].state = State.awaiting_delivery;\n                    delete order_waiting[i];\n                }\n                break;\n            }\n        }\n    }\n\n    function refundingOrder(address _from, uint256 _order_id, string _hash) public {\n        require(_from == orders[_order_id].buyer);\n        orders[_order_id].state = State.refunding;\n        orders[_order_id].docs_buyer.push(_hash);\n\n    }\n\n    function refundedOrder(address _from, uint256 _order_id, uint256 _amount_buyer, uint256 _amount_seller) public returns (bool) {\n        require(_from == orders[_order_id].seller);\n        orders[_order_id].state = State.refunded;\n        binkabi.escrow(orders[_order_id].buyer, _from, _amount_buyer, _amount_seller);\n    }\n\n    function deliverOrder(address _from, uint256 _order_id, string _hash) public {\n        require(_from == orders[_order_id].seller);\n        orders[_order_id].state = State.delivering;   \n        orders[_order_id].docs_seller.push(_hash);\n    }\n\n    function completedOrder(address _from, uint256 _order_id, string _hash, uint256 _amount_buyer, uint256 _amount_seller) public returns (bool) {\n        require(_from == orders[_order_id].buyer);\n        orders[_order_id].state = State.completed;          \n        orders[_order_id].docs_buyer.push(_hash);\n\n        binkabi.escrow(orders[_order_id].buyer, _from, _amount_buyer, _amount_seller);        \n    }\n\n    function uploadDocument(address _from, uint256 _order_id, string _hash) public {\n        require(_from == orders[_order_id].buyer || _from == orders[_order_id].seller);\n\n        if (_from == orders[_order_id].buyer){\n            orders[_order_id].docs_buyer.push(_hash);\n        } else if (_from == orders[_order_id].seller) {\n            orders[_order_id].docs_seller.push(_hash);\n        }\n    }\n\n    \n\n\n\n\n\n\n}",
  "sourcePath": "/mnt/f/xenial/project/tomo/binkabi/server/contracts/contracts/BinkabiEscrow.sol",
  "compiler": {
    "name": "solc",
    "version": "0.4.23+commit.124ca40d.Emscripten.clang"
  },
  "schemaVersion": "2.0.0",
  "updatedAt": "2018-05-21T11:24:53.810Z"
}