{
  "contractName": "BinkabiMembership",
  "abi": [
    {
      "constant": true,
      "inputs": [
        {
          "name": "",
          "type": "address"
        }
      ],
      "name": "members",
      "outputs": [
        {
          "name": "email",
          "type": "string"
        },
        {
          "name": "amount",
          "type": "uint256"
        },
        {
          "name": "isActive",
          "type": "bool"
        },
        {
          "name": "blockActive",
          "type": "uint256"
        },
        {
          "name": "createdAt",
          "type": "uint256"
        }
      ],
      "payable": false,
      "stateMutability": "view",
      "type": "function"
    },
    {
      "constant": true,
      "inputs": [
        {
          "name": "",
          "type": "address"
        }
      ],
      "name": "memberActive",
      "outputs": [
        {
          "name": "",
          "type": "uint256"
        }
      ],
      "payable": false,
      "stateMutability": "view",
      "type": "function"
    },
    {
      "constant": false,
      "inputs": [],
      "name": "unpause",
      "outputs": [
        {
          "name": "",
          "type": "bool"
        }
      ],
      "payable": false,
      "stateMutability": "nonpayable",
      "type": "function"
    },
    {
      "constant": true,
      "inputs": [],
      "name": "binkabiTokenAddress",
      "outputs": [
        {
          "name": "",
          "type": "address"
        }
      ],
      "payable": false,
      "stateMutability": "view",
      "type": "function"
    },
    {
      "constant": true,
      "inputs": [],
      "name": "paused",
      "outputs": [
        {
          "name": "",
          "type": "bool"
        }
      ],
      "payable": false,
      "stateMutability": "view",
      "type": "function"
    },
    {
      "constant": true,
      "inputs": [
        {
          "name": "",
          "type": "uint256"
        }
      ],
      "name": "emails",
      "outputs": [
        {
          "name": "",
          "type": "string"
        }
      ],
      "payable": false,
      "stateMutability": "view",
      "type": "function"
    },
    {
      "constant": false,
      "inputs": [],
      "name": "pause",
      "outputs": [
        {
          "name": "",
          "type": "bool"
        }
      ],
      "payable": false,
      "stateMutability": "nonpayable",
      "type": "function"
    },
    {
      "constant": true,
      "inputs": [],
      "name": "owner",
      "outputs": [
        {
          "name": "",
          "type": "address"
        }
      ],
      "payable": false,
      "stateMutability": "view",
      "type": "function"
    },
    {
      "constant": false,
      "inputs": [
        {
          "name": "newOwner",
          "type": "address"
        }
      ],
      "name": "transferOwnership",
      "outputs": [],
      "payable": false,
      "stateMutability": "nonpayable",
      "type": "function"
    },
    {
      "inputs": [
        {
          "name": "_binkabiTokenAddress",
          "type": "address"
        }
      ],
      "payable": false,
      "stateMutability": "nonpayable",
      "type": "constructor"
    },
    {
      "anonymous": false,
      "inputs": [
        {
          "indexed": false,
          "name": "_holder",
          "type": "address"
        },
        {
          "indexed": false,
          "name": "_amount",
          "type": "uint256"
        }
      ],
      "name": "Withdrawal",
      "type": "event"
    },
    {
      "anonymous": false,
      "inputs": [
        {
          "indexed": false,
          "name": "_holder",
          "type": "address"
        },
        {
          "indexed": false,
          "name": "_amount",
          "type": "uint256"
        }
      ],
      "name": "Active",
      "type": "event"
    },
    {
      "anonymous": false,
      "inputs": [
        {
          "indexed": false,
          "name": "_member",
          "type": "address"
        },
        {
          "indexed": false,
          "name": "_email",
          "type": "string"
        }
      ],
      "name": "Register",
      "type": "event"
    },
    {
      "anonymous": false,
      "inputs": [],
      "name": "Pause",
      "type": "event"
    },
    {
      "anonymous": false,
      "inputs": [],
      "name": "Unpause",
      "type": "event"
    },
    {
      "constant": false,
      "inputs": [
        {
          "name": "_email",
          "type": "string"
        },
        {
          "name": "_member",
          "type": "address"
        }
      ],
      "name": "registerMember",
      "outputs": [],
      "payable": false,
      "stateMutability": "nonpayable",
      "type": "function"
    },
    {
      "constant": true,
      "inputs": [
        {
          "name": "_member",
          "type": "address"
        }
      ],
      "name": "getAmount",
      "outputs": [
        {
          "name": "",
          "type": "uint256"
        },
        {
          "name": "",
          "type": "uint256"
        },
        {
          "name": "",
          "type": "uint256"
        }
      ],
      "payable": false,
      "stateMutability": "view",
      "type": "function"
    },
    {
      "constant": false,
      "inputs": [
        {
          "name": "_member",
          "type": "address"
        },
        {
          "name": "_amount",
          "type": "uint256"
        },
        {
          "name": "_block_number",
          "type": "uint256"
        }
      ],
      "name": "activeMember",
      "outputs": [],
      "payable": false,
      "stateMutability": "nonpayable",
      "type": "function"
    },
    {
      "constant": false,
      "inputs": [
        {
          "name": "_member",
          "type": "address"
        },
        {
          "name": "_amount",
          "type": "uint256"
        }
      ],
      "name": "memberWithdrawal",
      "outputs": [],
      "payable": false,
      "stateMutability": "nonpayable",
      "type": "function"
    },
    {
      "constant": true,
      "inputs": [
        {
          "name": "_member",
          "type": "address"
        }
      ],
      "name": "isMembership",
      "outputs": [
        {
          "name": "",
          "type": "bool"
        },
        {
          "name": "",
          "type": "uint256"
        },
        {
          "name": "",
          "type": "uint256"
        }
      ],
      "payable": false,
      "stateMutability": "view",
      "type": "function"
    }
  ],
  "bytecode": "0x608060405260008060146101000a81548160ff02191690831515021790555034801561002a57600080fd5b5060405160208061179f83398101806040528101908080519060200190929190505050336000806101000a81548173ffffffffffffffffffffffffffffffffffffffff021916908373ffffffffffffffffffffffffffffffffffffffff16021790555080600260006101000a81548173ffffffffffffffffffffffffffffffffffffffff021916908373ffffffffffffffffffffffffffffffffffffffff16021790555080600660006101000a81548173ffffffffffffffffffffffffffffffffffffffff021916908373ffffffffffffffffffffffffffffffffffffffff160217905550506116808061011f6000396000f3006080604052600436106100d0576000357c0100000000000000000000000000000000000000000000000000000000900463ffffffff16806308ae4b0c146100d55780631b2c480d146101b157806325ec527c146102085780633f4ba83a1461025f5780635bb8cb801461028e5780635c975abb146102e5578063695a7d4914610314578063787efedd146103ba5780638456cb59146104075780638da5cb5b14610436578063907d340f1461048d578063a83104e0146104f6578063f2fde38b1461057f578063f5a79767146105c2575b600080fd5b3480156100e157600080fd5b50610116600480360381019080803573ffffffffffffffffffffffffffffffffffffffff169060200190929190505050610627565b604051808060200186815260200185151515158152602001848152602001838152602001828103825287818151815260200191508051906020019080838360005b83811015610172578082015181840152602081019050610157565b50505050905090810190601f16801561019f5780820380516001836020036101000a031916815260200191505b50965050505050505060405180910390f35b3480156101bd57600080fd5b50610206600480360381019080803573ffffffffffffffffffffffffffffffffffffffff1690602001909291908035906020019092919080359060200190929190505050610702565b005b34801561021457600080fd5b50610249600480360381019080803573ffffffffffffffffffffffffffffffffffffffff16906020019092919050505061090b565b6040518082815260200191505060405180910390f35b34801561026b57600080fd5b50610274610923565b604051808215151515815260200191505060405180910390f35b34801561029a57600080fd5b506102a36109e8565b604051808273ffffffffffffffffffffffffffffffffffffffff1673ffffffffffffffffffffffffffffffffffffffff16815260200191505060405180910390f35b3480156102f157600080fd5b506102fa610a0e565b604051808215151515815260200191505060405180910390f35b34801561032057600080fd5b5061033f60048036038101908080359060200190929190505050610a21565b6040518080602001828103825283818151815260200191508051906020019080838360005b8381101561037f578082015181840152602081019050610364565b50505050905090810190601f1680156103ac5780820380516001836020036101000a031916815260200191505b509250505060405180910390f35b3480156103c657600080fd5b50610405600480360381019080803573ffffffffffffffffffffffffffffffffffffffff16906020019092919080359060200190929190505050610adc565b005b34801561041357600080fd5b5061041c610d62565b604051808215151515815260200191505060405180910390f35b34801561044257600080fd5b5061044b610e29565b604051808273ffffffffffffffffffffffffffffffffffffffff1673ffffffffffffffffffffffffffffffffffffffff16815260200191505060405180910390f35b34801561049957600080fd5b506104ce600480360381019080803573ffffffffffffffffffffffffffffffffffffffff169060200190929190505050610e4e565b6040518084151515158152602001838152602001828152602001935050505060405180910390f35b34801561050257600080fd5b5061057d600480360381019080803590602001908201803590602001908080601f0160208091040260200160405190810160405280939291908181526020018383808284378201915050505050509192919290803573ffffffffffffffffffffffffffffffffffffffff169060200190929190505050610fb0565b005b34801561058b57600080fd5b506105c0600480360381019080803573ffffffffffffffffffffffffffffffffffffffff16906020019092919050505061138a565b005b3480156105ce57600080fd5b50610603600480360381019080803573ffffffffffffffffffffffffffffffffffffffff16906020019092919050505061145f565b60405180848152602001838152602001828152602001935050505060405180910390f35b6003602052806000526040600020600091509050806000018054600181600116156101000203166002900480601f0160208091040260200160405190810160405280929190818152602001828054600181600116156101000203166002900480156106d35780601f106106a8576101008083540402835291602001916106d3565b820191906000526020600020905b8154815290600101906020018083116106b657829003601f168201915b5050505050908060010154908060020160009054906101000a900460ff16908060030154908060040154905085565b600660009054906101000a900473ffffffffffffffffffffffffffffffffffffffff1673ffffffffffffffffffffffffffffffffffffffff163373ffffffffffffffffffffffffffffffffffffffff1614151561075e57600080fd5b6001600360008573ffffffffffffffffffffffffffffffffffffffff1673ffffffffffffffffffffffffffffffffffffffff16815260200190815260200160002060020160006101000a81548160ff02191690831515021790555061080e82600360008673ffffffffffffffffffffffffffffffffffffffff1673ffffffffffffffffffffffffffffffffffffffff168152602001908152602001600020600101546114f890919063ffffffff16565b600360008573ffffffffffffffffffffffffffffffffffffffff1673ffffffffffffffffffffffffffffffffffffffff1681526020019081526020016000206001018190555080600360008573ffffffffffffffffffffffffffffffffffffffff1673ffffffffffffffffffffffffffffffffffffffff168152602001908152602001600020600301819055507f969833a1ae1e62d1a2eb63244db2e4dee9a80ac3ca5d488533e908dee0f0f3568383604051808373ffffffffffffffffffffffffffffffffffffffff1673ffffffffffffffffffffffffffffffffffffffff1681526020018281526020019250505060405180910390a1505050565b60056020528060005260406000206000915090505481565b60008060009054906101000a900473ffffffffffffffffffffffffffffffffffffffff1673ffffffffffffffffffffffffffffffffffffffff163373ffffffffffffffffffffffffffffffffffffffff1614151561098057600080fd5b600060149054906101000a900460ff16151561099b57600080fd5b60008060146101000a81548160ff0219169083151502179055507f7805862f689e2f13df9f062ff482ad3ad112aca9e0847911ed832e158c525b3360405160405180910390a16001905090565b600660009054906101000a900473ffffffffffffffffffffffffffffffffffffffff1681565b600060149054906101000a900460ff1681565b600481815481101515610a3057fe5b906000526020600020016000915090508054600181600116156101000203166002900480601f016020809104026020016040519081016040528092919081815260200182805460018160011615610100020316600290048015610ad45780601f10610aa957610100808354040283529160200191610ad4565b820191906000526020600020905b815481529060010190602001808311610ab757829003601f168201915b505050505081565b73d9c69e9e6949bdbf900d3a1639041069fa73c44f73ffffffffffffffffffffffffffffffffffffffff163373ffffffffffffffffffffffffffffffffffffffff16141515610b2a57600080fd5b80600360008473ffffffffffffffffffffffffffffffffffffffff1673ffffffffffffffffffffffffffffffffffffffff1681526020019081526020016000206001015410151515610b7b57600080fd5b600260009054906101000a900473ffffffffffffffffffffffffffffffffffffffff1673ffffffffffffffffffffffffffffffffffffffff16635a6b26ba83836040518363ffffffff167c0100000000000000000000000000000000000000000000000000000000028152600401808373ffffffffffffffffffffffffffffffffffffffff1673ffffffffffffffffffffffffffffffffffffffff16815260200182815260200192505050600060405180830381600087803b158015610c4057600080fd5b505af1158015610c54573d6000803e3d6000fd5b50505050610cad81600360008573ffffffffffffffffffffffffffffffffffffffff1673ffffffffffffffffffffffffffffffffffffffff1681526020019081526020016000206001015461151690919063ffffffff16565b600360008473ffffffffffffffffffffffffffffffffffffffff1673ffffffffffffffffffffffffffffffffffffffff168152602001908152602001600020600101819055507f7fcf532c15f0a6db0bd6d0e038bea71d30d808c7d98cb3bf7268a95bf5081b658282604051808373ffffffffffffffffffffffffffffffffffffffff1673ffffffffffffffffffffffffffffffffffffffff1681526020018281526020019250505060405180910390a15050565b60008060009054906101000a900473ffffffffffffffffffffffffffffffffffffffff1673ffffffffffffffffffffffffffffffffffffffff163373ffffffffffffffffffffffffffffffffffffffff16141515610dbf57600080fd5b600060149054906101000a900460ff16151515610ddb57600080fd5b6001600060146101000a81548160ff0219169083151502179055507f6985a02210a168e66602d3235cb6db0e70f92b3ba4d376a33c0f3d9434bff62560405160405180910390a16001905090565b6000809054906101000a900473ffffffffffffffffffffffffffffffffffffffff1681565b6000806000806000600360008773ffffffffffffffffffffffffffffffffffffffff1673ffffffffffffffffffffffffffffffffffffffff16815260200190815260200160002060010154118015610ef9575060011515600360008773ffffffffffffffffffffffffffffffffffffffff1673ffffffffffffffffffffffffffffffffffffffff16815260200190815260200160002060020160009054906101000a900460ff161515145b8015610f4a5750600360008673ffffffffffffffffffffffffffffffffffffffff1673ffffffffffffffffffffffffffffffffffffffff168152602001908152602001600020600301546005430310155b15610f585760019050610f5d565b600090505b8043600360008873ffffffffffffffffffffffffffffffffffffffff1673ffffffffffffffffffffffffffffffffffffffff16815260200190815260200160002060030154935093509350509193909250565b600073d9c69e9e6949bdbf900d3a1639041069fa73c44f73ffffffffffffffffffffffffffffffffffffffff163373ffffffffffffffffffffffffffffffffffffffff1614151561100057600080fd5b6000600560008473ffffffffffffffffffffffffffffffffffffffff1673ffffffffffffffffffffffffffffffffffffffff168152602001908152602001600020541115151561104f57600080fd5b600090505b60048054905081101561116757826040518082805190602001908083835b6020831015156110975780518252602082019150602081019050602083039250611072565b6001836020036101000a0380198251168184511680821785525050505050509050019150506040518091039020600019166004828154811015156110d757fe5b90600052602060002001604051808280546001816001161561010002031660029004801561113c5780601f1061111a57610100808354040283529182019161113c565b820191906000526020600020905b815481529060010190602001808311611128575b50509150506040518091039020600019161415151561115a57600080fd5b8080600101915050611054565b60a060405190810160405280848152602001600081526020016000151581526020016000815260200142815250600360008473ffffffffffffffffffffffffffffffffffffffff1673ffffffffffffffffffffffffffffffffffffffff16815260200190815260200160002060008201518160000190805190602001906111ef92919061152f565b506020820151816001015560408201518160020160006101000a81548160ff0219169083151502179055506060820151816003015560808201518160040155905050600483908060018154018082558091505090600182039060005260206000200160009091929091909150908051906020019061126e9291906115af565b50506001600560008473ffffffffffffffffffffffffffffffffffffffff1673ffffffffffffffffffffffffffffffffffffffff168152602001908152602001600020819055507f6ba0831d2f62ae5cbf7214bcc1d79c5da1d705f12811efda0beaa840006f874e8284604051808373ffffffffffffffffffffffffffffffffffffffff1673ffffffffffffffffffffffffffffffffffffffff16815260200180602001828103825283818151815260200191508051906020019080838360005b8381101561134a57808201518184015260208101905061132f565b50505050905090810190601f1680156113775780820380516001836020036101000a031916815260200191505b50935050505060405180910390a1505050565b6000809054906101000a900473ffffffffffffffffffffffffffffffffffffffff1673ffffffffffffffffffffffffffffffffffffffff163373ffffffffffffffffffffffffffffffffffffffff161415156113e557600080fd5b600073ffffffffffffffffffffffffffffffffffffffff168173ffffffffffffffffffffffffffffffffffffffff1614151561145c57806000806101000a81548173ffffffffffffffffffffffffffffffffffffffff021916908373ffffffffffffffffffffffffffffffffffffffff1602179055505b50565b6000806000600360008573ffffffffffffffffffffffffffffffffffffffff1673ffffffffffffffffffffffffffffffffffffffff16815260200190815260200160002060010154600360008673ffffffffffffffffffffffffffffffffffffffff1673ffffffffffffffffffffffffffffffffffffffff16815260200190815260200160002060030154439250925092509193909250565b600080828401905083811015151561150c57fe5b8091505092915050565b600082821115151561152457fe5b818303905092915050565b828054600181600116156101000203166002900490600052602060002090601f016020900481019282601f1061157057805160ff191683800117855561159e565b8280016001018555821561159e579182015b8281111561159d578251825591602001919060010190611582565b5b5090506115ab919061162f565b5090565b828054600181600116156101000203166002900490600052602060002090601f016020900481019282601f106115f057805160ff191683800117855561161e565b8280016001018555821561161e579182015b8281111561161d578251825591602001919060010190611602565b5b50905061162b919061162f565b5090565b61165191905b8082111561164d576000816000905550600101611635565b5090565b905600a165627a7a72305820bc560923e1de51e8ab76ef4692538019db2efe1f426cf0ad2e5ca4de2ad026d80029",
  "source": "pragma solidity ^0.4.20;\n\nimport './interfaces/Pausable.sol';\nimport './libs/SafeMath.sol';\nimport './BinkabiToken.sol';\n\ncontract BinkabiMembership is Pausable {\n    using SafeMath for uint256;\n    mapping (address => uint256) balances;\n    BinkabiToken binkabi;\n\n    event Withdrawal(address _holder, uint256 _amount);\n    event Active(address _holder, uint256 _amount);\n    event Register(address _member, string _email);\n\n    struct Member {\n        string email;\n        uint256 amount;\n        bool isActive;\n        uint blockActive;\n        uint256 createdAt;\n    }\n    mapping (address => Member) public members;\n    string[] public emails;\n    mapping (address => uint256) public memberActive;\n    address public binkabiTokenAddress;\n\n    modifier onlyOwnerExchange() {\n        require(msg.sender == 0xD9C69E9E6949BDbf900d3A1639041069fA73C44f);\n        _;\n    }\n\n    modifier onlyBinkabi() {\n        require(msg.sender == binkabiTokenAddress);\n        _;\n    }\n\n    constructor(BinkabiToken _binkabiTokenAddress) public {\n        binkabi = BinkabiToken(_binkabiTokenAddress);\n        binkabiTokenAddress = _binkabiTokenAddress;\n    }\n\n    function registerMember(string _email, address _member) onlyOwnerExchange public {\n        require(memberActive[_member] <= 0);\n        for (uint256 i = 0; i < emails.length; i++) {\n            require(keccak256(emails[i]) != keccak256(_email));\n        }\n        \n        members[_member] = Member({\n            email: _email,\n            isActive: false,\n            createdAt: now,\n            blockActive: 0,\n            amount: 0\n        });\n        emails.push(_email);\n        memberActive[_member] = 1;\n        emit Register(_member, _email);\n    }\n\n    function getAmount(address _member) public view returns (uint256, uint, uint) {\n        return (members[_member].amount, members[_member].blockActive, block.number);\n    }\n\n    function activeMember(address _member, uint256 _amount, uint _block_number) onlyBinkabi public {\n        members[_member].isActive = true;\n        members[_member].amount = members[_member].amount.add(_amount);\n        members[_member].blockActive = _block_number;\n        emit Active(_member, _amount);\n    }\n\n    function memberWithdrawal(address _member, uint256 _amount) onlyOwnerExchange public {\n        require(members[_member].amount >= _amount);\n        binkabi.withdrawal(_member, _amount);\n        members[_member].amount = members[_member].amount.sub(_amount);\n        emit Withdrawal(_member, _amount);\n    }\n\n    function isMembership(address _member) public view returns(bool, uint, uint) {\n        bool _isActive;\n        if (members[_member].amount > 0 && members[_member].isActive == true && (block.number - 5) >= members[_member].blockActive) {\n            _isActive = true;\n        }\n        else {\n            _isActive = false;\n        }\n        return (_isActive, block.number, members[_member].blockActive);\n    }\n}",
  "sourcePath": "/home/vagrant/projects/tomo/binkabi-ico/server/contracts/contracts/BinkabiMembership.sol",
  "compiler": {
    "name": "solc",
    "version": "0.4.24+commit.e67f0147.Emscripten.clang"
  },
  "schemaVersion": "2.0.0",
  "updatedAt": "2018-06-01T10:26:15.389Z"
}