{
  "contractName": "Pausable",
  "abi": [
    {
      "constant": true,
      "inputs": [],
      "name": "paused",
      "outputs": [
        {
          "name": "",
          "type": "bool"
        }
      ],
      "payable": false,
      "stateMutability": "view",
      "type": "function"
    },
    {
      "constant": true,
      "inputs": [],
      "name": "owner",
      "outputs": [
        {
          "name": "",
          "type": "address"
        }
      ],
      "payable": false,
      "stateMutability": "view",
      "type": "function"
    },
    {
      "constant": false,
      "inputs": [
        {
          "name": "newOwner",
          "type": "address"
        }
      ],
      "name": "transferOwnership",
      "outputs": [],
      "payable": false,
      "stateMutability": "nonpayable",
      "type": "function"
    },
    {
      "anonymous": false,
      "inputs": [],
      "name": "Pause",
      "type": "event"
    },
    {
      "anonymous": false,
      "inputs": [],
      "name": "Unpause",
      "type": "event"
    },
    {
      "constant": false,
      "inputs": [],
      "name": "pause",
      "outputs": [
        {
          "name": "",
          "type": "bool"
        }
      ],
      "payable": false,
      "stateMutability": "nonpayable",
      "type": "function"
    },
    {
      "constant": false,
      "inputs": [],
      "name": "unpause",
      "outputs": [
        {
          "name": "",
          "type": "bool"
        }
      ],
      "payable": false,
      "stateMutability": "nonpayable",
      "type": "function"
    }
  ],
  "bytecode": "0x608060405260008060146101000a81548160ff021916908315150217905550336000806101000a81548173ffffffffffffffffffffffffffffffffffffffff021916908373ffffffffffffffffffffffffffffffffffffffff16021790555061045e8061006d6000396000f30060806040526004361061006d576000357c0100000000000000000000000000000000000000000000000000000000900463ffffffff1680633f4ba83a146100725780635c975abb146100a15780638456cb59146100d05780638da5cb5b146100ff578063f2fde38b14610156575b600080fd5b34801561007e57600080fd5b50610087610199565b604051808215151515815260200191505060405180910390f35b3480156100ad57600080fd5b506100b661025e565b604051808215151515815260200191505060405180910390f35b3480156100dc57600080fd5b506100e5610271565b604051808215151515815260200191505060405180910390f35b34801561010b57600080fd5b50610114610338565b604051808273ffffffffffffffffffffffffffffffffffffffff1673ffffffffffffffffffffffffffffffffffffffff16815260200191505060405180910390f35b34801561016257600080fd5b50610197600480360381019080803573ffffffffffffffffffffffffffffffffffffffff16906020019092919050505061035d565b005b60008060009054906101000a900473ffffffffffffffffffffffffffffffffffffffff1673ffffffffffffffffffffffffffffffffffffffff163373ffffffffffffffffffffffffffffffffffffffff161415156101f657600080fd5b600060149054906101000a900460ff16151561021157600080fd5b60008060146101000a81548160ff0219169083151502179055507f7805862f689e2f13df9f062ff482ad3ad112aca9e0847911ed832e158c525b3360405160405180910390a16001905090565b600060149054906101000a900460ff1681565b60008060009054906101000a900473ffffffffffffffffffffffffffffffffffffffff1673ffffffffffffffffffffffffffffffffffffffff163373ffffffffffffffffffffffffffffffffffffffff161415156102ce57600080fd5b600060149054906101000a900460ff161515156102ea57600080fd5b6001600060146101000a81548160ff0219169083151502179055507f6985a02210a168e66602d3235cb6db0e70f92b3ba4d376a33c0f3d9434bff62560405160405180910390a16001905090565b6000809054906101000a900473ffffffffffffffffffffffffffffffffffffffff1681565b6000809054906101000a900473ffffffffffffffffffffffffffffffffffffffff1673ffffffffffffffffffffffffffffffffffffffff163373ffffffffffffffffffffffffffffffffffffffff161415156103b857600080fd5b600073ffffffffffffffffffffffffffffffffffffffff168173ffffffffffffffffffffffffffffffffffffffff1614151561042f57806000806101000a81548173ffffffffffffffffffffffffffffffffffffffff021916908373ffffffffffffffffffffffffffffffffffffffff1602179055505b505600a165627a7a72305820f6d86c0b62fc63f396083d820650e63c2f6a3353ff710c3168824956b40e0aa60029",
  "source": "pragma solidity ^0.4.20;\nimport './Ownable.sol';\n\n/**\n * @title Pausable\n * @dev Base contract which allows children to implement an emergency stop mechanism.\n */\n\n\ncontract Pausable is Ownable {\n    event Pause();\n    event Unpause();\n\n    bool public paused = false;\n\n\n    /**\n    * @dev modifier to allow actions only when the contract IS paused\n    */\n    modifier whenNotPaused() {\n        require(!paused);\n        _;\n    }\n\n    /**\n    * @dev modifier to allow actions only when the contract IS NOT paused\n    */\n    modifier whenPaused {\n        require(paused);\n        _;\n    }\n\n    /**\n    * @dev called by the owner to pause, triggers stopped state\n    */\n    function pause() public onlyOwner whenNotPaused returns (bool) {\n        paused = true;\n        emit Pause();\n        return true;\n    }\n\n    /**\n    * @dev called by the owner to unpause, returns to normal state\n    */\n    function unpause() public onlyOwner whenPaused returns (bool) {\n        paused = false;\n        emit Unpause();\n        return true;\n    }\n}",
  "sourcePath": "/home/vagrant/projects/tomo/binkabi-ico/server/contracts/contracts/interfaces/Pausable.sol",
  "compiler": {
    "name": "solc",
    "version": "0.4.24+commit.e67f0147.Emscripten.clang"
  },
  "schemaVersion": "2.0.0",
  "updatedAt": "2018-05-31T10:26:22.476Z"
}