{
  "contractName": "TokenVoting",
  "abi": [
    {
      "constant": false,
      "inputs": [],
      "name": "unpause",
      "outputs": [
        {
          "name": "",
          "type": "bool"
        }
      ],
      "payable": false,
      "stateMutability": "nonpayable",
      "type": "function"
    },
    {
      "constant": true,
      "inputs": [],
      "name": "paused",
      "outputs": [
        {
          "name": "",
          "type": "bool"
        }
      ],
      "payable": false,
      "stateMutability": "view",
      "type": "function"
    },
    {
      "constant": false,
      "inputs": [],
      "name": "pause",
      "outputs": [
        {
          "name": "",
          "type": "bool"
        }
      ],
      "payable": false,
      "stateMutability": "nonpayable",
      "type": "function"
    },
    {
      "constant": true,
      "inputs": [],
      "name": "owner",
      "outputs": [
        {
          "name": "",
          "type": "address"
        }
      ],
      "payable": false,
      "stateMutability": "view",
      "type": "function"
    },
    {
      "constant": false,
      "inputs": [
        {
          "name": "newOwner",
          "type": "address"
        }
      ],
      "name": "transferOwnership",
      "outputs": [],
      "payable": false,
      "stateMutability": "nonpayable",
      "type": "function"
    },
    {
      "inputs": [
        {
          "name": "_privateTokenTokenAddress",
          "type": "address"
        }
      ],
      "payable": false,
      "stateMutability": "nonpayable",
      "type": "constructor"
    },
    {
      "anonymous": false,
      "inputs": [],
      "name": "Pause",
      "type": "event"
    },
    {
      "anonymous": false,
      "inputs": [],
      "name": "Unpause",
      "type": "event"
    },
    {
      "constant": false,
      "inputs": [
        {
          "name": "_from",
          "type": "address"
        },
        {
          "name": "_to",
          "type": "address"
        },
        {
          "name": "_orderId",
          "type": "uint256"
        },
        {
          "name": "_score",
          "type": "uint256"
        },
        {
          "name": "_comments",
          "type": "string"
        }
      ],
      "name": "rating",
      "outputs": [
        {
          "name": "",
          "type": "bool"
        }
      ],
      "payable": false,
      "stateMutability": "nonpayable",
      "type": "function"
    },
    {
      "constant": true,
      "inputs": [
        {
          "name": "_delegate",
          "type": "address"
        }
      ],
      "name": "getRating",
      "outputs": [
        {
          "name": "",
          "type": "uint256"
        },
        {
          "name": "",
          "type": "uint256"
        },
        {
          "name": "",
          "type": "uint256"
        }
      ],
      "payable": false,
      "stateMutability": "view",
      "type": "function"
    },
    {
      "constant": true,
      "inputs": [
        {
          "name": "_delegate",
          "type": "address"
        },
        {
          "name": "_index",
          "type": "uint256"
        }
      ],
      "name": "getComment",
      "outputs": [
        {
          "name": "_comment",
          "type": "string"
        }
      ],
      "payable": false,
      "stateMutability": "view",
      "type": "function"
    },
    {
      "constant": true,
      "inputs": [
        {
          "name": "_delegate",
          "type": "address"
        },
        {
          "name": "_orderId",
          "type": "uint256"
        }
      ],
      "name": "isVoted",
      "outputs": [
        {
          "name": "",
          "type": "bool"
        }
      ],
      "payable": false,
      "stateMutability": "view",
      "type": "function"
    },
    {
      "constant": false,
      "inputs": [
        {
          "name": "_tokenEscrowAddress",
          "type": "address"
        }
      ],
      "name": "setTokenEscrowAddress",
      "outputs": [],
      "payable": false,
      "stateMutability": "nonpayable",
      "type": "function"
    }
  ],
  "bytecode": "0x608060405260008060146101000a81548160ff02191690831515021790555034801561002a57600080fd5b5060405160208061139683398101806040528101908080519060200190929190505050336000806101000a81548173ffffffffffffffffffffffffffffffffffffffff021916908373ffffffffffffffffffffffffffffffffffffffff16021790555080600160006101000a81548173ffffffffffffffffffffffffffffffffffffffff021916908373ffffffffffffffffffffffffffffffffffffffff160217905550506112b8806100de6000396000f3006080604052600436106100a4576000357c0100000000000000000000000000000000000000000000000000000000900463ffffffff168063014b3d9d146100a95780633f4ba83a1461017e5780635c975abb146101ad57806360826484146101dc57806380fc9c0e1461021f5780638456cb59146102845780638da5cb5b146102b35780638ee36f051461030a578063f2db450e1461036f578063f2fde38b14610435575b600080fd5b3480156100b557600080fd5b50610164600480360381019080803573ffffffffffffffffffffffffffffffffffffffff169060200190929190803573ffffffffffffffffffffffffffffffffffffffff1690602001909291908035906020019092919080359060200190929190803590602001908201803590602001908080601f0160208091040260200160405190810160405280939291908181526020018383808284378201915050505050509192919290505050610478565b604051808215151515815260200191505060405180910390f35b34801561018a57600080fd5b50610193610ab9565b604051808215151515815260200191505060405180910390f35b3480156101b957600080fd5b506101c2610b7e565b604051808215151515815260200191505060405180910390f35b3480156101e857600080fd5b5061021d600480360381019080803573ffffffffffffffffffffffffffffffffffffffff169060200190929190505050610b91565b005b34801561022b57600080fd5b50610260600480360381019080803573ffffffffffffffffffffffffffffffffffffffff169060200190929190505050610c67565b60405180848152602001838152602001828152602001935050505060405180910390f35b34801561029057600080fd5b50610299610d22565b604051808215151515815260200191505060405180910390f35b3480156102bf57600080fd5b506102c8610de9565b604051808273ffffffffffffffffffffffffffffffffffffffff1673ffffffffffffffffffffffffffffffffffffffff16815260200191505060405180910390f35b34801561031657600080fd5b50610355600480360381019080803573ffffffffffffffffffffffffffffffffffffffff16906020019092919080359060200190929190505050610e0e565b604051808215151515815260200191505060405180910390f35b34801561037b57600080fd5b506103ba600480360381019080803573ffffffffffffffffffffffffffffffffffffffff16906020019092919080359060200190929190505050610fd6565b6040518080602001828103825283818151815260200191508051906020019080838360005b838110156103fa5780820151818401526020810190506103df565b50505050905090810190601f1680156104275780820380516001836020036101000a031916815260200191505b509250505060405180910390f35b34801561044157600080fd5b50610476600480360381019080803573ffffffffffffffffffffffffffffffffffffffff1690602001909291905050506110d9565b005b60008060008060008610158015610490575060058611155b151561049b57600080fd5b8773ffffffffffffffffffffffffffffffffffffffff168973ffffffffffffffffffffffffffffffffffffffff16141515156104d657600080fd5b600260009054906101000a900473ffffffffffffffffffffffffffffffffffffffff1673ffffffffffffffffffffffffffffffffffffffff1663164864c2886040518263ffffffff167c010000000000000000000000000000000000000000000000000000000002815260040180828152602001915050602060405180830381600087803b15801561056757600080fd5b505af115801561057b573d6000803e3d6000fd5b505050506040513d602081101561059157600080fd5b81019080805190602001909291905050509250600260009054906101000a900473ffffffffffffffffffffffffffffffffffffffff1673ffffffffffffffffffffffffffffffffffffffff166398506fa3886040518263ffffffff167c010000000000000000000000000000000000000000000000000000000002815260040180828152602001915050602060405180830381600087803b15801561063557600080fd5b505af1158015610649573d6000803e3d6000fd5b505050506040513d602081101561065f57600080fd5b810190808051906020019092919050505091508873ffffffffffffffffffffffffffffffffffffffff168373ffffffffffffffffffffffffffffffffffffffff161480156106d857508773ffffffffffffffffffffffffffffffffffffffff168273ffffffffffffffffffffffffffffffffffffffff16145b8061074557508773ffffffffffffffffffffffffffffffffffffffff168373ffffffffffffffffffffffffffffffffffffffff1614801561074457508873ffffffffffffffffffffffffffffffffffffffff168273ffffffffffffffffffffffffffffffffffffffff16145b5b151561075057600080fd5b600090505b600360008973ffffffffffffffffffffffffffffffffffffffff1673ffffffffffffffffffffffffffffffffffffffff168152602001908152602001600020805490508110156108ce578873ffffffffffffffffffffffffffffffffffffffff16600360008a73ffffffffffffffffffffffffffffffffffffffff1673ffffffffffffffffffffffffffffffffffffffff1681526020019081526020016000208281548110151561080257fe5b906000526020600020906005020160020160009054906101000a900473ffffffffffffffffffffffffffffffffffffffff1673ffffffffffffffffffffffffffffffffffffffff161480156108b3575086600360008a73ffffffffffffffffffffffffffffffffffffffff1673ffffffffffffffffffffffffffffffffffffffff1681526020019081526020016000208281548110151561089f57fe5b906000526020600020906005020160000154145b156108c15760009350610aad565b8080600101915050610755565b600360008973ffffffffffffffffffffffffffffffffffffffff1673ffffffffffffffffffffffffffffffffffffffff16815260200190815260200160002060a0604051908101604052808981526020018881526020018b73ffffffffffffffffffffffffffffffffffffffff1681526020018781526020014281525090806001815401808255809150509060018203906000526020600020906005020160009091929091909150600082015181600001556020820151816001015560408201518160020160006101000a81548173ffffffffffffffffffffffffffffffffffffffff021916908373ffffffffffffffffffffffffffffffffffffffff16021790555060608201518160030190805190602001906109ed9291906111e7565b5060808201518160040155505050610a5086600460008b73ffffffffffffffffffffffffffffffffffffffff1673ffffffffffffffffffffffffffffffffffffffff168152602001908152602001600020600001546111ae90919063ffffffff16565b50610aa76001600460008b73ffffffffffffffffffffffffffffffffffffffff1673ffffffffffffffffffffffffffffffffffffffff168152602001908152602001600020600101546111ae90919063ffffffff16565b50600193505b50505095945050505050565b60008060009054906101000a900473ffffffffffffffffffffffffffffffffffffffff1673ffffffffffffffffffffffffffffffffffffffff163373ffffffffffffffffffffffffffffffffffffffff16141515610b1657600080fd5b600060149054906101000a900460ff161515610b3157600080fd5b60008060146101000a81548160ff0219169083151502179055507f7805862f689e2f13df9f062ff482ad3ad112aca9e0847911ed832e158c525b3360405160405180910390a16001905090565b600060149054906101000a900460ff1681565b6000809054906101000a900473ffffffffffffffffffffffffffffffffffffffff1673ffffffffffffffffffffffffffffffffffffffff163373ffffffffffffffffffffffffffffffffffffffff16141515610bec57600080fd5b600073ffffffffffffffffffffffffffffffffffffffff168173ffffffffffffffffffffffffffffffffffffffff16141515610c645780600260006101000a81548173ffffffffffffffffffffffffffffffffffffffff021916908373ffffffffffffffffffffffffffffffffffffffff1602179055505b50565b600080600080600080600460008873ffffffffffffffffffffffffffffffffffffffff1673ffffffffffffffffffffffffffffffffffffffff168152602001908152602001600020600101549250600460008873ffffffffffffffffffffffffffffffffffffffff1673ffffffffffffffffffffffffffffffffffffffff168152602001908152602001600020600001549150610d0d83836111cc90919063ffffffff16565b90508282829550955095505050509193909250565b60008060009054906101000a900473ffffffffffffffffffffffffffffffffffffffff1673ffffffffffffffffffffffffffffffffffffffff163373ffffffffffffffffffffffffffffffffffffffff16141515610d7f57600080fd5b600060149054906101000a900460ff16151515610d9b57600080fd5b6001600060146101000a81548160ff0219169083151502179055507f6985a02210a168e66602d3235cb6db0e70f92b3ba4d376a33c0f3d9434bff62560405160405180910390a16001905090565b6000809054906101000a900473ffffffffffffffffffffffffffffffffffffffff1681565b6000808373ffffffffffffffffffffffffffffffffffffffff163373ffffffffffffffffffffffffffffffffffffffff1614151515610e4c57600080fd5b600090505b600360008573ffffffffffffffffffffffffffffffffffffffff1673ffffffffffffffffffffffffffffffffffffffff16815260200190815260200160002080549050811015610fca573373ffffffffffffffffffffffffffffffffffffffff16600360008673ffffffffffffffffffffffffffffffffffffffff1673ffffffffffffffffffffffffffffffffffffffff16815260200190815260200160002082815481101515610efe57fe5b906000526020600020906005020160020160009054906101000a900473ffffffffffffffffffffffffffffffffffffffff1673ffffffffffffffffffffffffffffffffffffffff16148015610faf575082600360008673ffffffffffffffffffffffffffffffffffffffff1673ffffffffffffffffffffffffffffffffffffffff16815260200190815260200160002082815481101515610f9b57fe5b906000526020600020906005020160000154145b15610fbd5760019150610fcf565b8080600101915050610e51565b600091505b5092915050565b6060600360008473ffffffffffffffffffffffffffffffffffffffff1673ffffffffffffffffffffffffffffffffffffffff1681526020019081526020016000208281548110151561102457fe5b90600052602060002090600502016003018054600181600116156101000203166002900480601f0160208091040260200160405190810160405280929190818152602001828054600181600116156101000203166002900480156110c95780601f1061109e576101008083540402835291602001916110c9565b820191906000526020600020905b8154815290600101906020018083116110ac57829003601f168201915b5050505050905080905092915050565b6000809054906101000a900473ffffffffffffffffffffffffffffffffffffffff1673ffffffffffffffffffffffffffffffffffffffff163373ffffffffffffffffffffffffffffffffffffffff1614151561113457600080fd5b600073ffffffffffffffffffffffffffffffffffffffff168173ffffffffffffffffffffffffffffffffffffffff161415156111ab57806000806101000a81548173ffffffffffffffffffffffffffffffffffffffff021916908373ffffffffffffffffffffffffffffffffffffffff1602179055505b50565b60008082840190508381101515156111c257fe5b8091505092915050565b60008082848115156111da57fe5b0490508091505092915050565b828054600181600116156101000203166002900490600052602060002090601f016020900481019282601f1061122857805160ff1916838001178555611256565b82800160010185558215611256579182015b8281111561125557825182559160200191906001019061123a565b5b5090506112639190611267565b5090565b61128991905b8082111561128557600081600090555060010161126d565b5090565b905600a165627a7a723058201e3a082ad08eaacb95086ee20f4033124dff4b97a04b88975d1f9b8d2fcb41e70029",
  "source": "pragma solidity ^0.4.20;\nimport './interfaces/Pausable.sol';\nimport './libs/SafeMath.sol';\nimport './PrivateToken.sol';\nimport './TokenEscrow.sol';\n\ncontract TokenVoting is Pausable{\n    using SafeMath for uint256;\n\n    PrivateToken privateToken;\n    TokenEscrow escrow;\n\n    constructor(PrivateToken _privateTokenTokenAddress) public {\n        privateToken = PrivateToken(_privateTokenTokenAddress);\n    }\n\n    struct Vote {\n        uint256 orderId;\n        uint256 score;\n        address voter;\n        string description;\n        uint256 createdAt;\n    }\n\n    struct VoteAvg {\n        uint256 totalScore;\n        uint256 totalVote;\n    }\n\n    mapping (address => Vote[]) voting;\n    mapping (address => VoteAvg) voteAvg;\n\n    function rating(address _from, address _to, uint256 _orderId, uint256 _score, string _comments) public returns(bool) {\n        require(_score >= 0 && _score <= 5);\n        require(_from != _to);\n        address _buyer = escrow.getBuyerOrder(_orderId);\n        address _seller = escrow.getSellerOrder(_orderId);\n        require((_buyer == _from && _seller == _to) || (_buyer == _to && _seller == _from));\n        \n        \n        for (uint256 i = 0; i < voting[_to].length; i++) {\n            if (voting[_to][i].voter == _from && voting[_to][i].orderId == _orderId){\n                return false;\n            }\n        }\n\n        voting[_to].push(Vote({\n            orderId: _orderId,\n            score: _score,\n            voter: _from,\n            description: _comments,\n            createdAt: now\n        }));\n\n        voteAvg[_to].totalScore.add(_score);\n        voteAvg[_to].totalVote.add(1);\n        \n        return true;\n\n    }\n\n    function getRating(address _delegate) public view returns(uint256, uint256, uint256) {\n        uint256 _totalVote = voteAvg[_delegate].totalVote;\n        uint256 _totalScore = voteAvg[_delegate].totalScore;\n        uint256 _score = _totalScore.div(_totalVote);\n        return (_totalVote, _totalScore, _score);\n    }\n\n    function getComment(address _delegate, uint256 _index) public view returns(string _comment) {\n        _comment = voting[_delegate][_index].description;\n        return _comment;\n    }\n\n    function isVoted(address _delegate, uint256 _orderId) public view returns(bool) {\n        require(msg.sender != _delegate);\n        \n        for (uint256 i = 0; i < voting[_delegate].length; i++) {\n            if (voting[_delegate][i].voter == msg.sender && voting[_delegate][i].orderId == _orderId){\n                return true;\n            }\n        }\n\n        return false;\n    }\n    \n    // Setup Token escrow Smart Contract\n    function setTokenEscrowAddress(address _tokenEscrowAddress) public onlyOwner {\n        if (_tokenEscrowAddress != address(0)) {\n            escrow = TokenEscrow(_tokenEscrowAddress);\n        }\n    }\n\n}",
  "sourcePath": "/home/vagrant/projects/tomo/privateToken-ico/server/contracts/contracts/TokenVoting.sol",
  "compiler": {
    "name": "solc",
    "version": "0.4.24+commit.e67f0147.Emscripten.clang"
  },
  "schemaVersion": "2.0.0",
  "updatedAt": "2018-06-01T10:26:15.379Z"
}